:020000040800F2
:1000000000000220D167000819680008196800087C
:100010001968000819680008196800080000000045
:100020000000000000000000000000001968000847
:100030001968000800000000196800081968000825
:10004000196800081968000819680008196800088C
:10005000196800081968000819680008196800087C
:10006000196800081968000819680008196800086C
:10007000196800081968000819680008196800085C
:10008000196800081968000819680008196800084C
:10009000196800081968000819680008196800083C
:1000A000196800081968000819680008196800082C
:1000B000196800081968000819680008196800081C
:1000C000196800081968000819680008196800080C
:1000D00019680008196800081968000819680008FC
:1000E00019680008196800081968000819680008EC
:1000F00019680008196800081968000819680008DC
:1001000019680008196800081968000819680008CB
:10011000196800081968000819680008350A0008FD
:100120001968000895050008196800081968000892
:10013000196800081968000819680008196800089B
:10014000196800081968000819680008196800088B
:10015000196800081968000819680008196800087B
:10016000196800081968000819680008196800086B
:10017000196800081968000819680008196800085B
:08018000196800081968000865
:100188000348044B834202D0034B03B1184770471E
:10019800489A0020489A0020000000000548064BB5
:1001A8001B1AD90F01EBA301491002D0034B03B16D
:1001B80018477047489A0020489A0020000000001D
:1001C80010B5064C237843B9FFF7DAFF044B13B197
:1001D8000448AFF300800123237010BD489A002023
:1001E80000000000248B000808B5044B1BB104492B
:1001F8000448AFF30080BDE80840CFE700000000E6
:100208004C9A0020248B0008A3F5803A704700BF61
:10021800154B002B08BF114B9D46FFF7F5FF00213A
:100228008B460F461148124A121A06F039F90C4B40
:10023800002B00D098470B4B002B00D0984700208C
:10024800002104000D000B4806F03EF806F066F8A1
:100258002000290006F004FA06F03CF80000080027
:10026800000000000000000000000000489A002084
:1002780098C60120FD6200082DE980483F4E404D98
:10028800DFF80491DFF804813E4F89B045F2AA5A9D
:10029800D8F82840337814F4002435D003F0FF044C
:1002A800002BF5D169463846ADF800A0DFF8E0B07C
:1002B80004F01CFF234601E05D451CD0BBF800405C
:1002C800BBF8001003F1200003F1210268446A44DE
:1002D8000233C1F30721202B00F8204C0BF1020B4D
:1002E80002F8201CE8D16946384604F0FFFE5D4557
:1002F8004FF00003E2D1B3BB01233370D8F8284094
:10030800337814F40024C9D1012BC1D16946384689
:10031800ADF800A0DFF87CB004F0E8FE234601E069
:10032800CB451CD0BBF80040BBF8001003F12000FF
:1003380003F1210268446A440233C1F30721202BE8
:1003480000F8204C0BF1020B02F8201CE8D169469A
:10035800384604F0CBFECB454FF00003E2D13BB961
:100368000023337094E76946384604F0BFFEC3E7BC
:100378006946384604F0BAFEF2E700BF649A0020E6
:1003880080C60120FC69000880300120006402401A
:1003980080300120809A0020F0B589B00F460446CD
:1003A80045F2AA531948ADF80030694604F09EFE9C
:1003B8001FB30023154E1D4601E0AF421CD0218813
:1003C800208803F1200C03F12102EC446A44023333
:1003D800C0F30720202B0CF8201C05F1010502F8BA
:1003E800200C04F10204E8D16946304604F07EFE90
:1003F800AF424FF00003E2D10BB909B0F0BD694636
:10040800024804F073FE09B0F0BD00BFFC690008A3
:1004180010B5174C201D05F0FDFE211D154805F0EF
:10042800A1FA94F9042094F905301349501DBABF74
:10043800A2EBC20040000020052B486310DDC3EB8F
:10044800C3035B008B6300230B49052A0B64C8BFF9
:10045800C2EBC202084BCCBF52000022DA6310BDC7
:1004680000208863591DEEDAA3EBC3035B00EBE7BA
:10047800649A00200C6A00080008004070B5054620
:1004880088B04E00002404F09DFE0128FBD1684688
:1004980004F0D6FE9DF80030AA2B2AD0A6421FD918
:1004A8006B4604F1200008E001341A786A5284424D
:1004B80003F1010312D0A64212D024F0010214F075
:1004C800010F1146F0D093F800C0A95A013441EA4F
:1004D8000C218442A95203F10103ECD1A642D2D8DF
:1004E8004FF49641284604F06DFBFFF791FF08B0E2
:1004F80070BD9DF80130552BD0D10024C3E700BF53
:1005080008B5034C4FF496412046FFF7B7FFF9E7CB
:100518001800002070B51B4D1B4C82B0002605F05A
:100528008DFA0128FBD101A805F0C6FA9DF906301D
:100538009DF905209DF90410284600F0F1FA9DF96F
:100548000420501DBABFA2EBC2035B000023636303
:100558009DF90530052B0DDDC3EBC3035B00A363D9
:100568000023052AC6BFC2EBC20252000022236440
:10057800E263D4E7591DA663F2DAA3EBC3035B0079
:10058800EFE700BF4C6A0008000800400C4B1A68EF
:10059800510544BF4FF480629A60094B1A681205EE
:1005A8000DD54FF400629A60986A0649064A074BCF
:1005B80010F4002F08BF0B46012193601173704798
:1005C80000640240809A0020649A00208030012054
:1005D80080B5DFF87C901D4D88B045F2AA570026FB
:1005E80099F80C30002BFBD0D9F80840ADF8007012
:1005F8006946284604F07AFD04F51648002301E010
:1006080044451AD003F120026A44218802F8201CCC
:10061800218803F121026A440233C1F30721202B08
:1006280004F1020402F8201CEAD16946284604F0C5
:100638005DFD44454FF00003E4D113B989F80C601F
:10064800CEE76946284604F051FDF7E7FC69000843
:10065800649A00204148424AD0F8883043F4700335
:10066800C0F888301368002143F0010313609160DB
:100678001368A0F1BC2023F0847323F48033F0388E
:1006880013605060136882B023F480231360D16034
:1006980000910191136843F48033136003E0009BD9
:1006A800B3F5A06F09D0136803F400330193009BDE
:1006B80001330093019B002BF1D0294B1B6813F4E5
:1006C800003318BF01230193019B012B14D0244A46
:1006D8002449936823F400039360C2F884101368D4
:1006E80043F08063136013681B01FCD51B4B4FF06C
:1006F80000629A6002B07047194B1B491A6C1B487C
:1007080042F080521A640A6842F480420A609A6889
:100718009A609A6842F400429A609A6842F4A05239
:100728009A6058601A6842F080721A601A689201DA
:10073800FCD50F4A40F205611160996821F0030168
:100748009960996841F00201A2F580629960936806
:1007580003F00C03082BFAD1B9E700BF00ED00E065
:1007680000380240804000300070004008544007C4
:10077800003C0240164A936803F00C03042B0BD08C
:10078800082B0BD0134B124A13499268C2F3031279
:100798008A5CD3400B617047104BF4E7536851688B
:1007A80013F4800F536814BF0C4A0A4AC3F3881322
:1007B80001F03F01B2FBF1F202FB03F3044A526875
:1007C800C2F3014201325200B3FBF2F3DBE700BF90
:1007D800003802400024F4000400002000127A00CF
:1007E8001D491E4A0B6C43F040030B644FF0530C39
:1007F8004FF47A73A2F828C0D36213889BB243F0EF
:1008080084031380138823F010031B041B0C13802C
:10081800938A9BB243F00103938213889BB243F0FF
:100828000103138050B1138ADB07FCD5138A23F028
:1008380001031B041B0C01381382F4D10749064A33
:100848000B8823F001031B041B0C0B80136C23F093
:1008580040031364704700BF00380240001800408E
:100868001C491D4A0B6C43F040030B644FF0030C0A
:100878001523A2F828C0D36213889BB243F08403DF
:100888001380138823F010031B041B0C1380938A16
:100898009BB243F00103938213889BB243F0010398
:1008A800138050B1138ADB07FCD5138A23F00103A8
:1008B8001B041B0C01381382F4D10749054A0B8825
:1008C80023F001031B041B0C0B80136C23F0400363
:1008D8001364704700380240001800400D490E4B61
:1008E8000A6C4FF0530C42F008024FF0FF300A64D4
:1008F800A3F828C0D8621A8892B242F084021A80FB
:100908001A8822F0700212040021120C1A809980B1
:100918005962704700380240000C0040054A938A2B
:100928009BB243F00103938213889BB243F0010307
:1009380013807047000C0040044A506A138823F063
:1009480001031B041B0C1380704700BF000C004000
:1009580013490A6C4FF0804342F001024FF0530CE8
:100968004FF0FF300A64A3F828C0D8621A8892B200
:1009780042F084021A801A8822F0700212040021C0
:10098800120C1A80998059629A8A92B242F0010236
:100998009A821A8892B242F001021A80704700BF08
:1009A800003802404FF08043586A70474FF0804348
:1009B8005B6A984205D80844984294BF00200120F9
:1009C8007047013B181A88422CBF0020012070474D
:1009D8001348144B026C42F02002026400214FF0CD
:1009E800530C4FF47A708422A3F828C0D8621A8076
:1009F800998059629A8A0C4892B242F001029A820E
:100A08004FF0010C4FF40002A3F80CC080F8371324
:100A180042601A8892B242EA0C021A80704700BFFC
:100A2800003802400014004000E100E0054B1A8A3B
:100A3800D20705D504490A68002001320A601882E5
:100A4800704700BF00140040749A0020014B1868DA
:100A5800704700BF749A0020084B1B68834205D377
:100A68000844984294BF002001207047013B181A9F
:100A780088422CBF00200120704700BF749A0020D4
:100A8800114A124B124910B4146B44F00104146358
:100A9800146C44F4003414641A6842F0A0021A601A
:100AA8001A6A42F4EE421A629A6842F020029A6088
:100AB8009A6842F2080480B242F080029A60088183
:100AC8008C815DF8044B70470038024000000240FA
:100AD80000440040024A13885B06FCD590807047AA
:100AE800004400400D4A00B5411E00F2FF3C4FF0A3
:100AF8000D0E11F8010F40B113885B06FCD59080EC
:100B08000B780A2B03D06145F3D15DF804FB1388F9
:100B18005B06FCD5A2F804E0F5E700BF00440040FE
:100B28000FB470B58CB010AB53F8046B01933278E6
:100B38003AB300246E4D31462346252A13D1334457
:100B48005A78BAB1623A162A27D8DFE802F0786EE6
:100B58006126422626262626262626262626263BC1
:100B6800262626262B002B885806FCD5AA800B782B
:100B78000A2B0BD00134A4B22346325D3119002A66
:100B8800DBD10CB0BDE8704004B07047584A1388F8
:100B98005B06FCD50D239380ECE70023009301341A
:100BA800A4B2E7E79B78622B7BD0682B58D0772BD1
:100BB800019B00F087801A1D1B6801924FF40060AA
:100BC80000931DE0019B1A1D18680192FFF78AFF28
:100BD800E5E7019B073323F0070303F108020192BD
:100BE800D3E90012434B03EAC20343EA5173002AD4
:100BF800B8BF43F00043520000932DD44FF48070E7
:100C080002AA694600F0C4F802A8FFF76BFFC6E71E
:100C18009B78622B3DD0682B33D0772B019B59D022
:100C28001A1D01921B682020CAE7019B1A1D019218
:100C380019782F4A13885806FCD59180AFE79B781E
:100C4800622B37D0682B14D0772B019B49D01A1D03
:100C580001921B680420B3E743F080430093CDE77B
:100C6800019B01341A1D01921B68A4B24FF48060E5
:100C7800A6E7019B01341A1D01921B68A4B2022049
:100C88009EE7019B01341A1D01921B68A4B2102033
:100C980096E7019B01341A1D01921B68A4B2082033
:100CA8008EE7019B01341A1D01921B68A4B24FF410
:100CB800007085E7019B01341A1D01921B68A4B2DC
:100CC80001207DE71A1D01341B680192A4B24FF47C
:100CD800006075E71A1D01341B680192A4B2202038
:100CE8006EE71A1D01341B680192A4B2042067E75D
:100CF80000440040F8FFFF3F70B50E4A0E4D044611
:100D080030260A300138914238BF06700AD33123A1
:100D1800891A03F1010C91429E465FFA8CF3F7D2CF
:100D280080F800E0A5FB0232A0424FEAD202E9D1E6
:100D380070BD00BF00CA9A3BCDCCCCCC00B5093001
:100D48004FF0000C0378302B1AD0B1F800E002F80D
:100D58000E300B8801339BB206E090F800E002F8F1
:100D680003E00B8801339BB20CF1010CBCF10A0FB4
:100D78000B8000F1FF30F0D10021D1545DF804FB65
:100D8800BCF1090FE1D00CF1010C0138DAE700BF22
:100D98002DE9F04784B00023B0F5807FADF802302C
:100DA800137000F0BF8044D8013883B21F2B3DD8A0
:100DB8001F283BD8DFE800F07A8B3AA03A3A3A107D
:100DC8003A3A3A3A3A3A3A103A3A3A3A3A3A3A3AA5
:100DD8003A3A3A3A3A3A3A100B68002B07DA2D2396
:100DE80013700B6801205B42ADF802000B60BB4832
:100DF800BB4D194601AE0DF10E043027013C884267
:100E080088BF277006D83023091A01338142DBB224
:100E1800FAD22370A5FB0030B4424FEAD000EDD1DE
:100E28000DF1020949463046FFF788FF04B0BDE8D6
:100E3800F087B0F5806F00F01F81B0F5006F18D112
:100E48000B68104602F10805B3F1204F4FEA1374FE
:100E580004F130032ABF3734037004700B68013083
:100E68001B0185420B60EFD10023137204B0BDE86B
:100E7800F087B0F5007FD9D10B68C3F30313092BB2
:100E88008CBF3733303313700B6803F00F00092819
:100E980094BF303037301B010B6050700B68002056
:100EA8001B010B60907004B0BDE8F0870B6810461A
:100EB80002F10804302631251F064CBF0570067064
:100EC8000B6801305B00A0420B60F5D1CCE70B68E2
:100ED800104602F11004302631251B044CBF057062
:100EE80006700B6801305B00A0420B60F5D100234F
:100EF800137404B0BDE8F0870B68104602F12004B3
:100F080030253126002BB4BF067005700B68013000
:100F18005B0084420B60F5D1002382F8203004B0D6
:100F2800BDE8F087D1ED006AF5EEC06AF1EE10FA7F
:100F380006D52D2101231170ADF80230F1EE666A55
:100F4800F7EE007AF4EEE76AF1EE10FA00F1AB8002
:100F580040F3BF800023B2EE046A67EE867A1C462F
:100F6800F4EEE76AF1EE10FA03F10103F5DC87EE1F
:100F7800867AA4B220270DF10E085848DFF860E100
:100F880001AEC4464FF03009C6EE877A9FED557A18
:100F9800FCEEE76A16EE901AF8EE666A77EEE67AE5
:100FA80067EE877AFCEEE77A17EE905A0CF1FF3C71
:100FB800884288BF8CF8009009D83123091A9A46CC
:100FC800814203F10103DBB2F8D28CF800A0AEFB3A
:100FD8000030B4454FEAD000E8D10DF10209494686
:100FE8003046FFF7ABFE3D49DFF8F4C040464FF00E
:100FF800300E0138A94288BF80F800E006D83023B7
:101008006D1A01338D42DBB2FAD20370ACFB0131A9
:10101800B0424FEAD101ECD12E23494630468DF833
:101028000730FFF78BFEBDF80210652353544B1CA5
:101038009BB22D2FADF8023003D10231D754ADF851
:1010480002102649264F4FF0300C08F1FF38A14214
:1010580088BF88F800C008D83123641A581C8C420D
:101068001D46C3B2F9D288F80050A7FB0131B0453C
:101078004FEAD101E9D1D5E60B681046151DC3F337
:101088000333092B03F130048ABF3733047003702C
:101098000B6801301B0185420B60F0D100231371EE
:1010A80004B0BDE8F0879FED107AF4EEC76AF1EE60
:1010B80010FA4FF001040AD5F0EE477A27EE277AA6
:1010C8000134F4EEC76AF1EE10FAA4B2F6D42D2773
:1010D80051E79FED057A4FF6FF744BE700CA9A3B3C
:1010E800CDCCCCCC00007A44CDCCCC3D10B4421E43
:1010F800002340F2014C02E00133634512D012F89C
:10110800014F002CF8D19BB24A1E01F5806C9B1A46
:1011180002E06245445405D0991812F8014F89B28B
:10112800002CF6D15DF8044B704700BF294A2A4BC2
:10113800116B41F0020110B411631968274C21F4B6
:1011480070211960196841F420211960596841F427
:1011580040715960996841F402219960D96821F475
:101168007021D960D96841F4A021D960596A21F069
:10117800FF015962596A41F0440159622070116CAB
:10118800A3F5D83341F4001111641A886FEA42427A
:101198006FEA524292B21A801A88C2F30E021A807B
:1011A8001A8822F001021204120C1A802A2444F22E
:1011B8003202D2202B219C80988319841A811A88A4
:1011C8005DF8044B92B242F4806242F001021A8048
:1011D800704700BF0038024000040240789A00209F
:1011E8000C4A0D48138823F480631B041B0C1380DE
:1011F800938A138B13889BB243F400731380118B6B
:10120800938A9BB243EA014330EA0303F7D1108A79
:10121800C0B270470054004040000300084A094823
:1012280013889BB243F480631380118B938A9BB21B
:1012380043EA014330EA0303F7D1108AC0B270478A
:10124800005400404000030010B40E4A0E4C118BAD
:10125800938A9BB243EA014334EA0303F7D10B4B69
:101268000849108201E0013B03D38A8A5207FAD564
:1012780013B15DF8044B704705485DF8044BFFF760
:101288004FBC00BF0054004080000700A08601004A
:101298002C6D0008074A084813889BB243F4007372
:1012A8001380118B938A9BB243EA014330EA03030C
:1012B800F7D170470054004084000700134B1449CD
:1012C80001E0013B02D00A8B9207FAD4104A138836
:1012D8009BB243F480731380938ADB07FCD50D4BD4
:1012E8001B7858B943F001031382094A938A990776
:1012F800FCD50128938A138B03D07047DBB2138285
:10130800F3E7034A938A1B06FCD57047A0860100C1
:1013180000540040789A002070B506460120154612
:101328000C46FFF7CBFF3046FFF78EFF35B125445B
:1013380014F8010BFFF788FFAC42F9D1074A0848B7
:1013480013889BB243F400731380118B938A9BB26A
:1013580043EA014330EA0303F7D170BD005400406B
:101368008400070070B50646012014460D46FFF7B5
:10137800A5FF3046FFF768FF244A254813889BB22B
:1013880043F400731380118B938A9BB243EA0143A1
:1013980030EA0303F7D11D4B188810F40070FBD115
:1013A800FFF78CFFDCB1194A1A4904F1FF3EAC463D
:1013B8007045138814D09BB243F480631380158B57
:1013C800938A9BB243EA054331EA0303F7D101301C
:1013D800138A8CF80030A0420CF1010CE8D170BDE2
:1013E80023F480631B041B0C1380938A138B1388CC
:1013F8009BB243F400731380158B938A9BB243EA24
:10140800054331EA0303F7D1E1E700BF0054004088
:10141800840007004000030030B583B00DF10701D8
:101428008023012212208DF80730FFF775FFC820AE
:10143800FFF7D6F903230DF10701012211208DF8DA
:1014480007300424FFF768FF0DF1070101220C2083
:101458008DF80740FFF760FF22230DF107010122F5
:1014680072208DF807303A25FFF756FF0DF1070176
:10147800012270208DF80750FFF74EFF0DF107018C
:101488003523012271208DF80730FFF745FF0DF154
:101498000701F223012273208DF80730FFF73CFF84
:1014A8000DF1070102230122A2208DF80730FFF772
:1014B80033FF1A230DF1070101223E208DF8073072
:1014C800FFF72AFF0A20FFF78BF90DF10701012228
:1014D80012208DF80740FFF71FFFD0230DF10701F9
:1014E800012240208DF80730FFF716FF0DF10701A4
:1014F800284601228DF80740FFF70EFF0A240DF158
:10150800070101223B208DF80740FFF705FF0DF189
:101518000701E723012213208DF80730FFF7FCFEAF
:101528002046FFF75DF9202301220DF10701152060
:101538008DF80730FFF7F0FE2046FFF751F9024813
:10154800FFF7EEFA03B030BD3C6D000830B583B04C
:10155800802301220DF10701122014468DF807306F
:10156800FFF7DAFEC820FFF73BF922460DF1070125
:10157800112000258DF80740FFF7CEFE22460DF119
:1015880007010C208DF80750FFF7C6FE22460DF123
:10159800070172208DF80750FFF7BEFE22460DF1B5
:1015A800070170208DF80750FFF7B6FE22460DF1AF
:1015B800070171208DF80750FFF7AEFE22460DF1A6
:1015C800070173208DF80750FFF7A6FE22460DF19C
:1015D8000701A2208DF80750FFF79EFE22460DF165
:1015E8000701042312208DF80730FFF795FE2246E5
:1015F8000DF10701D02340208DF80730FFF78CFE4E
:1016080022460DF10701202315208DF80730FFF73A
:1016180083FEE72322460DF1070113208DF80730DA
:10162800FFF77AFE0248FFF77BFA03B030BD00BF30
:10163800786D000830B5422083B0FFF777FD0122AE
:1016480001A90A20FFF78EFE9DF80450114829468B
:10165800FFF766FA01A90B200122FFF783FE9DF828
:1016680004400D482146FFF75BFA732C01D1762D13
:1016780007D00A48FFF754FA0948FFF751FA03B0B0
:1016880030BD0848FFF74CFA0548FFF749FA03B0A0
:1016980030BD00BFB46D0008D86D0008186E000892
:1016A800386E0008FC6D000830B5422083B0FFF7A3
:1016B8003DFD01220DEB0201802312208DF801303F
:1016C800FFF72AFEC820FFF78BF801220DEB020175
:1016D800042312208DF80130FFF71EFE0A20FFF7C1
:1016E8007FF801220DEB02011423402014468DF8E7
:1016F8000130FFF711FE0520FFF772F822460DEBC7
:1017080004010C208DF80140FFF706FEA4232246B1
:101718000DEB04013E208DF80130FFF7FDFD05209B
:10172800FFF75EF8002522460DF102010C208DF826
:101738000250FFF7F1FD22460DF1030119233E2067
:101748008DF80330FFF7E8FD224601A93A237020FF
:101758008DF80430FFF7E0FD22460DF10501352331
:1017680071208DF80530FFF7D7FD22460DF10601EF
:10177800112372208DF80630FFF7CEFDF1232246A3
:101788000DF1070173208DF80730FFF7C5FD0A201A
:10179800FFF726F822460DEB040115208DF80150BD
:1017A800FFF7BAFD0520FFF71BF822460DEB0401F1
:1017B8000A20FFF7D7FD9DF801100448FFF7B0F99C
:1017C8000348FFF7ADF903B030BD00BF686E0008ED
:1017D8007C6E000830B5422083B0FFF7A7FC0122D9
:1017E80001A90A20FFF7BEFD9DF804106748FFF71E
:1017F80097F9012201A90B20FFF7B4FD9DF8041009
:101808006348FFF78DF980250DF1030101221220AD
:101818008DF80350FFF780FDC820FEF7E1FF0DF1BA
:1018280003011423012212208DF80330FFF774FD01
:101838000520FEF7D5FFD0230DF10301012240203A
:1018480001248DF80330FFF767FD0520FEF7C8FF78
:1018580022460DF1030111208DF80340FFF75CFDCE
:101868000520FEF7BDFF4A2322460DF103016B2038
:101878008DF80330FFF750FD0520FEF7B1FF224633
:101888000DF1030132208DF80350FFF745FD0520C7
:10189800FEF7A6FF22460DF10301162317208DF847
:1018A8000330FFF739FD0520FEF79AFF042322468F
:1018B8000DF1030118208DF80330FFF72DFD0520E9
:1018C800FEF78EFF022522460DF1030119208DF83F
:1018D8000350FFF721FD0520FEF782FF22460DF198
:1018E80003017A231A208DF80330FFF715FD052030
:1018F800FEF776FF22460DF103010A2303208DF837
:101908000330FFF709FD0520FEF76AFF22460DF1B7
:1019180003013A2370208DF80330FFF7FDFC052002
:10192800FEF75EFF22460DF10301352371208DF885
:101938000330FFF7F1FC0520FEF752FF22460DF1B8
:101948000301112372208DF80330FFF7E5FC052011
:10195800FEF746FFF12322460DF1030173208DF8AF
:101968000330FFF7D9FC0520FEF73AFF22460DF1B8
:101978000301A2208DF80350FFF7CEFC0520FEF7E7
:101988002FFF0448FFF7CCF803B030BDB46D000852
:10199800D86D0008A06E000830B5422083B0FFF76C
:1019A800C5FB012201A90A20FFF7DCFC9DF8041001
:1019B8006748FFF7B5F8012201A90B20FFF7D2FC11
:1019C8009DF804106348FFF7ABF880250DF103017B
:1019D800012212208DF80350FFF79EFCC820FEF765
:1019E800FFFE0DF103011423012212208DF80330AC
:1019F800FFF792FC0520FEF7F3FED0230DF103015B
:101A08000122402001248DF80330FFF785FC0520D2
:101A1800FEF7E6FE22460DF1030111208DF8034082
:101A2800FFF77AFC0520FEF7DBFE4A2322460DF17C
:101A380003016B208DF80330FFF76EFC0520FEF7DD
:101A4800CFFE22460DF1030132208DF80350FFF737
:101A580063FC0520FEF7C4FE22460DF103011623A0
:101A680017208DF80330FFF757FC0520FEF7B8FE66
:101A7800042322460DF1030118208DF80330FFF7E7
:101A88004BFC0520FEF7ACFE022522460DF10301B2
:101A980019208DF80350FFF73FFC0520FEF7A0FE44
:101AA80022460DF103017A231A208DF80330FFF73F
:101AB80033FC0520FEF794FE22460DF103010A23AC
:101AC80003208DF80330FFF727FC0520FEF788FE7A
:101AD80022460DF103013A2370208DF80330FFF7F9
:101AE8001BFC0520FEF77CFE22460DF10301352381
:101AF80071208DF80330FFF70FFC0520FEF770FE0C
:101B080022460DF10301112372208DF80330FFF7EF
:101B180003FC0520FEF764FEF12322460DF10301C4
:101B280073208DF80330FFF7F7FB0520FEF758FE0A
:101B380022460DF10301A2208DF80350FFF7ECFBBC
:101B48000520FEF74DFE0448FEF7EAFF03B030BD5E
:101B5800B46D0008D86D0008A06E00082348244A18
:101B6800016B244B41F0010110B40163146824F4A3
:101B780040341460146844F400341460546A24F047
:101B88000F045462546A44F001045462426C42F0F7
:101B980001024264002114240A221980198319843D
:101BA800A3F844101985DC625A631A8B5DF8044B5C
:101BB80092B242F060021A831A8B92B242F0080283
:101BC8001A831A8C012192B20A431A84B3F844206A
:101BD8006FEA42426FEA524292B2A3F844209982D5
:101BE8001A8892B20A431A80704700BF0038024030
:101BF80000000240000001402B492C4A086B2C4B86
:101C080040F001000863106820F44030106010684C
:101C180040F400301060506A20F00F005062506AA3
:101C280040F0010050624A6C42F001024A644FF0F1
:101C3800000C03220620A3F828C0D8625A631A8829
:101C480092B242F084021A801A8822F070021204BA
:101C5800120C1A801A8B22F070021204120C1A83CA
:101C68001A8B92B242F068021A831A8C22F002028E
:101C78001204120C1A841A8C92B242F001021A84CD
:101C8800B3F844206FEA42426FEA524292B2A3F894
:101C980044209A8A92B242F001029A821A8892B239
:101CA80042F001021A8070470038024000000240EA
:101CB8000000014030B5422083B0FFF737FA012217
:101CC80001A90A20FFF74EFB9DF804106748FEF7AC
:101CD80027FF012201A90B20FFF744FB9DF8041000
:101CE8006348FEF71DFF80250DF103010122122034
:101CF80001248DF80350FFF70FFB6420FEF770FDF9
:101D080022460DF1030112208DF80340FFF704FB72
:101D18000520FEF765FDD02322460DF10301402082
:101D28008DF80330FFF7F8FA0520FEF759FD224633
:101D38000DF1030111208DF80340FFF7EDFA05209E
:101D4800FEF74EFD22460DF103014A236B208DF864
:101D58000330FFF7E1FA0520FEF742FD22460DF1B8
:101D68000301162317208DF80330FFF7D5FA204614
:101D7800FEF736FDB62322460DF1030118208DF833
:101D88000330FFF7C9FA2046FEF72AFD22460DF177
:101D9800030132208DF80350FFF7BEFA2046FEF704
:101DA8001FFD022522460DF1030119208DF803506D
:101DB800FFF7B2FA2046FEF713FD22460DF10301A4
:101DC8007A231A208DF80330FFF7A6FA2046FEF78B
:101DD80007FD22460DF103010A2303208DF8033085
:101DE800FFF79AFA2046FEF7FBFC22460DF10301A5
:101DF8003A2370208DF80330FFF78EFA2046FEF75D
:101E0800EFFC22460DF10301352371208DF80330D4
:101E1800FFF782FA2046FEF7E3FC22460DF10301A4
:101E2800112372208DF80330FFF776FA2046FEF76B
:101E3800D7FCF12322460DF1030173208DF80330FE
:101E4800FFF76AFA2046FEF7CBFC22460DF10301A4
:101E5800A2208DF80350FFF75FFA2046FEF7C0FC7A
:101E68000448FEF75DFE03B030BD00BFB46D000846
:101E7800D86D0008A06E0008F0B583B080230DF17E
:101E88000701012212208DF80730FFF745FAC82014
:101E9800FEF7A6FC00250DF10701012211200424FC
:101EA8008DF80750FFF738FA0DF1070101220C20D1
:101EB8008DF80740FFF730FA0DF1070101221220D3
:101EC8008DF807401A27FFF727FA0DF107010122BD
:101ED8003E208DF80770FFF71FFA16230DF1070152
:101EE800012217208DF80730FFF716FA0DF10701C8
:101EF800012218208DF80740A426FFF70DFA0DF1EE
:101F080007010122322002248DF80760FFF704FA46
:101F18000DF10701012219208DF80740FFF7FCF9A0
:101F28007A2338460DF1070101228DF80730FFF7B3
:101F3800F3F90DF10701012203208DF80760FFF77F
:101F4800EBF90DF107012223012272208DF80730E9
:101F5800FFF7E2F9F2230DF10701012273208DF852
:101F68000730FFF7D9F90DF10701012215208DF887
:101F78000750FFF7D1F9D0230DF1070101224020C6
:101F88008DF80730FFF7C8F90DF107010122A220EB
:101F98008DF80740FFF7C0F90DF107014023012232
:101FA80056208DF80730FFF7B7F9E72301220DF126
:101FB800070113208DF80730FFF7AEF903B0F0BD25
:101FC80070B582B080240DF10701012212208DF82E
:101FD8000740FFF7A1F9C820FEF702FC00250DF124
:101FE8000701012211208DF80750FFF795F90DF12F
:101FF80007010623012212208DF80730FFF78CF91C
:102008000DF10701D023012240208DF80730FFF79A
:1020180083F90DF107011623012217208DF80730E7
:10202800FFF77AF904230DF10701012218208DF832
:102038000730FFF771F90DF107010122322002265E
:102048008DF80740FFF768F90DF107010122192003
:102058008DF80760FFF760F97A230DF10701012277
:102068001A208DF80730FFF757F90DF10701012203
:1020780003208DF80750FFF74FF90DF107010122F2
:1020880015208DF80750FFF747F90DF107010122D8
:10209800A2208DF80760FFF73FF9E7230DF107014C
:1020A800012213208DF80730FFF736F90DF10701EB
:1020B80001224F208DF80740FFF72EF901220DF17C
:1020C800070154208DF80740FFF726F902B070BDCC
:1020D800F0B59FB0802401220DF1670112208DF820
:1020E8006740FFF719F9C820FEF77AFB002501229F
:1020F8000DF16701112004268DF86750FFF70CF9E0
:1021080001220DF167010C208DF86760FFF704F9D3
:1021180001220DF1670112201A278DF86760FFF779
:10212800FBF80DF1670101223E208DF86770FFF77B
:10213800F3F816230DEB0601012217208DF8043061
:10214800FFF7EAF8012202A918208DF80860FFF7C6
:10215800E3F8012203A932208DF80C40FFF7DCF8E0
:102168000223012204A919208DF81030FFF7D4F8B2
:1021780038467B23012205A98DF81430FFF7CCF8E7
:102188000A23012206A903208DF818302227FFF719
:10219800C3F8012207A972208DF81C70FFF7BCF85C
:1021A800F223012208A973208DF82030FFF7B4F834
:1021B800012209A915208DF82450FFF7ADF8012256
:1021C8000AA98C208DF82850FFF7A6F8D023012201
:1021D8000BA940208DF82C30FFF79EF801220CA99E
:1021E8003A208DF83060FFF797F801220DA93D20BD
:1021F8008DF83440FFF790F801220EA94F208DF892
:102208003840FFF789F801220FA950208DF83C408B
:10221800FFF782F8012210A951208DF84050FFF7EE
:102228007BF8012211A952208DF84470FFF774F849
:102238005E23012212A953208DF84830FFF76CF86D
:10224800012213A954208DF84C40FFF765F89E230E
:10225800012214A958208DF85030FFF75DF81F4B64
:102268000FCB1AAC84E80F001EAEC4F17B05281909
:1022780001222146C0B21444FFF74EF8B442F6D109
:1022880015A93823012241208DF85430FFF744F86E
:1022980016A9312301221E208DF85830FFF73CF88B
:1022A80017A92023012256208DF85C30FFF734F857
:1022B80018A9042301227B208DF86030FFF72CF841
:1022C8004023012219A94F208DF86430FFF724F824
:1022D8006420FEF785FA1FB0F0BD00BFD86E000875
:1022E80010B5594C5948236B43F01F032363036807
:1022F80023F4701323F44C530360036843F420134E
:1023080043F408530360036A23F0706323F47023D3
:102318000362036A43F0506343F450230362436A41
:1023280023F47F634362436A43F45D634362036853
:1023380023F440530360036843F400530360036AC3
:1023480023F070630362036A43F05063036282B050
:102358000168026A436A006900903D48FEF7E0FBA5
:102368003C4A3D4B10683D4920F4404010601068DD
:1023780040F400401060106A20F070401062106A4B
:1023880040F050401062186820F4702018601868F7
:1023980040F420201860586A20F0FF005862586AFC
:1023A80040F0DD00586208682D4B20F0C00008603E
:1023B800086840F080000860086A20F470400862ED
:1023C800086A40F450400862D2F8001C21F47C519D
:1023D800C2F8001CD2F8001C41F42851C2F8001CB5
:1023E800D2F8201C21F07F6121F47021C2F8201C52
:1023F800D2F8201C41F05D6141F45021C2F8201C44
:10240800626B42F001026263626942F0010262613A
:102418006269002022F00102626118601A6842F0C5
:1024280080021A601A6822F040021A601A6822F0C4
:1024380020021A601A6842F002021A601A6842F40E
:1024480080421A6002B010BD00380240000002400D
:10245800EC6E00080004024000080240000C024034
:102468000000055010B5594C5948236B43F01F0321
:102478002363036823F4701323F44C530360036845
:1024880043F4201343F408530360036A23F0706392
:1024980023F470230362036A43F0506343F4502328
:1024A8000362436A23F47F634362436A43F45D63D0
:1024B8004362036823F440530360036843F4005302
:1024C8000360036A23F070630362036A43F0506396
:1024D800036282B00168026A436A006900903D485D
:1024E800FEF71EFB3C4A3D4B10683D4920F4404036
:1024F8001060106840F400401060106A20F07040CE
:102508001062106A40F050401062186820F4702081
:102518001860186840F420201860586A20F0FF00FE
:102528005862586A40F0DD00586208682D4B20F068
:10253800C0000860086840F080000860086A20F45D
:1025480070400862086A40F450400862D2F8001CE3
:1025580021F47C51C2F8001CD2F8001C41F4285127
:10256800C2F8001CD2F8201C21F07F6121F47021F0
:10257800C2F8201CD2F8201C41F05D6141F45021C2
:10258800C2F8201C626B42F001026263626942F089
:10259800010262616269002022F001026261186032
:1025A8001A6842F080021A601A6822F040021A6023
:1025B8001A6842F020021A601A6822F002021A60B1
:1025C8001A6842F480421A6002B010BD0038024016
:1025D80000000240EC6E00080004024000080240BF
:1025E800000C0240000005504B4A4C4B116B4C4804
:1025F80041F01F0110B41163196821F4701121F41E
:102608004C511960196841F4201141F408511960BE
:10261800596A21F47F615962596A41F45D615962CE
:10262800196A21F0706121F470211962196A41F068
:10263800506141F45021196203683A4923F4404338
:102648000360036843F400430360036A23F07043A4
:102658000362036A43F0504303620868324B20F474
:1026680070200860086840F420200860486A20F05C
:10267800FF004862486A40F0DD004862186820F0B0
:10268800C0001860186840F080001860186A20F4CC
:1026980070401862186A40F450401862D1F8000877
:1026A800224B20F47C50C1F80008D1F8000840F40F
:1026B8002850C1F80008D1F8200820F07F6020F4E5
:1026C8007020C1F82008D1F8200840F05D6040F47F
:1026D8005020C1F82008516B41F001015163516944
:1026E80041F0010151615169002421F0010151615A
:1026F8001C601A685DF8044B42F080021A601A6880
:1027080042F040021A601A6842F020021A601A6801
:1027180042F002021A60704700380240000002408E
:102728000004024000080240000C0240000005506E
:102738002DE9F0416048FEF7F3F960490B691D0681
:102748000AD45F4B01E0013B06D300BF0A691406B7
:10275800F9D5002B00F08380584E5A48FEF7E0F96F
:10276800316911F0800100F09A80574B574ADFF821
:102778009081574FDFF88CE1DFF880C1002401E039
:10278800013B04D310694006FAD5002B6CD01069C0
:10279800D8F810103D69DEF81050890901F00C01D5
:1027A800C0F34120084305F0600108432CF81400E9
:1027B8006546013402E0002B4BD0034611694906F7
:1027C80003F1FF30F7D43169090605D5591E2BB13D
:1027D8000B46B4F5964FD5D1002B45D03D48214640
:1027E800FEF79EF93C48FEF79BF93B48FEF798F93F
:1027F8003A483B4FFEF794F9002601E0A64246D03E
:1028080035F81610384689B20136FEF789F90A2ECE
:10281800F4D13448FEF784F93348FEF781F90A2CDD
:10282800264638BF0A260A3EA64209D22C4F35F85A
:102838001610384689B20136FEF772F9A642F6D16B
:102848002848FEF76DF921462848BDE8F041FEF713
:1028580067B933691B06C1D56FF00103B9E7BDE855
:10286800F0412348FEF75CB92248FEF759F91948A8
:102878002146FEF755F91848FEF752F91648FEF7B3
:102888004FF9B4B9BDE8F0411B48FEF749B91548FE
:10289800FEF746F91448FEF743F90026C6E70D4847
:1028A800FEF73EF90C48FEF73BF90B48FEF738F9FE
:1028B800E8E7124D9CE700BF206F000800040240C3
:1028C8003F420F00686F00087F96980000000240A2
:1028D800000C0240906F0008A86F0008EC6F000819
:1028E80000700008046C0008087000081C700008DC
:1028F800486F0008CC6F00083C70000818000020E2
:1029080000080240001002402DE9F0411D4E1E480B
:102918001F237361336843F001033360FEF700F946
:102928003369DA072CD4194C194D1A4FDFF8748023
:1029380006E02B6000BF3369DB0711D4013C10D3DC
:102948002B68BB4203F10103F3D900232B603169E3
:1029580032684046FEF7E4F800BF3369DB07EDD57F
:102968002CB121460C48BDE8F041FEF7D9B80B4818
:10297800FEF7D6F821460848BDE8F041FEF7D0B882
:10298800074CEEE700000550587000083F420F0062
:102998007C9A0020A0860100A470000888700008B6
:1029A80040420F007070000808B52F4B1B6959068C
:1029B8004CBF2E482E48FEF7B3F82B4B1B69DA069E
:1029C8004CBF2C482C48FEF7ABF82C4B1B691B0658
:1029D8004CBF2B482B48FEF7A3F8234B1B699805DF
:1029E8004CBF29482948FEF79BF81F4B1B6959051E
:1029F8004CBF27482748FEF793F8274B1B69DA0591
:102A08004CBF26482648FEF78BF8234B1B699B05CD
:102A18004CBF24482448FEF783F8244B1B69180749
:102A28004CBF23482348FEF77BF8234B1B69D90684
:102A38004CBF22482248FEF773F81F4B1B699A06C1
:102A48004CBF20482048FEF76BF81B4B1B695B0600
:102A580004D5BDE808401D48FEF762B8BDE8084047
:102A68001B48FEF75DB800BF00000240CC700008AC
:102A7800D8700008E4700008F070000800040240F4
:102A8800FC70000808710008147100082071000823
:102A98002871000834710008000802403C710008E1
:102AA80048710008507100085C710008000C024071
:102AB8006471000870710008001002407871000805
:102AC800847100088C71000898710008A0710008D2
:102AD800AC7100082DE9F04F8BB08246FDF7B6FFC8
:102AE800DFF89C90DFF89C80099038E0DFF898C008
:102AF800204B29692A691B692C692D69D9F810604E
:102B0800D9F81070D8F81000DCF810E0D8F810B038
:102B1800D8F810C0C0F30010CEF3C00ECCF3801C60
:102B2800C7F34027C6F30026C5F38025C4F3402425
:102B3800CBF3401B0490CDE905EB0F48CDF81CC042
:102B4800CDE90267CDE90045C3F3C013C2F3001213
:102B5800C1F38011FDF7E4FF0120FDF741FEFDF709
:102B680075FF099B054DC01A5045BFD30BB0BDE892
:102B7800F08F00BF00040240B4710008000002405A
:102B88000008024000100240000C02404B0850F8B8
:102B98002300CB074CBF000C80B270474B4A4C4B0C
:102BA800116B4C4841F01F011163196821F4701131
:102BB80021F44C511960196841F4201141F408516D
:102BC8001960596A21F47F615962596A41F45D615B
:102BD8005962196A21F0706121F470211962196A29
:102BE80041F0506141F45021196203683A4923F4D5
:102BF80040430360036843F400430360036A23F01F
:102C080070430362036A43F0504303620868334B1E
:102C180020F470200860086840F420200860486AA2
:102C280020F0FF004862486A40F0DD0048621868FA
:102C380020F0C0001860186840F080001860186A1A
:102C480020F470401862186A40F450401862D1F8B5
:102C58000008234B20F47C50C1F80008D1F8000884
:102C680040F42850C1F80008D1F8200820F07F600F
:102C780020F47020C1F82008D1F8200840F05D60E9
:102C880040F45020C1F82008516B41F00101516314
:102C9800516941F001015161516921F0010151610E
:102CA8001A6842F080021A601A6822F020021A603C
:102CB8001A6842F040021A601A6842F002021A606A
:102CC8001A6842F480421A60704700BF0038024018
:102CD800000002400004024000080240000C0240CC
:102CE80000000550144B154A4FF0FF315961936AA3
:102CF80023F001039362936AD907FCD44FF4165367
:102D0800D362936A0C480D4943F001039362026849
:102D18000B4B42F00102026001E0013B09D00A6856
:102D28001205FAD58B68074843F400638B60FDF7FA
:102D3800F7BE0548FDF7F4BE0000055000640240E8
:102D4800404B4C00247200080C72000870B50C4807
:102D58000C4C0D4D0D4EFDF7E3FE01E0013C0AD091
:102D68006B68DB07FAD5A96A0029F7D03046FDF76A
:102D7800D7FE013CF4D1BDE870400548FDF7D0BE50
:102D88005072000820A10700000005507C7200085E
:102D98009872000808B51E48FDF7C2FE1D48FDF7E9
:102DA800BFFE1D4A13691806FCD51C48FDF7B8FE7E
:102DB8001B4A936A23F001039362936AD907FCD4F0
:102DC8004FF41653D362936A164843F00103936293
:102DD800FDF7A6FE144A1548136843F00103136073
:102DE800FDF79EFE124B0E4901E0013B0BD00A682D
:102DF8001205FAD58B680F4843F400638B60BDE871
:102E08000840FDF78DBEBDE808400B48FDF788BEB9
:102E1800AC720008E072000800040240F872000872
:102E28000064024010730008000005503473000865
:102E3800404B4C00247200080C7200080F4B002213
:102E48001A605A60DA6019680D4A41F4804141F00D
:102E580002011960936A23F001039362936ADB0706
:102E6800FCD493684FF4165143F400639360D16225
:102E7800936A43F001039362FEF7CEBA000005504F
:102E88000064024030B52648264D0C4683B0FDF755
:102E980047FE64084FF47463AB60EC62AB6A224A85
:102EA800224C43F00103AB62136843F00303136041
:102EB80003E0013C16D3002C2ED02B681B05F8D557
:102EC80084B91B48FDF72CFEA96A1A48EA6AFDF77F
:102ED80027FE154B184819685A6803B0BDE83040FA
:102EE800FDF71EBE0F4B15484FF400629A60D96A71
:102EF800FDF716FE0C4B1248596801F001030093C8
:102F0800C1F38002C1F34003FDF70AFE0D4803B088
:102F1800BDE83040FDF704BE0B48FDF701FECCE7E5
:102F28005073000800640240000005508096980025
:102F380094730008B4730008D0730008EC73000899
:102F4800047400083C74000870730008024A13688F
:102F580043F00103136070470000055070B537480F
:102F680084B00C46FDF7DCFD354836494FF47463F0
:102F780064088360C462836A43F0010383620A6859
:102F8800314B42F003020A6001E0013B04D30268BE
:102F98001205FAD5002B4AD0294E2A4C2B484FF45B
:102FA8000063B360236823F001032360F16AFDF72F
:102FB800B7FD6168A5682648246901F001030093FC
:102FC800C1F38002C1F34003FDF7AAFDC5F3001267
:102FD800C5F3C003CDE90132C5F38002C5F3400350
:102FE8000092294605F001021A48FDF799FDC4F33D
:102FF8000012C4F3C003C4F38000CDE901322146B6
:10300800C4F3400304F0010200901348FDF788FD63
:10301800B16A1248F26AFDF783FD31681048FDF77E
:103028007FFD104804B0BDE87040FDF779BD0E483B
:1030380004B0BDE87040FDF773BD00BF50730008D1
:10304800006402400000055080969800EC73000868
:103058005874000888740008C874000808750008C7
:10306800307500083C7400089473000830B42A4C8A
:103078002A4B226B42F48002226300229A629A6AE7
:10308800D207FCD44FF474629A609A6A244C42F0D6
:1030980000729A629D6A25F480259D624A08996AA1
:1030A80041F440319962996A41F400519962996AF0
:1030B80041F480519962996A41F480619962996AF0
:1030C80021F400719962996A21F480719962996A70
:1030D80021F0C0019962996A21F020019962996AE8
:1030E80041F010019962996A41F008019962996A60
:1030F80041F004019962996A41F002019962DA6229
:103108001C635863DA6B22F00402DA639A6A42F0AD
:10311800010230BC9A6270470038024000640240E5
:103128002800055010B42E4C2E4B226B42F480021E
:10313800226300229A629A6A12F00102FBD14FF4CC
:1031480074649C609C6A44F000749C629C6A24F4D9
:1031580080249C629C6A44F440349C629C6A44F4D7
:1031680000549C629C6A44F480549C629C6A44F4B7
:1031780080649C629C6A24F400749C629C6A44F497
:1031880080749C629C6A24F0C0049C629C6A24F04F
:1031980020049C629C6A44F010049C629C6A44F07F
:1031A80008049C629C6A44F004049C629C6A44F093
:1031B80002049C6249080C4CD9621C635863D96BA1
:1031C8000A484FF0007421F00401D963446080F884
:1031D80039239A6A5DF8044B42F001029A627047FB
:1031E80000380240006402402800055000E100E079
:1031F80030B42E4C236B43F4800323632C4B002400
:103208009C629C6A14F00104FBD14FF474659D60C4
:103218009D6A45F000759D629D6A45F480259D6212
:103228009D6A45F440359D629D6A45F400559D624E
:103238009D6A45F480559D629D6A45F480659D624E
:103248009D6A25F400759D629D6A45F480759D62AE
:103258009D6A25F0C0059D629D6A25F020059D6246
:103268009D6A45F010059D629D6A45F008059D62BE
:103278009D6A45F004059D629D6A520845F0020565
:103288009D62DA620B4A1A6358639963DA6B0A49DA
:1032980022F004024FF00070DA63486081F8394385
:1032A8009A6A42F0010230BC9A62704700380240C4
:1032B800006402402800055000E100E02DE9F04FCD
:1032C8009FB08046FDF7C2FB0026CDF84480CDE9CB
:1032D8000E66CDE90C66CDE90A66CDE90866CDE94A
:1032E8000666CDE90466CDE90266CDE91A66CDE940
:1032F8001866CDE91666CDE913660196B246B3465F
:10330800374635463446129610961590B146B04663
:1033180062E01296012114F01006179177D101216D
:1033280013F080031396199177D001231A931493FD
:10333800069BC2F3C00943EA09030693019BC4F341
:10334800402633430193029BC4F380242343029312
:10335800039BC5F300273B430393049BC5F3402518
:103368002B430493059BC0F3001B43EA0B0305930F
:10337800079BC0F3401843EA08030793089BC0F370
:10338800801A43EA0A030893099B86F00100034365
:1033980009930A9B84F0010003430A930B9B87F06F
:1033A800010003430B930C9B85F0010003430C932E
:1033B8000D9B8BF0010003430D930E9B89F00100D8
:1033C80003430E930F9B88F0010003430F93109B58
:1033D8008AF0010003431093FDF738FB159BC01AD0
:1033E800119B984224D20F4B0F491C690F4A03F5D1
:1033F800806314F040061B690D691269D1F8100842
:1034080087D0012114F010061691129187D001215E
:1034180013F080031891139187D1149301231B9300
:1034280086E700BF0000024000080240000C02408E
:1034380015961D975F46C346DDE910689148CDF89B
:1034480070904146FDF76CFB8F4B129A8F4990485C
:10345800DFF8CC92DFF8CC82002A18BF1946FDF7B6
:103468005FFB169A8B48002A0CBF49464146FDF778
:1034780057FB179A8848002A0CBF49464146FDF772
:103488004FFB814B139A81498448002A18BF19467B
:10349800FDF746FB189A8248002A0CBF4946414668
:1034A800FDF73EFB199A7F48002A0CBF4946414662
:1034B800FDF736FB744B149A74497B48002A18BFF1
:1034C8001946FDF72DFB1A9A7848002A0CBF494681
:1034D8004146FDF725FB1B9A7548002A0CBF494653
:1034E8004146FDF71DFB684B159A68497148002A4B
:1034F80018BF1946FDF714FB019A6F48002A0CBF44
:1035080049464146FDF70CFB099A6C48002A0CBF56
:1035180049464146FDF704FB5B4B5C496848002C73
:1035280018BF1946FDF7FCFA029A6648564C002A5D
:103538000CBF49464146FDF7F3FA0A9A6248002A49
:103548000CBF49464146FDF7EBFA1D9B4F495F48C2
:10355800002B18BF2146FDF7E3FA039B5C48002BBC
:103568000CBF49464146FDF7DBFA0B9B5948002B37
:103578000CBF49464146FDF7D3FA44495648002D49
:1035880018BF2146FDF7CCFA049B5448002B0CBF0A
:1035980049464146FDF7C4FA0C9B5148002B0CBF25
:1035A80049464146FDF7BCFA38494E48002F18BF36
:1035B8002146FDF7B5FA059B4B48002B0CBF494641
:1035C8004146FDF7ADFA0D9B4848002B0CBF494614
:1035D8004146FDF7A5FA1C9A2C494548002A18BF10
:1035E8002146FDF79DFA069B4248002B0CBF494631
:1035F8004146FDF795FA0E9B3F48002B0CBF494604
:103608004146FDF78DFA21493C48BBF1000F18BF30
:103618002146FDF785FA079B3948002B0CBF494620
:103628004146FDF77DFA0F9B3648002B0CBF4946F3
:103638004146FDF775FA15493348BAF1000F18BF2E
:103648002146FDF76DFA089B3048002B0CBF494610
:103658004146FDF765FA002E0CBF494641462C4805
:10366800FDF75EFA2B48FDF75BFA2B4B2B481968E0
:103678005A6A1B69FDF754FA26481FB0BDE8F04F97
:10368800FDF74EBA58750008447500084C750008D7
:10369800807500088C750008A4750008BC750008C2
:1036A800C8750008E0750008F87500080476000879
:1036B8001C76000834760008407600085476000826
:1036C8006876000874760008887600089C760008FA
:1036D800A8760008BC760008D0760008DC760008DA
:1036E800F0760008047700081077000824770008AF
:1036F8003877000844770008587700086C77000886
:10370800787700088C770008A0770008AC77000865
:10371800C0770008D477000800000240FC77000852
:1037280054750008507500082DE9F04F8BB082469B
:103738000991FDF78BF9DFF8A090DFF8A0800890D9
:1037480036E039693A69D9F81030D9F81040D8F814
:1037580010503669D8F81000D8F810C0D7F810E023
:103768003F69C7F3001B184F3F69C0F34010CCF303
:10377800801CCEF3801EC6F3C006C5F30015C4F343
:103788004024C7F3C0170390CDE905EB0F48CDF8E7
:1037980010C0CDE90156C3F30023C2F38022C1F360
:1037A800402107970094FDF7BBF90998FDF718F831
:1037B800FDF74CF9089B064F064EC01A5045C0D37A
:1037C8000BB0BDE8F08F00BF000402402878000865
:1037D80000000240000C02400008024000100240B5
:1037E800374B70B51C6B14F4800406460D4663D045
:1037F8000124344B344A196B914204D0196B334875
:10380800FDF78EF900242F4B5A6B964204D0596B62
:103818002F48FDF785F900242A4BDA6AAA4204D01A
:10382800D96A2C48FDF77CF90024264B9D6AC5F31C
:103838004263012B03D02848FDF772F9002415F4E0
:10384800806634D005F0C003402B03D02348FDF731
:1038580067F9002405F4C053B3F5006F03D020487E
:10386800FDF75EF9002405F4C043B3F5005F12D1FB
:1038780015F4403F07D0EB0715D54CB11948FDF7B3
:103888004FF9204670BD1848FDF74AF9E9070AD5EF
:103898000024204670BD1548FDF742F915F4403F55
:1038A800F1D0EA07F4D41248FDF73AF9F0E71148E5
:1038B800FDF736F93446C5E70F48FDF731F998E7C3
:1038C8000038024000640240280005508C78000847
:1038D800AC780008CC780008EC7800082C7900084F
:1038E80064790008F0790008A47900088479000850
:1038F800CC790008107900086C780008F0B50C4CF9
:103908000C4F83B0A61D14F8015B012201A92846BB
:10391800FDF728FD9DF8042038462946FDF700F9F3
:103928000220FCF75DFFB442EDD103B0F0BD00BF4B
:1039380090680008107A00082DE9F043642083B0ED
:10394800FCF74EFFDFF88C800027BBB208EB430280
:1039580018F813405678FF2C07D1FF2E29D11A48A2
:10396800FDF7DEF803B0BDE8F083122C0ABF4FF074
:103978000009B1464E4603252046012201A9FDF75C
:10398800F1FC9DF80430B3424FF0010015D0FCF76C
:1039980027FF013DF0D19DF8042096420DD00B4839
:1039A8004B462146FDF7BCF80220FCF719FF01370A
:1039B800CBE76420FCF714FFF9E705484A4621469F
:1039C800FDF7AEF8F0E700BF6C7A0008407A00080F
:1039D800247A0008546800082DE9F04F444D454802
:1039E8001F238BB06B61FDF79BF829684248FDF7F0
:1039F80097F8696A4148FDF793F8296A4048FDF746
:103A08008FF869683F48FDF78BF829693E48FDF74C
:103A180087F82B683D4843F001032B602968FDF7C0
:103A28007FF82B6913F0010351D1394C394E05E069
:103A380000BF2A69D20749D4013C48D3364A01332A
:103A48009342F5D1296935482A68FDF769F8DFF806
:103A5800E4E0DEF81010DEF8102033693769D6F894
:103A680010C03069C0F3C00009902D48D0F810800C
:103A7800D0F81090DEF810A0D6F810B0D6F810E004
:103A880009980290CCF3800CCEF3401EC7F3400790
:103A9800C8F38018C9F3C019CAF3801ACBF3001B06
:103AA800CDE905ABCDE90389CDE9007C1D48CDF80A
:103AB8001CE003F00103C2F38022C1F34021FDF7AB
:103AC8002FF8002300BF2A69D207B5D55CB1084B8F
:103AD800154819691A68FDF723F814480BB0BDE8B2
:103AE800F04FFDF71DB81248FDF71AF8EFE700BFD1
:103AF800000005508C7A0008A87A0008B87A0008F7
:103B0800C87A0008DC7A0008EC7A0008FC7A000819
:103B18003F420F0000040240A18601001C7B000800
:103B280000080240387B0008847B0008B07B00084E
:103B380088700008000002402DE9F8430E4609B3DA
:103B48000027DFF85490DFF85480851E3C4606E0D5
:103B58000134FCF7E5FFA64207F101070BD035F861
:103B6800022F21464046002AF2D048460134FCF78D
:103B7800D7FFA642F3D1324639460648BDE8F84396
:103B8800FCF7CEBF0F46324639460248BDE8F84337
:103B9800FCF7C6BFF87B0008E47B0008C87B000878
:103BA80000B5084B0848596883B0C1F380030093F7
:103BB800C1F3400201F00103FCF7B2FF03B05DF866
:103BC80004FB00BF000005502C7C00082DE9F047DD
:103BD8001E4B1F4DDFF884A0DFF88490DFF8848047
:103BE80093E807008AB004AC03C424F8022B110C34
:103BF800217095E8070007AB03C323F8022B110CCB
:103C080014481970FCF78CFF04AC07AE0DF11B07C4
:103C180014F8015B01220DF10F012846FDF7A2FB04
:103C28009DF80F1016F8013B994214BF50464846BC
:103C38000A46009029464046FCF772FFBC42E7D18D
:103C48000548FCF76DFF0AB0BDE8F087D47C000892
:103C5800986800086C7C0008BC7C0008607C000840
:103C6800587C00088C7C00082DE9F04F89B0009042
:103C7800FCF7ECFE0023CDE90103CDE903339946B7
:103C880005931E461D4698461F469A46FCF7DEFEDB
:103C9800019BC01A009B98425DD2444B444A196963
:103CA80003F580631B69146903F0800C414B1B69A1
:103CB8004FEAD30E404B186900224B0A63F3070200
:103CC8004FEA101B00236BF307036EF30F234FEA31
:103CD800912E6EF30F2201F0400EBEF1000F01F09D
:103CE80010010CBF4FF00108012700294FEA1421E9
:103CF80061F317424FEA542464F31F6202F0013261
:103D080006924FEA501262F317434FEA901060F39D
:103D18001F6303F001330CBF4FF001090126BCF10A
:103D2800000F079314BF4FF0010A01250DF1170387
:103D380002A904AA0DF11F0C012406E00C709C4591
:103D480001F1010102F10102A0D013F8010F0028CE
:103D5800F4D11470F3E719461848FCF7E1FE394628
:103D68001748184F4246FCF7DBFE314616484A46CC
:103D7800FCF7D6FE2A4615485146FCF7D1FE0DF150
:103D880007060DF10F050024214615F8013F16F826
:103D9800012F38460134FCF7C3FE082CF4D10C4837
:103DA80009B0BDE8F04FFCF7BBBE00BF0000024001
:103DB80000080240000C024000100240E07C0008AD
:103DC800087D0008687D0008287D0008487D0008F7
:103DD800887D000878B1F8B5074F084E05460024DD
:103DE80037F81420214692B230460134FCF798FE89
:103DF800A542F5D1F8BD704718000020B07D000835
:103E080070B52048204D214E82B0FCF789FE20482D
:103E1800FCF786FE002435F81420214692B230467D
:103E28000134FCF77DFE0A2CF5D11A48174EFCF731
:103E380077FE42F2765435F81420214692B2304685
:103E48000134FCF76DFEB4F5165FF4D11248134C3B
:103E580001690269036900692469C0F30010C4F3A9
:103E6800C0140090C3F380130D480194C2F380225C
:103E7800C1F34021FCF754FE0A4802B0BDE8704087
:103E8800FCF74EBEC47D000818000020B07D000875
:103E9800E07D0008F47D00080000024000040240B4
:103EA800087E00084C6E0008F8B500240F4D104F2E
:103EB800264603E00134B4F5165F11D035F8143006
:103EC8009BB2002BF6D035F81420214692B2384622
:103ED8000134FCF725FEB4F5165F06F10106EDD1B5
:103EE80031460448BDE8F840FCF71ABE1800002027
:103EF800387E0008547E0008174870B5FCF710FE9D
:103F08001649174B0A681F2022F001020A6048610F
:103F18000A6842F001020A6001E0013B17D08A6892
:103F2800D207FAD50D4D0F4E002405E0AA6A0134D8
:103F3800FCF7F6FD322C04D06B685B07214630464F
:103F4800F4D421460848BDE87040FCF7E9BDBDE857
:103F580070400648FCF7E4BD747E00080000055078
:103F6800404B4C00BC7E0008D47E0008A07E0008B0
:103F78002DE9F84F4348444CFCF7D2FD4FF00208B6
:103F88004FF00009414E0027736943F00103736144
:103F9800736923F001037361C4F80090236843F444
:103FA80080432360236843F002032360236843F0BF
:103FB80040032360B8F1020F236842D043F0800326
:103FC80023602368002F56D043F020033049314A3C
:103FD80023603148FCF7A4FD2268304B42F001020F
:103FE800226001E0013B28D02269D207FAD5636933
:103FF800DFF8C4A0002543F001036361AB466368A2
:104008005B07FCD5A26A5AB90135142DF7D1BBF16B
:10401800000F21D02248FCF783FD47B90127B3E7F9
:10402800294650460BF1010BFCF77AFDECE7B8F195
:10403800010F15D04FF00108A4E71A48FCF770FDEE
:10404800EBE723F080032360236877B143F0200374
:104058001549104A2360BCE71448FCF761FDDCE70A
:10406800BDE8F84F1248FCF75BBD23F020030E496A
:10407800104A2360ADE723F0200305490D4A236069
:10408800A7E700BF047F0008000005500038024081
:1040980044750008F47E00082C7F000840420F0099
:1040A800647F0008CC7F00084C750008887F0008F2
:1040B800B47F0008FC7E0008507F000810B5174C3C
:1040C8001748FCF72DFD23681648002223F4804387
:1040D80023602260236843F002032360236843F4CB
:1040E80080432360236843F001032360FCF718FD35
:1040F8000D4B013B0CD062685207FAD5A16A0B48F8
:1041080089B2FCF70DFDBDE810400948FCF708BD71
:10411800BDE810400748FCF703BD00BF000005508C
:10412800E87F00083473000841420F00148000083B
:1041380028800008508000082DE9F0419EB01949F8
:10414800194FDFF86C80702202A802F00FF902AC58
:104158001EAE002507E0FCF7E3FC08340A20FCF754
:104168003FFBB44217D020788DF807500DF10701B6
:104178000122FDF7F7F862789DF8073061689A42E6
:104188003846E8D14046FCF7CBFC08340A20FCF757
:1041980027FBB442E7D10548FCF7C2FC1EB0BDE8D6
:1041A800F08100BFA46800089C800008C88000084F
:1041B800888000082DE9F04F4848494CDFF85C91A9
:1041C800484D494F89B04FF00008FCF7A9FC474813
:1041D800FCF7A6FCCDE90588CDE90288CDE9008881
:1041E8004FF47A76CDF81080C246C346CDF81C80CD
:1041F8002269910502D5079B01330793226952056D
:10420800D9F8102048BF0BF1010BD305D9F81020BD
:1042180048BF0AF1010A900502D5009B01330093BB
:104228002A69D10602D5019B013301933A695206E6
:1042380002D5029B013302932A69930602D5039B98
:10424800013303932A69500602D5049B0133049372
:104258002269D10602D5059B013305933A691206F6
:1042680002D5069B0133069322690120530648BFF5
:1042780008F10108FCF7B4FA013EB9D107991C48C6
:10428800FCF74EFC59461B48FCF74AFC51461A48B5
:10429800FCF746FC00991948FCF742FC01991848BC
:1042A800FCF73EFC02991748FCF73AFC03991648BC
:1042B800FCF736FC04991548FCF732FC05991448BC
:1042C800FCF72EFC06991348FCF72AFC12484146D5
:1042D80009B0BDE8F04FFCF723BC00BFEC80000834
:1042E8000000024000100240000402401C81000847
:1042F800548100087081000890810008AC81000892
:10430800C8810008E4810008008200081C820008B7
:1043180038820008588200087882000800080240A5
:104328002DE9F04F3148DFF8E08087B0FCF7F8FB63
:104338002F48FCF7F5FB2F4B1F69D8F81060D8F809
:1043480010400023C7F3C017C6F30016C4F3801447
:1043580002934FF4FA6501930393264B1B69D8F82F
:10436800101003F08000BB46C3F3C0172346D8F8EB
:104378001040324604F0400901F0100AC1F300165B
:10438800C4F3801410B1BBF1000F20D00120BAF1A2
:10439800000F03D012B9019A02440192B9F1000F3B
:1043A80003D013B9029B01330293FCF719FA013DBC
:1043B800D3D11148FCF7B4FB03991048FCF7B0FBC4
:1043C80002990F4807B0BDE8F04FFCF7A9BB019967
:1043D8000C48CDE90423FCF7A3FB039BCDF804B0FC
:1043E80001330393DDE90423D0E700BF9882000876
:1043F800B8820008000402401483000828830008DB
:1044080044830008E8820008000002402DE9F04FCC
:104418002F48DFF8D8802F4D85B0FCF781FB2E4858
:10442800FCF77EFB2D4B1F69D8F81060D8F81040B8
:104438000023C7F3C017C6F30016C4F38014019312
:1044480002930093254B1A69D8F81030B34603F04D
:10445800100AC3F300162346D8F8104002F0800172
:10446800384604F04009C2F3C017C4F3801401B100
:10447800A8B1BAF1000F02D0BBF1000F1BD0B9F1FF
:10448800000F03D013B9009B01330093013DD9D12C
:104498001348029905B0BDE8F04FFCF741BB039300
:1044A800029B019A0190013319460E480293FCF7CA
:1044B80037FB039BDDE70393019B009A0A4801330E
:1044C80019460193FCF72CFB039BCDF800B0D6E707
:1044D8005C83000880841E00B88200080004024043
:1044E800C88300087C830008AC83000800000240F1
:1044F80070B55C485C4C5D4E5D4DFCF711FB5D484A
:10450800FCF70EFBA26A5C4B5C4812F0010F18BF67
:104518001846FCF705FB5A48FCF702FBA26A594B00
:10452800594812F0C00F18BF1846FCF7F9FA574857
:10453800FCF7F6FAA36A13F4806F0CBF30462846DE
:10454800FCF7EEFA5248FCF7EBFAA36A13F4007F83
:104558000CBF30462846FCF7E3FA4E48FCF7E0FA71
:10456800A36AC3F34133012B63D0022B75D0002B10
:104578006FD04948FCF7D4FA4848FCF7D1FA3A4BCF
:104588009B6AC3F3C123012B5FD0022B59D0002BA8
:1045980053D04148FCF7C4FA334C4148E16A414ED4
:1045A800414DFCF7BDFA616B4048FCF7B9FA216B45
:1045B8003F48FCF7B5FA3F48FCF7B2FAA36A13F094
:1045C800100F0CBF30462846FCF7AAFA3A48FCF709
:1045D800A7FAA36A13F0080F0CBF30462846FCF769
:1045E8009FFA3648FCF79CFAA36A13F0040F0CBF35
:1045F80030462846FCF794FA3148FCF791FAA26A4B
:104608001D4B1E4812F0020F18BF1846FCF788FA17
:104618002C48FCF785FAE26B144B154812F0040F8E
:1046280018BF1846FCF77CFABDE870402648FCF72E
:1046380077BA2648FCF774FA9EE72548FCF770FA23
:10464800AAE72448FCF76CFAA6E72048FCF768FAC2
:10465800A2E71F48FCF764FA8EE71E48FCF760FAE9
:104668008AE700BF5C8400080064024048840008B0
:104678003C84000880840008EC830008F08300086C
:104688008C840008F88300082484000898840008B3
:10469800B4840008D4840008F48400080085000865
:1046A80008850008588400085484000828850008F4
:1046B800488500086C850008808500088885000802
:1046C800908500089C850008B4850008E4840008EB
:1046D800DC840008EC8400082DE9F0419EB01949FB
:1046E800194FDFF86C80702202A801F03FFE02AC7F
:1046F8001EAE002507E0FCF713FA08340A20FCF781
:104708006FF8B44217D020788DF807500DF10701E3
:104718000122FCF727FE62789DF8073061689A420B
:104728003846E8D14046FCF7FBF908340A20FCF784
:1047380057F8B442E7D10548FCF7F2F91EB0BDE8D6
:10474800F08100BF14690008F88500082886000871
:10475800E48500082DE9F04F8448DFF84892A3B0BB
:104768004FF0000AFCF7DCF98148FCF7D9F9CDE9EC
:1047780003AACDE920AACDE91EAACDE91CAACDE954
:104788001AAACDE918AA4FF47A730193CDF808A0B4
:104798005446554656465746D046D346CDF85CA0B3
:1047A800CDF814A0059B1093029B0F93039B0E93C7
:1047B800049BCDE915B8CDE90CA3DFF8EC816D4B6E
:1047C800D8F810E0D8F810B0CDE91367A3F58063E6
:1047D800D3F81074D3F81064CDE91145D9F8105006
:1047E8001C69D9F81000D9F81010D8F810201B69E6
:1047F80004930EF40073D8F810A0069306F400731F
:10480800079305F01003089304F04003099300F0A0
:104818002003C0F340100A930590049B01F0400068
:10482800C1F38011029102F01001C2F30012039249
:1048380003F08002C3F3C01304930AF040030B9300
:10484800069BCEF3402807F4807C0BF4806EC7F3F8
:104858000027CBF3802BC6F34026C5F30015C4F31D
:104868008014CAF3801A23B1169B13B9179B01331E
:104878001793BEF1000F04D0159B13B9189B013391
:104888001893BCF1000F04D0149B13B9199B013382
:104898001993079B23B1139B13B91A9B01331A93DE
:1048A800089B23B1129B13B91B9B01331B93099BD4
:1048B80023B1119B13B91C9B01331C930A9B23B191
:1048C800109B13B91D9B01331D9320B10F9B13B986
:1048D8001E9B01331E9321B10E9B13B91F9B0133FD
:1048E8001F9322B10D9B13B9209B013320930B9B7F
:1048F80023B10C9B13B9219B013321930120FBF7B2
:104908006FFF019B013B01937FF44CAF17991A4845
:10491800FCF706F918991948FCF702F9199918488B
:10492800FCF7FEF81A991748FCF7FAF81B9916488D
:10493800FCF7F6F81C991548FCF7F2F81D9914488D
:10494800FCF7EEF81E991348FCF7EAF81F9912488D
:10495800FCF7E6F820991148FCF7E2F8219910488D
:1049680023B0BDE8F04FFCF7DBB800BF6C86000849
:104978001C81000800080240A0860008B4860008D0
:10498800CC860008E0860008F4860008088700083E
:104998001C870008308700084487000858870008EB
:1049A8006C870008001002400000024070B5244CDB
:1049B80024482168244E254DFCF7B2F82368244882
:1049C80013F0400F0CBF31462946FCF7A9F82368BD
:1049D800204813F0800F0CBF31462946FCF7A0F899
:1049E80022681D4B1D491E4812F0200F18BF19469A
:1049F800FCF796F821681B48C1F30011FCF790F802
:104A080021681948C1F3C001FCF78AF821681748E2
:104A1800C1F38001FCF784F82268154B1549164844
:104A280012F0020F18BF1946FCF77AF821681348EC
:104A3800C1F38031FCF774F8BDE87040FFF78ABE17
:104A480000000550B0870008848700087C870008AC
:104A5800C4870008D887000888870008908700085E
:104A6800EC870008088800081488000820880008D7
:104A780098870008A48700082C8800083C8800084C
:104A88002DE9F043234885B0866AC76AD0F830809C
:104A9800456BD0F83C9004681F48FCF741F804F4D3
:104AA800746443463A46314600951C48CDF8049054
:104AB800FCF736F8C4F38015C4F38022C4F3002051
:104AC800C4F34023E10A164CCDE900051548FCF76C
:104AD80027F8A36A14489BB2ADF80E30BDF80E1043
:104AE80089B2FCF71DF82168626823682568206888
:104AF800C5F38015C0F34010019000950B48C3F32F
:104B0800C013FCF70DF80A4805B0BDE8F043FCF700
:104B180007B800BF00640240508800087088000889
:104B280000000550B0880008E888000800890008DF
:104B38003C89000870B51D4B1D485E689D681C695E
:104B480084B0FBF7EDFF06F00102C6F340030092C4
:104B58003146C6F380021748FBF7E2FFC5F300129F
:104B6800C5F3C003C5F38000CDE901322946C5F37A
:104B7800400305F0010200900F48FBF7D1FFC4F392
:104B88000011C4F3C002C4F38003CDE901210093EE
:104B98000A48C4F3400304F001022146FBF7C0FFB2
:104BA800074804B0BDE87040FBF7BABF00000550E5
:104BB8005C8900085874000888740008C8740008E4
:104BC8004C6E0008F8B50546AA200F46FBF782FF91
:104BD8005520FBF77FFF6FB100262C8835F8020BB4
:104BE800A4B2C0B2FBF776FF0136200AFBF772FFCA
:104BF800B742F2D1F8BD00BF30B5124C636983B03B
:104C080001F01F0123F4006341F0200163618DF876
:104C18000710636923F480536361054601210DF190
:104C2800070001F003F90521284601F0FFF8636940
:104C380043F480536361636943F40063636103B0C1
:104C480030BD00BF0004024010B500F01F0084B062
:104C58000D4C8DF8071040F020008DF80F006369A7
:104C680023F4805363610DF10F00012101F0DEF898
:104C780001210DF1070001F0D9F8636943F480536D
:104C8800636104B010BD00BF0004024010B51F49A5
:104C98001F4C82B00B22002020238DF806200870BC
:104CA8008DF80730636923F4805363610DF10700C1
:104CB800012101F0BBF801210DF1060001F0B6F861
:104CC800636943F480536361636943F40063636118
:104CD8008220FBF7C5FD302227238DF806208DF8AA
:104CE8000730636923F4805363610DF107000121E4
:104CF80001F09CF801210DF1060001F097F86369B5
:104D080043F48053636102B010BD00BF80C6012028
:104D18000004024070B5674D674A68706978674C4F
:104D2800A2F1080382B0002918BF134610206B6057
:104D380000F0FEFF236823F440032360236843F454
:104D480080032360636823F440036360A36843F42B
:104D58000003A360636923F400636361636943F438
:104D6800805363616420FBF73BFD06238DF8063012
:104D7800636923F4805363610DF10600012101F09A
:104D880055F80DF10700012101F066F8636943F455
:104D9800805363619DF8073023F0260343F00E0328
:104DA8008DF8063026238DF80730636923F4805385
:104DB80063610DF10700012101F038F80DF10600DB
:104DC800012101F033F863696D6843F4805363612E
:104DD800636923F4006363612B238DF807306369EB
:104DE80023F4805363610DF10700012101F01EF8DF
:104DF8002846052101F01AF8636943F4805363617A
:104E0800636943F400630125636125238DF8065027
:104E18008DF80730636923F48053636129460DF1E7
:104E2800070001F003F829460DF1060000F0FEFF27
:104E3800636943F480536361202631238DF806604B
:104E48008DF80730636923F48053636129460DF1B7
:104E5800070000F0EBFF29460DF1060000F0E6FF21
:104E6800636943F48053636132238DF806608DF8DB
:104E78000730636923F4805363610DF10700294605
:104E880000F0D4FF29460DF1060000F0CFFF63695A
:104E980043F480536361FFF7F9FE636923F4805399
:104EA8006361E22000F0B0FF636943F480536361FB
:104EB80002B070BD80C60120046A000800040240E8
:104EC80010B5064C636923F480536361E22000F057
:104ED8009BFF636943F48053636110BD0004024083
:104EE80030B583B0154C2A238DF80730636923F455
:104EF8008053054663610DF10700012100F096FF1C
:104F08002846052100F092FF6369302243F480535C
:104F180063618DF80720636923F4805363610DF1A1
:104F28000700012100F082FF0521284600F07EFFDE
:104F3800636943F48053636103B030BD00040240E9
:104F480010B584B00D4C00F01F008DF807006369A0
:104F580023F4805363610DF10700012100F066FF1F
:104F68000DF10F00012100F077FF636943F48053CE
:104F780063619DF80F0004B010BD00BF000402403B
:104F88002DE9F04383B08046FBF760FD3D4E3E4C73
:104F9800054607271CE08DF80670636923F48053E3
:104FA800636100F043FF49460DF1070000F054FF2C
:104FB800636943F4805363619DF8073013F0300F41
:104FC8004FF47A71284653D1FBF746FD002852D09A
:104FD80033785FFA83F9012B0DF106004946DAD0E0
:104FE800294C6369012523F40063636135700A2342
:104FF80020268DF807608DF80630636923F4805306
:10500800636129460DF1070000F010FF29460DF1F4
:10501800060000F00BFF636943F480536361636922
:1050280023F480536361E12000F0EEFE636943F4EA
:1050380080536361636923F4805363612946A02325
:105048000DF107008DF8073000F0F0FE31464046BC
:1050580000F0ECFE636943F480536361636943F4D1
:10506800006382206361FBF7FBFB03B0BDE8F083BC
:1050780000233370B4E7054803B0BDE8F043FBF7FD
:105088004FBD00BF80C60120000402406C8A0008A2
:1050980030B5144B1B78012B83B003D00024204675
:1050A80003B030BD104DDCB207238DF806306B69B4
:1050B80023F480536B610DF10600214600F0B6FE23
:1050C80021460DF1070000F0C7FE6B6943F48053D9
:1050D8006B619DF8073013F0300FE0D0FFF7D6FD75
:1050E800DCE700BF80C60120000402402DE9F04142
:1050F80082B0324D0E460446FBF7A8FC2A238DF8F1
:1051080007306B6923F480536B61012107460DF169
:10511800070000F08BFE0521204600F087FE6B6932
:1051280043F480536B6130238DF807306B6923F4A7
:1051380080536B6101210DF1070000F077FE2046D6
:10514800052100F073FE6B6943F4805330466B61B0
:10515800FFF716FF1A4E4FF007083378012BDCB221
:1051680004D00024204602B0BDE8F0818DF8068006
:105178006B6923F480536B6121460DF1060000F042
:1051880055FE21460DF1070000F066FE6B6943F4F9
:1051980080536B619DF8073013F0300F4FF06401B6
:1051A800384607D1FBF758FC0028D6D1204602B074
:1051B800BDE8F081FFF76AFDD3E700BF00040240B5
:1051C80080C6012010B582B01C4C07238DF806302C
:1051D800636923F48053636101210DF1060000F037
:1051E80025FE01210DF1070000F036FE636943F446
:1051F800805363619DF807305B0602D5012002B039
:1052080010BD17238DF80630636923F4805363615A
:105218000DF10600012100F009FE0DF10700012142
:1052280000F01AFE636943F4805363619DF8070038
:10523800C04300F0010002B010BD00BF00040240EE
:1052480030B5184C636983B023F480536361054615
:1052580061230DF1050001218DF8053000F0E6FD10
:105268002846202100F0F8FD63692722402143F4F5
:10527800805363618DF806108DF80720636923F465
:10528800805363610DF10700012100F0CFFD01217A
:105298000DF1060000F0CAFD636943F480536361B1
:1052A80003B030BD000402402DE9F041434C82B008
:1052B800064620200D4600F03BFD236823F44003FA
:1052C8002360236843F480032360636823F4006346
:1052D8006360A36843F40003A360E36823F4400316
:1052E800E360636923F400636361636943F4805393
:1052F80063610A2720238DF804708DF803306369F1
:1053080023F4805363610DF10300012100F08EFD49
:10531800012101A800F08AFD636943F480536361A9
:1053280040F2DC50FBF79CFA636923F40063636185
:105338004FF0260897238DF803808DF804306369B1
:1053480023F4805363610DF10300012100F06EFD29
:10535800012101A800F06AFD636943F48053636189
:105368003846FBF77DFA636923F4006363618DF8BF
:1053780003808DF80450636923F4805363610DF151
:105388000300012100F052FDE9B201A800F04EFD32
:10539800636943F4805338466361FBF761FA6369D4
:1053A80043F4006363613046FBF71AFA636923F438
:1053B8000063636102B0BDE8F08100BF00040240F1
:1053C80070B500F01F0082B00C4C40F020008DF842
:1053D8000700636923F48053164663610D460DF197
:1053E8000700012100F022FD3146284600F01EFD8D
:1053F800636943F48053636102B070BD00040240E6
:1054080010B5064C636923F480536361E12000F012
:10541800FBFC636943F48053636110BD00040240E0
:1054280030B50F490F4C83B001250A2220230D7097
:105438008DF806208DF80730636923F48053636183
:105448000DF10700294600F0F1FC29460DF1060090
:1054580000F0ECFC636943F48053636103B030BD32
:1054680080C601200004024010B582B01A4C062301
:105478008DF80630636923F4805363610DF10600EB
:10548800012100F0D3FC0DF10700012100F0E4FC3C
:10549800636943F4805363619DF8073023F0260362
:1054A800262243F00E038DF807208DF80630636935
:1054B80023F4805363610DF10700012100F0B6FC6D
:1054C80001210DF1060000F0B1FC636943F480533B
:1054D800636102B010BD00BF0004024030B5124C39
:1054E800636983B001F01F0123F0400341F02001FC
:1054F80063618DF80710636923F0800363610546D3
:1055080001210DF1070000F049FD0521284600F0B2
:1055180045FD636943F080036361636943F04003B9
:10552800636103B030BD00BF000C024010B500F04D
:105538001F0084B00D4C8DF8071040F020008DF846
:105548000F00636923F0800363610DF10F000121EF
:1055580000F024FD01210DF1070000F01FFD636933
:1055680043F08003636104B010BD00BF000C02402B
:1055780010B51F491F4C82B00B22002020238DF844
:10558800062008708DF80730636923F08003636193
:105598000DF10700012100F001FD01210DF10600C8
:1055A80000F0FCFC636943F080036361636943F0C6
:1055B800400363618220FBF753F9302227238DF8DB
:1055C80006208DF80730636923F0800363610DF1CD
:1055D8000700012100F0E2FC01210DF1060000F0B6
:1055E800DDFC636943F08003636102B010BD00BF56
:1055F80080C60120000C024030B54C4D4C4A287240
:10560800297A4C4CA2F1080383B0002918BF13462D
:105618001820EB6000F038FC236823F44053236023
:10562800236843F480532360636823F04003636076
:10563800636923F040036361636943F08003636136
:105648006420FBF7CDF86369ED682B2223F0400353
:1056580063618DF80720636923F0800363610DF1AE
:105668000700012100F09AFC2846052100F096FC6D
:10567800636943F08003636163692522502143F025
:10568800400363618DF807208DF80610636923F0E5
:10569800800363610DF10700012100F07FFC0DF12B
:1056A8000600012100F07AFC636943F0800363611E
:1056B800032531238DF806508DF80730636923F0F0
:1056C800800363610DF10700012100F067FC0DF113
:1056D8000600012100F062FC636943F08003636106
:1056E80032238DF806508DF80730636923F0800364
:1056F80063610DF10700012100F050FC01210DF15B
:10570800060000F04BFC636943F080036361FFF718
:105718002FFF636923F080036361E22000F02CFC13
:10572800636943F08003636103B030BD80C6012024
:10573800146A0008000C024010B5064C636923F097
:1057480080036361E22000F017FC636943F0800383
:10575800636110BD000C024030B583B0154C2A239C
:105768008DF80730636923F08003054663610DF106
:105778000700012100F012FC2846052100F00EFC6C
:105788006369302243F0800363618DF80720636901
:1057980023F0800363610DF10700012100F0FEFB97
:1057A8000521284600F0FAFB636943F08003636132
:1057B80003B030BD000C024010B584B00D4C00F0B1
:1057C8001F008DF80700636923F0800363610DF102
:1057D8000700012100F0E2FB0DF10F00012100F0AC
:1057E800F3FB636943F0800363619DF80F0004B025
:1057F80010BD00BF000C02402DE9F04383B0804685
:10580800FBF724F93D4E3E4C054607271CE08DF872
:105818000670636923F08003636100F0BFFB4946AB
:105828000DF1070000F0D0FB636943F0800363616A
:105838009DF8073013F0300F4FF47A71284653D192
:10584800FBF70AF9002852D033785FFA83F9012B65
:105858000DF106004946DAD0294C636923F040036C
:1058680063610A2301258DF80630202335708DF8F1
:105878000730636923F08003636129460DF107004F
:1058880000F08CFB29460DF1060000F087FB6369E8
:1058980043F080036361636923F080036361E1205F
:1058A80000F06AFB636943F080036361636923F076
:1058B800800363612946A0230DF107008DF80730A6
:1058C80000F06CFB4046032100F068FB636943F07D
:1058D80080036361636943F0400382206361FAF7E0
:1058E800BFFF03B0BDE8F08300233370B4E7054879
:1058F80003B0BDE8F043FBF713B900BF80C6012031
:10590800000C02406C8A000830B5144B1B78012B40
:1059180083B003D00024204603B030BD104DDCB264
:1059280007238DF806306B6923F080036B610DF156
:105938000600214600F032FB21460DF1070000F079
:1059480043FB6B6943F080036B619DF8073013F0EC
:10595800300FE0D0FFF70CFEDCE700BF80C6012067
:10596800000C02402DE9F04182B0324D0E4604464B
:10597800FBF76CF82A238DF807306B6923F0800356
:105988006B61012107460DF1070000F007FB0521B7
:10599800204600F003FB6B6943F080036B61302302
:1059A8008DF807306B6923F080036B6101210DF1DD
:1059B800070000F0F3FA2046052100F0EFFA6B69C2
:1059C80043F0800330466B61FFF716FF1A4E4FF025
:1059D80007083378012BDCB204D00024204602B03B
:1059E800BDE8F0818DF806806B6923F080036B6158
:1059F80021460DF1060000F0D1FA21460DF107000D
:105A080000F0E2FA6B6943F080036B619DF80730A0
:105A180013F0300F4FF06401384607D1FBF71CF83C
:105A28000028D6D1204602B0BDE8F081FFF7A0FDDE
:105A3800D3E700BF000C024080C6012010B582B039
:105A48001C4C07238DF80630636923F080036361DB
:105A580001210DF1060000F0A1FA01210DF1070066
:105A680000F0B2FA636943F0800363619DF8073080
:105A78005B0602D5012002B010BD17238DF8063051
:105A8800636923F0800363610DF10600012100F0D2
:105A980085FA0DF10700012100F096FA636943F0D9
:105AA800800363619DF80700C04300F0010002B065
:105AB80010BD00BF000C024030B5184C636983B0BC
:105AC80023F080036361054661230DF10500012180
