:020000040800F2
:1000000000000220915C0008D95C0008D95C00085F
:10001000D95C0008D95C0008D95C00080000000029
:10002000000000000000000000000000D95C000893
:10003000D95C000800000000D95C0008D95C000809
:10004000D95C0008D95C0008D95C0008D95C0008BC
:10005000D95C0008D95C0008D95C0008D95C0008AC
:10006000D95C0008D95C0008D95C0008D95C00089C
:10007000D95C0008D95C0008D95C0008D95C00088C
:10008000D95C0008D95C0008D95C0008D95C00087C
:10009000D95C0008D95C0008D95C0008D95C00086C
:1000A000D95C0008D95C0008D95C0008D95C00085C
:1000B000D95C0008D95C0008D95C0008D95C00084C
:1000C000D95C0008D95C0008D95C0008D95C00083C
:1000D000D95C0008D95C0008D95C0008D95C00082C
:1000E000D95C0008D95C0008D95C0008D95C00081C
:1000F000D95C0008D95C0008D95C0008D95C00080C
:10010000D95C0008D95C0008D95C0008D95C0008FB
:10011000D95C0008D95C0008D95C00084D090008CA
:10012000D95C0008AD040008D95C0008D95C00085F
:10013000D95C0008D95C0008D95C0008D95C0008CB
:10014000D95C0008D95C0008D95C0008D95C0008BB
:10015000D95C0008D95C0008D95C0008D95C0008AB
:10016000D95C0008D95C0008D95C0008D95C00089B
:10017000D95C0008D95C0008D95C0008D95C00088B
:08018000D95C0008D95C0008FD
:100188000348044B834202D0034B03B1184770471E
:10019800489A0020489A0020000000000548064BB5
:1001A8001B1AD90F01EBA301491002D0034B03B16D
:1001B80018477047489A0020489A0020000000001D
:1001C80010B5064C237843B9FFF7DAFF044B13B197
:1001D8000448AFF300800123237010BD489A002023
:1001E80000000000247F000808B5044B1BB1044937
:1001F8000448AFF30080BDE80840CFE700000000E6
:100208004C9A0020247F0008A3F5803A704700BF6D
:10021800154B002B08BF114B9D46FFF7F5FF00213A
:100228008B460F461148124A121A05F0A7FB0C4BD1
:10023800002B00D098470B4B002B00D0984700208C
:10024800002104000D000B4805F0ACFA05F0D4FAC3
:100258002000290005F072FC05F0AAFA0000080049
:10026800000000000000000000000000489A002084
:1002780084C60120D95700082DE980483F4E404DDB
:10028800DFF80491DFF804813E4F89B045F2AA5A9D
:10029800D8F82840337814F4002435D003F0FF044C
:1002A800002BF5D169463846ADF800A0DFF8E0B07C
:1002B80004F0F8FE234601E05D451CD0BBF8004081
:1002C800BBF8001003F1200003F1210268446A44DE
:1002D8000233C1F30721202B00F8204C0BF1020B4D
:1002E80002F8201CE8D16946384604F0DBFE5D457B
:1002F8004FF00003E2D1B3BB01233370D8F8284094
:10030800337814F40024C9D1012BC1D16946384689
:10031800ADF800A0DFF87CB004F0C4FE234601E08D
:10032800CB451CD0BBF80040BBF8001003F12000FF
:1003380003F1210268446A440233C1F30721202BE8
:1003480000F8204C0BF1020B02F8201CE8D169469A
:10035800384604F0A7FECB454FF00003E2D13BB985
:100368000023337094E76946384604F09BFEC3E7E0
:100378006946384604F096FEF2E700BF649A00200A
:100388007CC60120BC5E00087C300120006402406D
:100398007C3001207C9A0020F0B589B00F460446D5
:1003A80045F2AA531948ADF80030694604F07AFEC0
:1003B8001FB30023154E1D4601E0AF421CD0218813
:1003C800208803F1200C03F12102EC446A44023333
:1003D800C0F30720202B0CF8201C05F1010502F8BA
:1003E800200C04F10204E8D16946304604F05AFEB4
:1003F800AF424FF00003E2D10BB909B0F0BD694636
:10040800024804F04FFE09B0F0BD00BFBC5E000812
:1004180070B5054688B04E00002404F0AFFE0128F0
:10042800FBD1684604F0E8FE9DF80030AA2B28D0DE
:10043800A6421FD96B4604F1200008E001341A785F
:100448006A52844203F1010312D0A64212D024F06A
:10045800010214F0010F1146F0D093F800C0A95A18
:10046800013441EA0C218442A95203F10103ECD181
:10047800A642D2D84FF49641284604F07FFB08B034
:1004880070BD9DF80130552BD2D10024C5E700BFBF
:1004980008B5034C4FF496412046FFF7B9FFF9E73A
:1004A800180000200C4B1A68510544BF4FF48062B5
:1004B8009A60094B1A6812050DD54FF400629A60CC
:1004C800986A0649064A074B10F4002F08BF0B46E6
:1004D8000121536011727047006402407C9A002029
:1004E800649A00207C30012080B5DFF87C901D4D97
:1004F80088B045F2AA57002699F80830002BFBD09F
:10050800D9F80440ADF800706946284604F0CAFDE1
:1005180004F51648002301E044451AD003F12002EF
:100528006A44218802F8201C218803F121026A44C8
:100538000233C1F30721202B04F1020402F8201C26
:10054800EAD16946284604F0ADFD44454FF0000362
:10055800E4D113B989F80860CEE76946284604F063
:10056800A1FDF7E7BC5E0008649A00204148424AB2
:10057800D0F8883043F47003C0F88830136800213D
:1005880043F00103136091601368A0F1BC2023F0CD
:10059800847323F48033F03813605060136882B09A
:1005A80023F480231360D16000910191136843F410
:1005B8008033136003E0009BB3F5A06F09D0136884
:1005C80003F400330193009B01330093019B002B3C
:1005D800F1D0294B1B6813F4003318BF0123019392
:1005E800019B012B14D0244A2449936823F4000367
:1005F8009360C2F88410136843F080631360136833
:100608001B01FCD51B4B4FF000629A6002B070478B
:10061800194B1B491A6C1B4842F080521A640A682D
:1006280042F480420A609A689A609A6842F40042EA
:100638009A609A6842F4A0529A6058601A6842F028
:1006480080721A601A689201FCD50F4A40F205615F
:100658001160996821F003019960996841F00201DD
:10066800A2F580629960936803F00C03082BFAD115
:10067800B9E700BF00ED00E00038024080400030DC
:100688000070004008544007003C0240164A936836
:1006980003F00C03042B0BD0082B0BD0134B124A7E
:1006A80013499268C2F303128A5CD3400B61704706
:1006B800104BF4E75368516813F4800F536814BF64
:1006C8000C4A0A4AC3F3881301F03F01B2FBF1F266
:1006D80002FB03F3044A5268C2F30142013252009A
:1006E800B3FBF2F3DBE700BF003802400024F4005C
:1006F8000400002000127A001D491E4A0B6C43F0CA
:1007080040030B644FF0530C4FF47A73A2F828C0DF
:10071800D36213889BB243F084031380138823F0B9
:1007280010031B041B0C1380938A9BB243F0010334
:10073800938213889BB243F00103138050B1138A4C
:10074800DB07FCD5138A23F001031B041B0C0138BB
:100758001382F4D10749064A0B8823F001031B04CE
:100768001B0C0B80136C23F040031364704700BF0D
:1007780000380240001800401C491D4A0B6C43F029
:1007880040030B644FF0030C1523A2F828C0D36272
:1007980013889BB243F084031380138823F010035B
:1007A8001B041B0C1380938A9BB243F001039382B2
:1007B80013889BB243F00103138050B1138ADB07FF
:1007C800FCD5138A23F001031B041B0C0138138288
:1007D800F4D10749054A0B8823F001031B041B0CBD
:1007E8000B80136C23F040031364704700380240F9
:1007F800001800400D490E4B0A6C4FF0530C42F0A4
:1008080008024FF0FF300A64A3F828C0D8621A889B
:1008180092B242F084021A801A8822F070021204FE
:100828000021120C1A8099805962704700380240E2
:10083800000C0040054A938A9BB243F0010393825F
:1008480013889BB243F0010313807047000C0040EB
:10085800044A506A138823F001031B041B0C1380FD
:10086800704700BF000C004013490A6C4FF08043EA
:1008780042F001024FF0530C4FF0FF300A64A3F826
:1008880028C0D8621A8892B242F084021A801A8864
:1008980022F0700212040021120C1A809980596209
:1008A8009A8A92B242F001029A821A8892B242F06F
:1008B80001021A80704700BF003802404FF08043A1
:1008C800586A70474FF080435B6A984205D80844DD
:1008D800984294BF002001207047013B181A8842B3
:1008E8002CBF0020012070471348144B026C42F0C3
:1008F8002002026400214FF0530C4FF47A708422D6
:10090800A3F828C0D8621A80998059629A8A0C483C
:1009180092B242F001029A824FF0010C4FF40002A9
:10092800A3F80CC080F8371342601A8892B242EAE2
:100938000C021A80704700BF0038024000140040C3
:1009480000E100E0054B1A8AD20705D504490A6878
:10095800002001320A601882704700BF001400406E
:10096800709A0020014B1868704700BF709A0020E9
:10097800084B1B68834205D30844984294BF002063
:1009880001207047013B181A88422CBF0020012023
:10099800704700BF709A0020114A124B124910B4D8
:1009A800146B44F001041463146C44F400341464AC
:1009B8001A6842F0A0021A601A6A42F4EE421A62F9
:1009C8009A6842F020029A609A6842F2080480B25B
:1009D80042F080029A6008818C815DF8044B704770
:1009E800003802400000024000440040024A1388D8
:1009F8005B06FCD590807047004400400D4A00B566
:100A0800411E00F2FF3C4FF00D0E11F8010F40B1EE
:100A180013885B06FCD590800B780A2B03D06145C0
:100A2800F3D15DF804FB13885B06FCD5A2F804E05B
:100A3800F5E700BF004400400FB470B58CB010ABB0
:100A480053F8046B019332783AB300246E4D314663
:100A58002346252A13D133445A78BAB1623A162A62
:100A680027D8DFE802F0786E612642262626262659
:100A7800262626262626263B262626262B002B88B3
:100A88005806FCD5AA800B780A2B0BD00134A4B2E7
:100A98002346325D3119002ADBD10CB0BDE8704025
:100AA80004B07047584A13885B06FCD50D23938021
:100AB800ECE7002300930134A4B2E7E79B78622BAC
:100AC8007BD0682B58D0772B019B00F087801A1DAC
:100AD8001B6801924FF4006000931DE0019B1A1DF2
:100AE80018680192FFF78AFFE5E7019B073323F0B7
:100AF800070303F108020192D3E90012434B03EA0A
:100B0800C20343EA5173002AB8BF43F000435200BE
:100B180000932DD44FF4807002AA694600F0C4F8FF
:100B280002A8FFF76BFFC6E79B78622B3DD0682BC6
:100B380033D0772B019B59D01A1D01921B682020B6
:100B4800CAE7019B1A1D019219782F4A1388580683
:100B5800FCD59180AFE79B78622B37D0682B14D0F7
:100B6800772B019B49D01A1D01921B680420B3E71B
:100B780043F080430093CDE7019B01341A1D019295
:100B88001B68A4B24FF48060A6E7019B01341A1DCC
:100B980001921B68A4B202209EE7019B01341A1D32
:100BA80001921B68A4B2102096E7019B01341A1D1C
:100BB80001921B68A4B208208EE7019B01341A1D1C
:100BC80001921B68A4B24FF4007085E7019B0134C1
:100BD8001A1D01921B68A4B201207DE71A1D013479
:100BE8001B680192A4B24FF4006075E71A1D013426
:100BF8001B680192A4B220206EE71A1D01341B68FD
:100C08000192A4B2042067E700440040F8FFFF3FC8
:100C180070B50E4A0E4D044630260A30013891420E
:100C280038BF06700AD33123891A03F1010C9142A7
:100C38009E465FFA8CF3F7D280F800E0A5FB0232FB
:100C4800A0424FEAD202E9D170BD00BF00CA9A3B68
:100C5800CDCCCCCC00B509304FF0000C0378302B4C
:100C68001AD0B1F800E002F80E300B8801339BB2BD
:100C780006E090F800E002F803E00B8801339BB22D
:100C88000CF1010CBCF10A0F0B8000F1FF30F0D120
:100C98000021D1545DF804FBBCF1090FE1D00CF13F
:100CA800010C0138DAE700BF2DE9F04784B00023D2
:100CB800B0F5807FADF80230137000F0BF8044D8E3
:100CC800013883B21F2B3DD81F283BD8DFE800F03E
:100CD8007A8B3AA03A3A3A103A3A3A3A3A3A3A10C9
:100CE8003A3A3A3A3A3A3A3A3A3A3A3A3A3A3A1086
:100CF8000B68002B07DA2D2313700B6801205B4269
:100D0800ADF802000B60BB48BB4D194601AE0DF1B2
:100D18000E043027013C884288BF277006D830234C
:100D2800091A01338142DBB2FAD22370A5FB0030E5
:100D3800B4424FEAD000EDD10DF1020949463046E0
:100D4800FFF788FF04B0BDE8F087B0F5806F00F0CA
:100D58001F81B0F5006F18D10B68104602F1080525
:100D6800B3F1204F4FEA137404F130032ABF37342C
:100D7800037004700B6801301B0185420B60EFD1D2
:100D88000023137204B0BDE8F087B0F5007FD9D115
:100D98000B68C3F30313092B8CBF3733303313703D
:100DA8000B6803F00F00092894BF303037301B015F
:100DB8000B6050700B6800201B010B60907004B032
:100DC800BDE8F0870B68104602F10804302631258B
:100DD8001F064CBF057006700B6801305B00A0420F
:100DE8000B60F5D1CCE70B68104602F110043026F1
:100DF80031251B044CBF057006700B6801305B0081
:100E0800A0420B60F5D10023137404B0BDE8F0874D
:100E18000B68104602F1200430253126002BB4BFA0
:100E2800067005700B6801305B0084420B60F5D1D9
:100E3800002382F8203004B0BDE8F087D1ED006AC5
:100E4800F5EEC06AF1EE10FA06D52D2101231170D6
:100E5800ADF80230F1EE666AF7EE007AF4EEE76A72
:100E6800F1EE10FA00F1AB8040F3BF800023B2EE40
:100E7800046A67EE867A1C46F4EEE76AF1EE10FA29
:100E880003F10103F5DC87EE867AA4B220270DF181
:100E98000E085848DFF860E101AEC4464FF030094B
:100EA800C6EE877A9FED557AFCEEE76A16EE901A41
:100EB800F8EE666A77EEE67A67EE877AFCEEE77A0E
:100EC80017EE905A0CF1FF3C884288BF8CF80090CE
:100ED80009D83123091A9A46814203F10103DBB28A
:100EE800F8D28CF800A0AEFB0030B4454FEAD00031
:100EF800E8D10DF1020949463046FFF7ABFE3D49FE
:100F0800DFF8F4C040464FF0300E0138A94288BFE0
:100F180080F800E006D830236D1A01338D42DBB229
:100F2800FAD20370ACFB0131B0424FEAD101ECD1E7
:100F38002E23494630468DF80730FFF78BFEBDF863
:100F48000210652353544B1C9BB22D2FADF8023071
:100F580003D10231D754ADF802102649264F4FF07D
:100F6800300C08F1FF38A14288BF88F800C008D8C3
:100F78003123641A581C8C421D46C3B2F9D288F832
:100F88000050A7FB0131B0454FEAD101E9D1D5E6C0
:100F98000B681046151DC3F30333092B03F1300406
:100FA8008ABF3733047003700B6801301B01854218
:100FB8000B60F0D10023137104B0BDE8F0879FEDFA
:100FC800107AF4EEC76AF1EE10FA4FF001040AD570
:100FD800F0EE477A27EE277A0134F4EEC76AF1EE8D
:100FE80010FAA4B2F6D42D2751E79FED057A4FF6F3
:100FF800FF744BE700CA9A3BCDCCCCCC00007A44B6
:10100800CDCCCC3D10B4421E002340F2014C02E08E
:101018000133634512D012F8014F002CF8D19BB26E
:101028004A1E01F5806C9B1A02E06245445405D0C3
:10103800991812F8014F89B2002CF6D15DF8044BCB
:10104800704700BF294A2A4B116B41F0020110B4C6
:1010580011631968274C21F470211960196841F44B
:1010680020211960596841F440715960996841F428
:1010780002219960D96821F47021D960D96841F4B6
:10108800A021D960596A21F0FF015962596A41F0DB
:10109800440159622070116CA3F5D83341F4001152
:1010A80011641A886FEA42426FEA524292B21A8079
:1010B8001A88C2F30E021A801A8822F0010212045A
:1010C800120C1A802A2444F23202D2202B219C804E
:1010D800988319841A811A885DF8044B92B242F4F5
:1010E800806242F001021A80704700BF0038024057
:1010F80000040240749A00200C4A0D48138823F417
:1011080080631B041B0C1380938A138B13889BB278
:1011180043F400731380118B938A9BB243EA014313
:1011280030EA0303F7D1108AC0B270470054004078
:1011380040000300084A094813889BB243F48063BF
:101148001380118B938A9BB243EA014330EA03036D
:10115800F7D1108AC0B27047005400404000030025
:1011680010B40E4A0E4C118B938A9BB243EA01438A
:1011780034EA0303F7D10B4B0849108201E0013B25
:1011880003D38A8A5207FAD513B15DF8044B704726
:1011980005485DF8044BFFF74FBC00BF0054004002
:1011A80080000700A0860100BC610008074A0848C3
:1011B80013889BB243F400731380118B938A9BB2FC
:1011C80043EA014330EA0303F7D170470054004073
:1011D80084000700134B144901E0013B02D00A8B3D
:1011E8009207FAD4104A13889BB243F48073138091
:1011F800938ADB07FCD50D4B1B7858B943F00103E4
:101208001382094A938A9907FCD50128938A138B7C
:1012180003D07047DBB21382F3E7034A938A1B06B5
:10122800FCD57047A086010000540040749A002045
:1012380070B50646012015460C46FFF7CBFF304631
:10124800FFF78EFF35B1254414F8010BFFF788FF2F
:10125800AC42F9D1074A084813889BB243F400739B
:101268001380118B938A9BB243EA014330EA03034C
:10127800F7D170BD005400408400070070B50646E1
:10128800012014460D46FFF7A5FF3046FFF768FF1B
:10129800244A254813889BB243F400731380118BAA
:1012A800938A9BB243EA014330EA0303F7D11D4B0B
:1012B800188810F40070FBD1FFF78CFFDCB1194AD5
:1012C8001A4904F1FF3EAC467045138814D09BB20E
:1012D80043F480631380158B938A9BB243EA0543DA
:1012E80031EA0303F7D10130138A8CF80030A042A9
:1012F8000CF1010CE8D170BD23F480631B041B0CB6
:101308001380938A138B13889BB243F40073138062
:10131800158B938A9BB243EA054331EA0303F7D15D
:10132800E1E700BF005400408400070040000300CC
:1013380030B583B00DF107018023012212208DF80A
:101348000730FFF775FFC820FFF7D6F903230DF123
:101358000701012211208DF807300424FFF768FFE8
:101368000DF1070101220C208DF80740FFF760FFFF
:1013780022230DF10701012272208DF807303A254A
:10138800FFF756FF0DF10701012270208DF8075075
:10139800FFF74EFF0DF107013523012271208DF86B
:1013A8000730FFF745FF0DF10701F22301227320F3
:1013B8008DF80730FFF73CFF0DF1070102230122EA
:1013C800A2208DF80730FFF733FF1A230DF107012C
:1013D80001223E208DF80730FFF72AFF0A20FFF789
:1013E8008BF90DF10701012212208DF80740FFF754
:1013F8001FFFD0230DF10701012240208DF807308F
:10140800FFF716FF0DF10701284601228DF8074066
:10141800FFF70EFF0A240DF1070101223B208DF88A
:101428000740FFF705FF0DF10701E723012213200D
:101438008DF80730FFF7FCFE2046FFF75DF9202303
:1014480001220DF1070115208DF80730FFF7F0FE96
:101458002046FFF751F90248FFF7EEFA03B030BD16
:10146800CC61000830B583B0802301220DF107015B
:10147800122014468DF80730FFF7DAFEC820FFF770
:101488003BF922460DF10701112000258DF8074090
:10149800FFF7CEFE22460DF107010C208DF807500C
:1014A800FFF7C6FE22460DF1070172208DF807509E
:1014B800FFF7BEFE22460DF1070170208DF8075098
:1014C800FFF7B6FE22460DF1070171208DF807508F
:1014D800FFF7AEFE22460DF1070173208DF8075085
:1014E800FFF7A6FE22460DF10701A2208DF807504E
:1014F800FFF79EFE22460DF10701042312208DF806
:101508000730FFF795FE22460DF10701D023402052
:101518008DF80730FFF78CFE22460DF107012023D6
:1015280015208DF80730FFF783FEE72322460DF1DB
:10153800070113208DF80730FFF77AFE0248FFF7FE
:101548007BFA03B030BD00BF0862000830B5422006
:1015580083B0FFF777FD012201A90A20FFF78EFE6D
:101568009DF8045011482946FFF766FA01A90B2097
:101578000122FFF783FE9DF804400D482146FFF73E
:101588005BFA732C01D1762D07D00A48FFF754FA7D
:101598000948FFF751FA03B030BD0848FFF74CFA85
:1015A8000548FFF749FA03B030BD00BF44620008A0
:1015B80068620008A8620008C86200088C62000817
:1015C80030B5422083B0FFF73DFD01220DEB02014B
:1015D800802312208DF80130FFF72AFEC820FFF77C
:1015E8008BF801220DEB0201042312208DF8013043
:1015F800FFF71EFE0A20FFF77FF801220DEB02011C
:101608001423402014468DF80130FFF711FE052001
:10161800FFF772F822460DEB04010C208DF801400B
:10162800FFF706FEA42322460DEB04013E208DF8A9
:101638000130FFF7FDFD0520FFF75EF80025224683
:101648000DF102010C208DF80250FFF7F1FD224642
:101658000DF1030119233E208DF80330FFF7E8FD53
:10166800224601A93A2370208DF80430FFF7E0FDE7
:1016780022460DF10501352371208DF80530FFF75D
:10168800D7FD22460DF10601112372208DF8063090
:10169800FFF7CEFDF12322460DF1070173208DF8E7
:1016A8000730FFF7C5FD0A20FFF726F822460DEBA5
:1016B800040115208DF80150FFF7BAFD0520FFF74A
:1016C8001BF822460DEB04010A20FFF7D7FD9DF811
:1016D80001100448FFF7B0F90348FFF7ADF903B06C
:1016E80030BD00BFF86200080C63000830B5422026
:1016F80083B0FFF7A7FC012201A90A20FFF7BEFD6E
:101708009DF804106748FFF797F9012201A90B20FB
:10171800FFF7B4FD9DF804106348FFF78DF98025A5
:101728000DF10301012212208DF80350FFF780FD0F
:10173800C820FEF7E1FF0DF1030114230122122056
:101748008DF80330FFF774FD0520FEF7D5FFD02391
:101758000DF103010122402001248DF80330FFF729
:1017680067FD0520FEF7C8FF22460DF10301112091
:101778008DF80340FFF75CFD0520FEF7BDFF4A2307
:1017880022460DF103016B208DF80330FFF750FD61
:101798000520FEF7B1FF22460DF1030132208DF836
:1017A8000350FFF745FD0520FEF7A6FF22460DF181
:1017B8000301162317208DF80330FFF739FD0520A4
:1017C800FEF79AFF042322460DF1030118208DF835
:1017D8000330FFF72DFD0520FEF78EFF0225224678
:1017E8000DF1030119208DF80350FFF721FD0520A5
:1017F800FEF782FF22460DF103017A231A208DF8A5
:101808000330FFF715FD0520FEF776FF22460DF1A0
:1018180003010A2303208DF80330FFF709FD052093
:10182800FEF76AFF22460DF103013A2370208DF876
:101838000330FFF7FDFC0520FEF75EFF22460DF1A1
:101848000301352371208DF80330FFF7F1FC0520E3
:10185800FEF752FF22460DF10301112372208DF885
:101868000330FFF7E5FC0520FEF746FFF12322468B
:101878000DF1030173208DF80330FFF7D9FC052023
:10188800FEF73AFF22460DF10301A2208DF803501E
:10189800FFF7CEFC0520FEF72FFF0448FFF7CCF832
:1018A80003B030BD44620008686200083063000875
:1018B80030B5422083B0FFF7C5FB012201A90A20F9
:1018C800FFF7DCFC9DF804106748FFF7B5F8012224
:1018D80001A90B20FFF7D2FC9DF804106348FFF71D
:1018E800ABF880250DF10301012212208DF8035079
:1018F800FFF79EFCC820FEF7FFFE0DF1030114233D
:10190800012212208DF80330FFF792FC0520FEF724
:10191800F3FED0230DF103010122402001248DF8AC
:101928000330FFF785FC0520FEF7E6FE22460DF1A1
:10193800030111208DF80340FFF77AFC0520FEF71C
:10194800DBFE4A2322460DF103016B208DF803309C
:10195800FFF76EFC0520FEF7CFFE22460DF10301CE
:1019680032208DF80350FFF763FC0520FEF7C4FE14
:1019780022460DF10301162317208DF80330FFF7D7
:1019880057FC0520FEF7B8FE042322460DF103019B
:1019980018208DF80330FFF74BFC0520FEF7ACFE4E
:1019A800022522460DF1030119208DF80350FFF797
:1019B8003FFC0520FEF7A0FE22460DF103017A2325
:1019C8001A208DF80330FFF733FC0520FEF794FE4C
:1019D80022460DF103010A2303208DF80330FFF797
:1019E80027FC0520FEF788FE22460DF103013A2365
:1019F80070208DF80330FFF71BFC0520FEF77CFEF6
:101A080022460DF10301352371208DF80330FFF7CD
:101A18000FFC0520FEF770FE22460DF1030111238D
:101A280072208DF80330FFF703FC0520FEF764FEF3
:101A3800F12322460DF1030173208DF80330FFF7DF
:101A4800F7FB0520FEF758FE22460DF10301A22000
:101A58008DF80350FFF7ECFB0520FEF74DFE044818
:101A6800FEF7EAFF03B030BD446200086862000870
:101A7800306300082348244A016B244B41F00101DC
:101A880010B40163146824F440341460146844F4F6
:101A980000341460546A24F00F045462546A44F009
:101AA80001045462426C42F0010242640021142491
:101AB8000A22198019831984A3F844101985DC6255
:101AC8005A631A8B5DF8044B92B242F060021A8393
:101AD8001A8B92B242F008021A831A8C012192B230
:101AE8000A431A84B3F844206FEA42426FEA52422A
:101AF80092B2A3F8442099821A8892B20A431A80B3
:101B0800704700BF0038024000000240000001405A
:101B18002B492C4A086B2C4B40F0010008631068D5
:101B280020F440301060106840F400301060506AB3
:101B380020F00F005062506A40F0010050624A6C79
:101B480042F001024A644FF0000C03220620A3F879
:101B580028C0D8625A631A8892B242F084021A8066
:101B68001A8822F070021204120C1A801A8B22F0C2
:101B780070021204120C1A831A8B92B242F0680295
:101B88001A831A8C22F002021204120C1A841A8C7C
:101B980092B242F001021A84B3F844206FEA42423A
:101BA8006FEA524292B2A3F844209A8A92B242F063
:101BB80001029A821A8892B242F001021A80704792
:101BC80000380240000002400000014030B54220C9
:101BD80083B0FFF737FA012201A90A20FFF74EFB6D
:101BE8009DF804106748FEF727FF012201A90B2082
:101BF800FFF744FB9DF804106348FEF71DFF80259E
:101C08000DF103010122122001248DF80350FFF782
:101C18000FFB6420FEF770FD22460DF10301122030
:101C28008DF80340FFF704FB0520FEF765FDD02380
:101C380022460DF1030140208DF80330FFF7F8FA32
:101C48000520FEF759FD22460DF1030111208DF8FC
:101C58000340FFF7EDFA0520FEF74EFD22460DF191
:101C680003014A236B208DF80330FFF7E1FA0520C2
:101C7800FEF742FD22460DF10301162317208DF8C9
:101C88000330FFF7D5FA2046FEF736FDB623224685
:101C98000DF1030118208DF80330FFF7C9FA20462B
:101CA800FEF72AFD22460DF1030132208DF803507C
:101CB800FFF7BEFA2046FEF71FFD022522460DF16A
:101CC800030119208DF80350FFF7B2FA2046FEF7FA
:101CD80013FD22460DF103017A231A208DF80330F3
:101CE800FFF7A6FA2046FEF707FD22460DF103018D
:101CF8000A2303208DF80330FFF79AFA2046FEF7EF
:101D0800FBFC22460DF103013A2370208DF80330C5
:101D1800FFF78EFA2046FEF7EFFC22460DF103018D
:101D2800352371208DF80330FFF782FA2046FEF73D
:101D3800E3FC22460DF10301112372208DF80330D4
:101D4800FFF776FA2046FEF7D7FCF12322460DF17D
:101D5800030173208DF80330FFF76AFA2046FEF777
:101D6800CBFC22460DF10301A2208DF80350FFF7AA
:101D78005FFA2046FEF7C0FC0448FEF75DFE03B09C
:101D880030BD00BF44620008686200083063000884
:101D98002DE9F04182B080240DF1070101221220C3
:101DA8008DF80740FFF744FAC820FEF7A5FC002588
:101DB8000DF107010122112004268DF80750FFF7C5
:101DC80037FA0DF1070101220C208DF80760FFF7A3
:101DD8002FFA0DF10701012212208DF807604FF04C
:101DE8001A08FFF725FA0DF1070101223E208DF8A8
:101DF8000780FFF71DFA16230DF1070101221720AE
:101E08008DF80730FFF714FA0DF1070101221820A9
:101E18008DF80760A427FFF70BFA0DF107010122DF
:101E2800322002268DF80770FFF702FA0DF107013C
:101E3800012219208DF80760FFF7FAF97A23404646
:101E48000DF1070101228DF80730FFF7F1F90DF1C7
:101E58000701012203208DF80770FFF7E9F9222313
:101E68000DF10701012272208DF80730FFF7E0F924
:101E7800F2230DF10701012273208DF80730FFF7D7
:101E8800D7F90DF10701012215208DF80750FFF74A
:101E9800CFF9D0230DF10701012240208DF807303A
:101EA800FFF7C6F90DF107010122A2208DF807609E
:101EB800FFF7BEF950260DF10701012256208DF8D3
:101EC8000760FFF7B5F9E7230DF107010122132099
:101ED8008DF80730FFF7ACF90DF1070101223D201D
:101EE8008DF80740FFF7A4F90DF1070101224F20F3
:101EF8008DF80740FFF79CF930460DF107010122E4
:101F08008DF80740FFF794F90DF1070101225120E0
:101F18008DF80750FFF78CF90DF1070118230122FE
:101F280052208DF80730FFF783F90DF10701482398
:101F3800012253208DF80730FFF77AF90DF10701D8
:101F48004023012254208DF80730FFF771F90DF175
:101F580007011E23012258208DF80730FFF768F982
:101F6800302301220DF107014C208DF80730FFF7CF
:101F78005FF902B0BDE8F08170B582B080240DF140
:101F88000701012212208DF80740FFF751F9C820F8
:101F9800FEF7B2FB00250DF10701012211208DF893
:101FA8000750FFF745F90DF107010623012212201A
:101FB8008DF80730FFF73CF90DF10701D023012216
:101FC80040208DF80730FFF733F90DF1070116238C
:101FD800012217208DF80730FFF72AF904230DF1A5
:101FE8000701012218208DF80730FFF721F90DF1BC
:101FF80007010122322002268DF80740FFF718F961
:102008000DF10701012219208DF80760FFF710F97B
:102018007A230DF1070101221A208DF80730FFF706
:1020280007F90DF10701012203208DF80750FFF78A
:10203800FFF80DF10701012215208DF80750FFF771
:10204800F7F80DF107010122A2208DF80760FFF7CC
:10205800EFF8E7230DF10701012213208DF807306F
:10206800FFF7E6F80DF1070101224F208DF8074030
:10207800FFF7DEF801220DF1070154208DF8074023
:10208800FFF7D6F802B070BDF0B59FB080240122EA
:102098000DF1670112208DF86740FFF7C9F8C820D5
:1020A800FEF72AFB002501220DF167011120042605
:1020B8008DF86750FFF7BCF801220DF167010C207D
:1020C8008DF86760FFF7B4F801220DF1670112205F
:1020D8001A278DF86760FFF7ABF80DF16701012249
:1020E8003E208DF86770FFF7A3F816230DEB060165
:1020F800012217208DF80430FFF79AF8012202A96F
:1021080018208DF80860FFF793F8012203A9322000
:102118008DF80C40FFF78CF80223012204A919203E
:102128008DF81030FFF784F838467B23012205A983
:102138008DF81430FFF77CF80A23012206A9032042
:102148008DF818302227FFF773F8012207A97220AB
:102158008DF81C70FFF76CF8F223012208A9732090
:102168008DF82030FFF764F8012209A915208DF8B1
:102178002450FFF75DF801220AA98C208DF8285019
:10218800FFF756F8D02301220BA940208DF82C30F8
:10219800FFF74EF801220CA93A208DF83060FFF7BE
:1021A80047F801220DA93D208DF83440FFF740F88B
:1021B80001220EA94F208DF83840FFF739F8012287
:1021C8000FA950208DF83C40FFF732F8012210A9E2
:1021D80051208DF84050FFF72BF8012211A9522009
:1021E8008DF84470FFF724F85E23012212A95320CA
:1021F8008DF84830FFF71CF8012213A954208DF8F8
:102208004C40FFF715F89E23012214A958208DF899
:102218005030FFF70DF81F4B0FCB1AAC84E80F00B6
:102228001EAEC4F17B05281901222146C0B2144410
:10223800FEF7FEFFB442F6D115A93823012241204A
:102248008DF85430FEF7F4FF16A9312301221E2021
:102258008DF85830FEF7ECFF17A9202301225620ED
:102268008DF85C30FEF7E4FF18A9042301227B20D7
:102278008DF86030FEF7DCFF4023012219A94F20BA
:102288008DF86430FEF7D4FF6420FEF735FA1FB0EE
:10229800F0BD00BF6863000810B5594C5948236B5E
:1022A80043F01F032363036823F4701323F44C5390
:1022B8000360036843F4201343F408530360036A7C
:1022C80023F0706323F470230362036A43F05063BE
:1022D80043F450230362436A23F47F634362436AEF
:1022E80043F45D634362036823F440530360036867
:1022F80043F400530360036A23F070630362036AC4
:1023080043F05063036282B00168026A436A00695D
:1023180000903D48FEF790FB3C4A3D4B10683D4914
:1023280020F440401060106840F400401060106ACB
:1023380020F070401062106A40F050401062186837
:1023480020F470201860186840F420201860586A3B
:1023580020F0FF005862586A40F0DD0058620868B3
:102368002D4B20F0C0000860086840F0800008602D
:10237800086A20F470400862086A40F45040086215
:10238800D2F8001C21F47C51C2F8001CD2F8001CC1
:1023980041F42851C2F8001CD2F8201C21F07F61BA
:1023A80021F47021C2F8201CD2F8201C41F05D6194
:1023B80041F45021C2F8201C626B42F001026263B2
:1023C800626942F0010262616269002022F0010242
:1023D800626118601A6842F080021A601A6822F076
:1023E80040021A601A6822F020021A601A6842F045
:1023F80002021A601A6842F480421A6002B010BDE4
:1024080000380240000002407C63000800040240DB
:1024180000080240000C02400000055010B5594C5D
:102428005948236B43F01F032363036823F4701395
:1024380023F44C530360036843F4201343F4085314
:102448000360036A23F0706323F470230362036A52
:1024580043F0506343F450230362436A23F47F63D9
:102468004362436A43F45D634362036823F4405361
:102478000360036843F400530360036A23F0706346
:102488000362036A43F05063036282B00168026A20
:10249800436A006900903D48FEF7CEFA3C4A3D4B3E
:1024A80010683D4920F440401060106840F4004036
:1024B8001060106A20F070401062106A40F05040BE
:1024C8001062186820F470201860186840F4202002
:1024D8001860586A20F0FF005862586A40F0DD0022
:1024E800586208682D4B20F0C0000860086840F06A
:1024F80080000860086A20F470400862086A40F4A6
:1025080050400862D2F8001C21F47C51C2F8001C2B
:10251800D2F8001C41F42851C2F8001CD2F8201C43
:1025280021F07F6121F47021C2F8201CD2F8201C10
:1025380041F05D6141F45021C2F8201C626B42F009
:1025480001026263626942F001026261626900200D
:1025580022F00102626118601A6842F080021A6073
:102568001A6822F040021A601A6842F020021A60C3
:102578001A6822F002021A601A6842F480421A604D
:1025880002B010BD00380240000002407C63000821
:102598000004024000080240000C02400000055000
:1025A8004B4A4C4B116B4C4841F01F0110B411635E
:1025B800196821F4701121F44C511960196841F41B
:1025C800201141F408511960596A21F47F61596258
:1025D800596A41F45D615962196A21F0706121F408
:1025E80070211962196A41F0506141F45021196251
:1025F80003683A4923F440430360036843F4004303
:102608000360036A23F070430362036A43F0504394
:1026180003620868324B20F470200860086840F4B0
:1026280020200860486A20F0FF004862486A40F0AD
:10263800DD004862186820F0C0001860186840F093
:1026480080001860186A20F470401862186A40F414
:1026580050401862D1F80008224B20F47C50C1F891
:102668000008D1F8000840F42850C1F80008D1F853
:10267800200820F07F6020F47020C1F82008D1F8ED
:10268800200840F05D6040F45020C1F82008516BEC
:1026980041F001015163516941F0010151615169F2
:1026A800002421F0010151611C601A685DF8044B97
:1026B80042F080021A601A6842F040021A601A68F2
:1026C80042F020021A601A6842F002021A6070474B
:1026D80000380240000002400004024000080240A6
:1026E800000C0240000005502DE9F0416048FEF75B
:1026F800A3F960490B691D060AD45F4B01E0013B51
:1027080006D300BF0A691406F9D5002B00F08380B0
:10271800584E5A48FEF790F9316911F0800100F0DF
:102728009A80574B574ADFF89081574FDFF88CE172
:10273800DFF880C1002401E0013B04D310694006A2
:10274800FAD5002B6CD01069D8F810103D69DEF866
:102758001050890901F00C01C0F34120084305F02D
:10276800600108432CF814006546013402E0002B90
:102778004BD003461169490603F1FF30F7D431699C
:10278800090605D5591E2BB10B46B4F5964FD5D180
:10279800002B45D03D482146FEF74EF93C48FEF750
:1027A8004BF93B48FEF748F93A483B4FFEF744F9E6
:1027B800002601E0A64246D035F81610384689B200
:1027C8000136FEF739F90A2EF4D13448FEF734F908
:1027D8003348FEF731F90A2C264638BF0A260A3E46
:1027E800A64209D22C4F35F81610384689B2013660
:1027F800FEF722F9A642F6D12848FEF71DF9214630
:102808002848BDE8F041FEF717B933691B06C1D562
:102818006FF00103B9E7BDE8F0412348FEF70CB9B2
:102828002248FEF709F919482146FEF705F9184824
:10283800FEF702F91648FEF7FFF8B4B9BDE8F04113
:102848001B48FEF7F9B81548FEF7F6F81448FEF7E6
:10285800F3F80026C6E70D48FEF7EEF80C48FEF739
:10286800EBF80B48FEF7E8F8E8E7124D9CE700BFE5
:10287800B0630008000402403F420F00F8630008FC
:102888007F96980000000240000C02402064000877
:10289800386400087C6400089064000894600008AC
:1028A80098640008AC640008D86300085C640008F9
:1028B800CC64000818000020000802400010024004
:1028C8002DE9F0411D4E1E481F237361336843F004
:1028D80001033360FEF7B0F83369DA072CD4194CDA
:1028E800194D1A4FDFF8748006E02B6000BF33697A
:1028F800DB0711D4013C10D32B68BB4203F1010361
:10290800F3D900232B60316932684046FEF794F80A
:1029180000BF3369DB07EDD52CB121460C48BDE873
:10292800F041FEF789B80B48FEF786F821460848BB
:10293800BDE8F041FEF780B8074CEEE7000005500F
:10294800E86400083F420F00789A0020A086010042
:10295800346500081865000840420F00006500084B
:1029680008B52F4B1B6959064CBF2E482E48FEF759
:1029780063F82B4B1B69DA064CBF2C482C48FEF732
:102988005BF82C4B1B691B064CBF2B482B48FEF7EA
:1029980053F8234B1B6998054CBF29482948FEF773
:1029A8004BF81F4B1B6959054CBF27482748FEF7B2
:1029B80043F8274B1B69DA054CBF26482648FEF723
:1029C8003BF8234B1B699B054CBF24482448FEF762
:1029D80033F8244B1B6918074CBF23482348FEF7DC
:1029E8002BF8234B1B69D9064CBF22482248FEF717
:1029F80023F81F4B1B699A064CBF20482048FEF756
:102A08001BF81B4B1B695B0604D5BDE808401D4835
:102A1800FEF712B8BDE808401B48FEF70DB800BF26
:102A2800000002405C6500086865000874650008DD
:102A380080650008000402408C650008986500085D
:102A4800A4650008B0650008B8650008C4650008FA
:102A580000080240CC650008D8650008E065000859
:102A6800EC650008000C0240F465000800660008E8
:102A78000010024008660008146600081C6600087A
:102A880028660008306600083C6600082DE9F04F0B
:102A98008BB08246FDF766FFDFF89C90DFF89C80DC
:102AA800099038E0DFF898C0204B29692A691B692A
:102AB8002C692D69D9F81060D9F81070D8F8100071
:102AC800DCF810E0D8F810B0D8F810C0C0F3001047
:102AD800CEF3C00ECCF3801CC7F34027C6F3002604
:102AE800C5F38025C4F34024CBF3401B0490CDE903
:102AF80005EB0F48CDF81CC0CDE90267CDE90045CC
:102B0800C3F3C013C2F30012C1F38011FDF794FFA1
:102B18000120FDF7F1FDFDF725FF099B054DC01AC2
:102B28005045BFD30BB0BDE8F08F00BF0004024092
:102B380044660008000002400008024000100240FD
:102B4800000C02404B0850F82300CB074CBF000C88
:102B580080B270474B4A4C4B116B4C4841F01F01F7
:102B68001163196821F4701121F44C511960196826
:102B780041F4201141F408511960596A21F47F6128
:102B88005962596A41F45D615962196A21F07061AC
:102B980021F470211962196A41F0506141F4502101
:102BA800196203683A4923F440430360036843F415
:102BB80000430360036A23F070430362036A43F02F
:102BC800504303620868334B20F47020086008689B
:102BD80040F420200860486A20F0FF004862486AF4
:102BE80040F0DD004862186820F0C00018601868DE
:102BF80040F080001860186A20F470401862186A63
:102C080040F450401862D1F80008234B20F47C505F
:102C1800C1F80008D1F8000840F42850C1F80008AD
:102C2800D1F8200820F07F6020F47020C1F8200837
:102C3800D1F8200840F05D6040F45020C1F8200829
:102C4800516B41F001015163516941F0010151613A
:102C5800516921F0010151611A6842F080021A603D
:102C68001A6822F020021A601A6842F040021A60BC
:102C78001A6842F002021A601A6842F480421A6026
:102C8800704700BF003802400000024000040240C4
:102C980000080240000C024000000550144B154A81
:102CA8004FF0FF315961936A23F001039362936AED
:102CB800D907FCD44FF41653D362936A0C480D49D4
:102CC80043F00103936202680B4B42F00102026079
:102CD80001E0013B09D00A681205FAD58B6807485C
:102CE80043F400638B60FDF7A7BE0548FDF7A4BE5B
:102CF8000000055000640240404B4C00B4660008D8
:102D08009C66000870B50C480C4C0D4D0D4EFDF737
:102D180093FE01E0013C0AD06B68DB07FAD5A96A8B
:102D28000029F7D03046FDF787FE013CF4D1BDE815
:102D380070400548FDF780BEE066000820A1070046
:102D4800000005500C6700082867000808B51E48F1
:102D5800FDF772FE1D48FDF76FFE1D4A1369180640
:102D6800FCD51C48FDF768FE1B4A936A23F0010353
:102D78009362936AD907FCD44FF41653D362936ACB
:102D8800164843F001039362FDF756FE144A1548AE
:102D9800136843F001031360FDF74EFE124B0E4912
:102DA80001E0013B0BD00A681205FAD58B680F4881
:102DB80043F400638B60BDE80840FDF73DBEBDE805
:102DC80008400B48FDF738BE3C67000870670008EC
:102DD800000402408867000800640240A0670008F9
:102DE80000000550C4670008404B4C00B46600085A
:102DF8009C6600080F4B00221A605A60DA60196856
:102E08000D4A41F4804141F002011960936A23F0B0
:102E180001039362936ADB07FCD493684FF416515D
:102E280043F400639360D162936A43F001039362B1
:102E3800FEF77EBA000005500064024030B526480F
:102E4800264D0C4683B0FDF7F7FD64084FF4746314
:102E5800AB60EC62AB6A224A224C43F00103AB62DE
:102E6800136843F00303136003E0013C16D3002CFE
:102E78002ED02B681B05F8D584B91B48FDF7DCFD5F
:102E8800A96A1A48EA6AFDF7D7FD154B1848196868
:102E98005A6803B0BDE83040FDF7CEBD0F4B15486A
:102EA8004FF400629A60D96AFDF7C6FD0C4B1248D0
:102EB800596801F001030093C1F38002C1F3400394
:102EC800FDF7BAFD0D4803B0BDE83040FDF7B4BDCD
:102ED8000B48FDF7B1FDCCE7E0670008006402404D
:102EE800000005508096980024680008446800088F
:102EF800606800087C68000894680008CC680008CE
:102F080000680008024A136843F001031360704721
:102F18000000055070B5374884B00C46FDF78CFDAD
:102F2800354836494FF4746364088360C462836A21
:102F380043F0010383620A68314B42F003020A60DE
:102F480001E0013B04D302681205FAD5002B4AD0F0
:102F5800294E2A4C2B484FF40063B360236823F0B2
:102F680001032360F16AFDF767FD6168A5682648DB
:102F7800246901F001030093C1F38002C1F3400307
:102F8800FDF75AFDC5F30012C5F3C003CDE90132C0
:102F9800C5F38002C5F340030092294605F00102FB
:102FA8001A48FDF749FDC4F30012C4F3C003C4F383
:102FB8008000CDE901322146C4F3400304F0010248
:102FC80000901348FDF738FDB16A1248F26AFDF720
:102FD80033FD31681048FDF72FFD104804B0BDE8F7
:102FE8007040FDF729BD0E4804B0BDE87040FDF7FC
:102FF80023BD00BFE06700080064024000000550E0
:10300800809698007C680008E8680008186900083D
:103018005869000898690008C0690008CC68000869
:103028002468000830B42A4C2A4B226B42F48002F0
:10303800226300229A629A6AD207FCD44FF474621F
:103048009A609A6A244C42F000729A629D6A25F44A
:1030580080259D624A08996A41F440319962996ACB
:1030680041F400519962996A41F480519962996AD0
:1030780041F480619962996A21F400719962996AB0
:1030880021F480719962996A21F0C0019962996A64
:1030980021F020019962996A41F010019962996AB8
:1030A80041F008019962996A41F004019962996AAC
:1030B80041F002019962DA621C635863DA6B22F00C
:1030C8000402DA639A6A42F0010230BC9A627047DD
:1030D80000380240006402402800055010B42E4C0D
:1030E8002E4B226B42F48002226300229A629A6A73
:1030F80012F00102FBD14FF474649C609C6A44F0A6
:1031080000749C629C6A24F480249C629C6A44F447
:1031180040349C629C6A44F400549C629C6A44F467
:1031280080549C629C6A44F480649C629C6A24F487
:1031380000749C629C6A44F480749C629C6A24F0CB
:10314800C0049C629C6A24F020049C629C6A44F03F
:1031580010049C629C6A44F008049C629C6A44F0D7
:1031680004049C629C6A44F002049C6249080C4C6A
:10317800D9621C635863D96B0A484FF0007421F078
:103188000401D963446080F839239A6A5DF8044BD6
:1031980042F001029A62704700380240006402401F
:1031A8002800055000E100E030B42E4C236B43F4B6
:1031B800800323632C4B00249C629C6A14F0010456
:1031C800FBD14FF474659D609D6A45F000759D6262
:1031D8009D6A45F480259D629D6A45F440359D624F
:1031E8009D6A45F400559D629D6A45F480559D622F
:1031F8009D6A45F480659D629D6A25F400759D620F
:103208009D6A45F480759D629D6A25F0C0059D62A2
:103218009D6A25F020059D629D6A45F010059D6216
:103228009D6A45F008059D629D6A45F004059D620A
:103238009D6A520845F002059D62DA620B4A1A63DC
:1032480058639963DA6B0A4922F004024FF0007060
:10325800DA63486081F839439A6A42F0010230BC67
:103268009A62704700380240006402402800055006
:1032780000E100E02DE9F04F9FB08046FDF772FBBA
:103288000026CDF84480CDE90E66CDE90C66CDE97F
:103298000A66CDE90866CDE90666CDE90466CDE99A
:1032A8000266CDE91A66CDE91866CDE91666CDE95C
:1032B80013660196B246B3463746354634461296EB
:1032C80010961590B146B04662E01296012114F0AE
:1032D8001006179177D1012113F0800313961991E5
:1032E80077D001231A931493069BC2F3C00943EACB
:1032F80009030693019BC4F3402633430193029BC1
:10330800C4F3802423430293039BC5F300273B4364
:103318000393049BC5F340252B430493059BC0F3FB
:10332800001B43EA0B030593079BC0F3401843EACD
:1033380008030793089BC0F3801A43EA0A0308931B
:10334800099B86F00100034309930A9B84F001005E
:1033580003430A930B9B87F0010003430B930C9BD9
:1033680085F0010003430C930D9B8BF00100034390
:103378000D930E9B89F0010003430E930F9B88F079
:10338800010003430F93109B8AF00100034310933D
:10339800FDF7E8FA159BC01A119B984224D20F4BEF
:1033A8000F491C690F4A03F5806314F040061B6936
:1033B8000D691269D1F8100887D0012114F01006A0
:1033C8001691129187D0012113F08003189113915F
:1033D80087D1149301231B9386E700BF00000240A6
:1033E80000080240000C024015961D975F46C34630
:1033F800DDE910689148CDF870904146FDF71CFB57
:103408008F4B129A8F499048DFF8CC92DFF8CC8224
:10341800002A18BF1946FDF70FFB169A8B48002A99
:103428000CBF49464146FDF707FB179A8848002A12
:103438000CBF49464146FDF7FFFA814B139A814973
:103448008448002A18BF1946FDF7F6FA189A8248E8
:10345800002A0CBF49464146FDF7EEFA199A7F4803
:10346800002A0CBF49464146FDF7E6FA744B149A08
:1034780074497B48002A18BF1946FDF7DDFA1A9AE5
:103488007848002A0CBF49464146FDF7D5FA1B9AF1
:103498007548002A0CBF49464146FDF7CDFA684BEE
:1034A800159A68497148002A18BF1946FDF7C4FAE9
:1034B800019A6F48002A0CBF49464146FDF7BCFAFD
:1034C800099A6C48002A0CBF49464146FDF7B4FAF0
:1034D8005B4B5C496848002C18BF1946FDF7ACFAED
:1034E800029A6648564C002A0CBF49464146FDF7E9
:1034F800A3FA0A9A6248002A0CBF49464146FDF7DA
:103508009BFA1D9B4F495F48002B18BF2146FDF7CA
:1035180093FA039B5C48002B0CBF49464146FDF7D4
:103528008BFA0B9B5948002B0CBF49464146FDF7C7
:1035380083FA44495648002D18BF2146FDF77CFA06
:10354800049B5448002B0CBF49464146FDF774FACA
:103558000C9B5148002B0CBF49464146FDF76CFABD
:1035680038494E48002F18BF2146FDF765FA059BDC
:103578004B48002B0CBF49464146FDF75DFA0D9BB1
:103588004848002B0CBF49464146FDF755FA1C9A9E
:103598002C494548002A18BF2146FDF74DFA069BDD
:1035A8004248002B0CBF49464146FDF745FA0E9BA1
:1035B8003F48002B0CBF49464146FDF73DFA2149DB
:1035C8003C48BBF1000F18BF2146FDF735FA079BB1
:1035D8003948002B0CBF49464146FDF72DFA0F9B91
:1035E8003648002B0CBF49464146FDF725FA1549D8
:1035F8003348BAF1000F18BF2146FDF71DFA089BA2
:103608003048002B0CBF49464146FDF715FA002EFD
:103618000CBF494641462C48FDF70EFA2B48FDF7EA
:103628000BFA2B4B2B4819685A6A1B69FDF704FAE9
:1036380026481FB0BDE8F04FFDF7FEB9E86900085D
:10364800D4690008DC690008106A00081C6A0008D0
:10365800346A00084C6A0008586A0008706A000852
:10366800886A0008946A0008AC6A0008C46A0008FE
:10367800D06A0008E46A0008F86A0008046B0008C9
:10368800186B00082C6B0008386B00084C6B00089E
:10369800606B00086C6B0008806B0008946B000876
:1036A800A06B0008B46B0008C86B0008D46B000856
:1036B800E86B0008FC6B0008086C00081C6C00082C
:1036C800306C00083C6C0008506C0008646C000802
:1036D800000002408C6C0008E4690008E0690008FA
:1036E8002DE9F04F8BB082460991FDF73BF9DFF8E1
:1036F800A090DFF8A080089036E039693A69D9F8D7
:103708001030D9F81040D8F810503669D8F81000A1
:10371800D8F810C0D7F810E03F69C7F3001B184F5E
:103728003F69C0F34010CCF3801CCEF3801EC6F373
:10373800C006C5F30015C4F34024C7F3C0170390AF
:10374800CDE905EB0F48CDF810C0CDE90156C3F31C
:103758000023C2F38022C1F3402107970094FDF7AC
:103768006BF90998FCF7C8FFFDF7FCF8089B064FB2
:10377800064EC01A5045C0D30BB0BDE8F08F00BF4D
:1037880000040240B86C000800000240000C02402F
:103798000008024000100240374B70B51C6B14F44F
:1037A800800406460D4663D00124344B344A196B15
:1037B800914204D0196B3348FDF73EF900242F4B92
:1037C8005A6B964204D0596B2F48FDF735F90024FF
:1037D8002A4BDA6AAA4204D0D96A2C48FDF72CF998
:1037E8000024264B9D6AC5F34263012B03D0284869
:1037F800FDF722F9002415F4806634D005F0C003E3
:10380800402B03D02348FDF717F9002405F4C053D3
:10381800B3F5006F03D02048FDF70EF9002405F436
:10382800C043B3F5005F12D115F4403F07D0EB0752
:1038380015D54CB11948FDF7FFF8204670BD18485A
:10384800FDF7FAF8E9070AD50024204670BD1548A7
:10385800FDF7F2F815F4403FF1D0EA07F4D4124826
:10386800FDF7EAF8F0E71148FDF7E6F83446C5E752
:103878000F48FDF7E1F898E700380240006402407D
:10388800280005501C6D00083C6D00085C6D0008A0
:103898007C6D0008BC6D0008F46D0008806E00089F
:1038A800346E0008146E00085C6E0008A06D0008F5
:1038B800FC6C0008F0B50C4C0C4F83B0A61D14F836
:1038C800015B012201A92846FDF7D8FC9DF80420D8
:1038D80038462946FDF7B0F80220FCF70DFFB44240
:1038E800EDD103B0F0BD00BF505D0008A06E000828
:1038F8002DE9F043642083B0FCF7FEFEDFF88C80EE
:103908000027BBB208EB430218F813405678FF2C87
:1039180007D1FF2E29D11A48FDF78EF803B0BDE86C
:10392800F083122C0ABF4FF00009B1464E4603251A
:103938002046012201A9FDF7A1FC9DF80430B342FD
:103948004FF0010015D0FCF7D7FE013DF0D19DF8EE
:10395800042096420DD00B484B462146FDF76CF8E3
:103968000220FCF7C9FE0137CBE76420FCF7C4FE50
:10397800F9E705484A462146FDF75EF8F0E700BF3B
:10398800FC6E0008D06E0008B46E0008145D0008D4
:103998002DE9F04F444D45481F238BB06B61FDF76F
:1039A8004BF829684248FDF747F8696A4148FDF72E
:1039B80043F8296A4048FDF73FF869683F48FDF732
:1039C8003BF829693E48FDF737F82B683D4843F036
:1039D80001032B602968FDF72FF82B6913F0010309
:1039E80051D1394C394E05E000BF2A69D20749D474
:1039F800013C48D3364A01339342F5D12969354809
:103A08002A68FDF719F8DFF8E4E0DEF81010DEF8B0
:103A1800102033693769D6F810C03069C0F3C00088
:103A280009902D48D0F81080D0F81090DEF810A03A
:103A3800D6F810B0D6F810E009980290CCF3800CB4
:103A4800CEF3401EC7F34007C8F38018C9F3C01966
:103A5800CAF3801ACBF3001BCDE905ABCDE9038986
:103A6800CDE9007C1D48CDF81CE003F00103C2F34A
:103A78008022C1F34021FCF7DFFF002300BF2A6941
:103A8800D207B5D55CB1084B154819691A68FCF717
:103A9800D3FF14480BB0BDE8F04FFCF7CDBF124878
:103AA800FCF7CAFFEFE700BF000005501C6F0008D5
:103AB800386F0008486F0008586F00086C6F0008DE
:103AC8007C6F00088C6F00083F420F000004024022
:103AD800A1860100AC6F000800080240C86F00080A
:103AE80014700008407000081865000800000240C3
:103AF8002DE9F8430E4609B30027DFF85490DFF8A4
:103B08005480851E3C4606E00134FCF795FFA6422A
:103B180007F101070BD035F8022F21464046002A4D
:103B2800F2D048460134FCF787FFA642F3D132466B
:103B380039460648BDE8F843FCF77EBF0F463246D3
:103B480039460248BDE8F843FCF776BF887000089C
:103B5800747000085870000800B5084B0848596888
:103B680083B0C1F380030093C1F3400201F0010365
:103B7800FCF762FF03B05DF804FB00BF00000550CE
:103B8800BC7000082DE9F0471E4B1F4DDFF884A0DC
:103B9800DFF88490DFF8848093E807008AB004ACEB
:103BA80003C424F8022B110C217095E8070007AB19
:103BB80003C323F8022B110C14481970FCF73CFFBF
:103BC80004AC07AE0DF11B0714F8015B01220DF1DF
:103BD8000F012846FDF752FB9DF80F1016F8013B20
:103BE800994214BF504648460A4600902946404626
:103BF800FCF722FFBC42E7D10548FCF71DFF0AB0DD
:103C0800BDE8F08764710008585D0008FC70000882
:103C18004C710008F0700008E87000081C7100087A
:103C28002DE9F04F89B00090FCF79CFE0023CDE908
:103C38000103CDE90333994605931E461D46984670
:103C48001F469A46FCF78EFE019BC01A009B9842BD
:103C58005DD2444B444A196903F580631B691469B2
:103C680003F0800C414B1B694FEAD30E404B186997
:103C780000224B0A63F307024FEA101B00236BF381
:103C880007036EF30F234FEA912E6EF30F2201F014
:103C9800400EBEF1000F01F010010CBF4FF00108FB
:103CA800012700294FEA142161F317424FEA5424EF
:103CB80064F31F6202F0013206924FEA501262F377
:103CC80017434FEA901060F31F6303F001330CBFF2
:103CD8004FF001090126BCF1000F079314BF4FF004
:103CE800010A01250DF1170302A904AA0DF11F0C01
:103CF800012406E00C709C4501F1010102F101026A
:103D0800A0D013F8010F0028F4D11470F3E7194676
:103D18001848FCF791FE39461748184F4246FCF7F9
:103D28008BFE314616484A46FCF786FE2A46154859
:103D38005146FCF781FE0DF107060DF10F05002431
:103D4800214615F8013F16F8012F38460134FCF7D3
:103D580073FE082CF4D10C4809B0BDE8F04FFCF70D
:103D68006BBE00BF0000024000080240000C024089
:103D7800001002407071000898710008F87100087E
:103D8800B8710008D87100081872000878B1F8B541
:103D9800074F084E0546002437F81420214692B2F2
:103DA80030460134FCF748FEA542F5D1F8BD70470E
:103DB800180000204072000870B52048204D214EA0
:103DC80082B0FCF739FE2048FCF736FE002435F8AF
:103DD8001420214692B230460134FCF72DFE0A2CFD
:103DE800F5D11A48174EFCF727FE42F2765435F8FB
:103DF8001420214692B230460134FCF71DFEB4F57A
:103E0800165FF4D11248134C01690269036900690D
:103E18002469C0F30010C4F3C0140090C3F38013E6
:103E28000D480194C2F38022C1F34021FCF704FE3F
:103E38000A4802B0BDE87040FCF7FEBD54720008A5
:103E48001800002040720008707200088472000890
:103E5800000002400004024098720008DC6200087A
:103E6800F8B500240F4D104F264603E00134B4F591
:103E7800165F11D035F814309BB2002BF6D035F808
:103E88001420214692B238460134FCF7D5FDB4F52A
:103E9800165F06F10106EDD131460448BDE8F84049
:103EA800FCF7CABD18000020C8720008E4720008B8
:103EB800174870B5FCF7C0FD1649174B0A681F2054
:103EC80022F001020A6048610A6842F001020A60B1
:103ED80001E0013B17D08A68D207FAD50D4D0F4E85
:103EE800002405E0AA6A0134FCF7A6FD322C04D0B0
:103EF8006B685B0721463046F4D421460848BDE884
:103F08007040FCF799BDBDE870400648FCF794BDC9
:103F18000473000800000550404B4C004C73000827
:103F280064730008307300082DE9F84F4348444C87
:103F3800FCF782FD4FF002084FF00009414E0027C0
:103F4800736943F001037361736923F001037361BB
:103F5800C4F80090236843F480432360236843F047
:103F680002032360236843F040032360B8F1020F83
:103F7800236842D043F0800323602368002F56D083
:103F880043F020033049314A23603148FCF754FD9F
:103F98002268304B42F00102226001E0013B28D048
:103FA8002269D207FAD56369DFF8C4A0002543F077
:103FB80001036361AB4663685B07FCD5A26A5AB923
:103FC8000135142DF7D1BBF1000F21D02248FCF7A1
:103FD80033FD47B90127B3E7294650460BF1010BDA
:103FE800FCF72AFDECE7B8F1010F15D04FF00108F6
:103FF800A4E71A48FCF720FDEBE723F080032360D1
:10400800236877B143F020031549104A2360BCE7C1
:104018001448FCF711FDDCE7BDE8F84F1248FCF73F
:104028000BBD23F020030E49104A2360ADE723F0AF
:10403800200305490D4A2360A7E700BF94730008D1
:104048000000055000380240D46900088473000855
:10405800BC73000840420F00F47300085C74000849
:10406800DC69000818740008447400088C730008A0
:10407800E073000810B5174C1748FCF7DDFC2368FF
:104088001648002223F4804323602260236843F00B
:1040980002032360236843F480432360236843F0CA
:1040A80001032360FCF7C8FC0D4B013B0CD0626890
:1040B8005207FAD5A16A0B4889B2FCF7BDFCBDE8E6
:1040C80010400948FCF7B8BCBDE810400748FCF7A9
:1040D800B3BC00BF0000055078740008C46700082E
:1040E80041420F00A4740008B8740008E074000886
:1040F8002DE9F0419EB01949194FDFF86C80702204
:1041080002A801F0A1FB02AC1EAE002507E0FCF7F7
:1041180093FC08340A20FCF7EFFAB44217D0207851
:104128008DF807500DF107010122FDF7A7F8627815
:104138009DF8073061689A423846E8D14046FCF756
:104148007BFC08340A20FCF7D7FAB442E7D10548CB
:10415800FCF772FC1EB0BDE8F08100BF645D00088A
:104168002C75000858750008187500082DE9F04FDF
:104178004848494CDFF85C91484D494F89B04FF0A9
:104188000008FCF759FC4748FCF756FCCDE90588C0
:10419800CDE90288CDE900884FF47A76CDF8108011
:1041A800C246C346CDF81C802269910502D5079BFB
:1041B8000133079322695205D9F8102048BF0BF143
:1041C800010BD305D9F8102048BF0AF1010A900560
:1041D80002D5009B013300932A69D10602D5019BC1
:1041E800013301933A69520602D5029B01330293C7
:1041F8002A69930602D5039B013303932A69500663
:1042080002D5049B013304932269D10602D5059B8C
:10421800013305933A69120602D5069B01330693CA
:1042280022690120530648BF08F10108FCF764FA27
:10423800013EB9D107991C48FCF7FEFB59461B48BB
:10424800FCF7FAFB51461A48FCF7F6FB00991948A7
:10425800FCF7F2FB01991848FCF7EEFB02991748A6
:10426800FCF7EAFB03991648FCF7E6FB04991548A6
:10427800FCF7E2FB05991448FCF7DEFB06991348A6
:10428800FCF7DAFB1248414609B0BDE8F04FFCF7ED
:10429800D3BB00BF7C75000800000240001002403C
:1042A80000040240AC750008E475000800760008B8
:1042B800207600083C7600085876000874760008D6
:1042C80090760008AC760008C8760008E876000802
:1042D80008770008000802402DE9F04F3148DFF860
:1042E800E08087B0FCF7A8FB2F48FCF7A5FB2F4B15
:1042F8001F69D8F81060D8F810400023C7F3C0171A
:10430800C6F30016C4F3801402934FF4FA650193C0
:104318000393264B1B69D8F8101003F08000BB46A6
:10432800C3F3C0172346D8F81040324604F04009BA
:1043380001F0100AC1F30016C4F3801410B1BBF1E8
:10434800000F20D00120BAF1000F03D012B9019A52
:1043580002440192B9F1000F03D013B9029B013353
:104368000293FCF7C9F9013DD3D11148FCF764FB6E
:1043780003991048FCF760FB02990F4807B0BDE8A5
:10438800F04FFCF759BB01990C48CDE90423FCF721
:1043980053FB039BCDF804B001330393DDE90423F9
:1043A800D0E700BF287700084877000800040240DB
:1043B800A4770008B8770008D47700087877000851
:1043C800000002402DE9F04F2F48DFF8D8802F4D2C
:1043D80085B0FCF731FB2E48FCF72EFB2D4B1F69EF
:1043E800D8F81060D8F810400023C7F3C017C6F3F8
:1043F8000016C4F38014019302930093254B1A69A5
:10440800D8F81030B34603F0100AC3F30016234659
:10441800D8F8104002F08001384604F04009C2F391
:10442800C017C4F3801401B1A8B1BAF1000F02D0CB
:10443800BBF1000F1BD0B9F1000F03D013B9009BDB
:1044480001330093013DD9D11348029905B0BDE865
:10445800F04FFCF7F1BA0393029B019A01900133E4
:1044680019460E480293FCF7E7FA039BDDE703932E
:10447800019B009A0A48013319460193FCF7DCFABC
:10448800039BCDF800B0D6E7EC77000880841E00C7
:104498004877000800040240587800080C780008A3
:1044A8003C7800080000024070B55C485C4C5D4EEA
:1044B8005D4DFCF7C1FA5D48FCF7BEFAA26A5C4B99
:1044C8005C4812F0010F18BF1846FCF7B5FA5A48B5
:1044D800FCF7B2FAA26A594B594812F0C00F18BF3C
:1044E8001846FCF7A9FA5748FCF7A6FAA36A13F48A
:1044F800806F0CBF30462846FCF79EFA5248FCF7FE
:104508009BFAA36A13F4007F0CBF30462846FCF7D9
:1045180093FA4E48FCF790FAA36AC3F34133012B90
:1045280063D0022B75D0002B6FD04948FCF784FA72
:104538004848FCF781FA3A4B9B6AC3F3C123012B25
:104548005FD0022B59D0002B53D04148FCF774FAA6
:10455800334C4148E16A414E414DFCF76DFA616BBD
:104568004048FCF769FA216B3F48FCF765FA3F4879
:10457800FCF762FAA36A13F0100F0CBF3046284606
:10458800FCF75AFA3A48FCF757FAA36A13F0080FEF
:104598000CBF30462846FCF74FFA3648FCF74CFA71
:1045A800A36A13F0040F0CBF30462846FCF744FA00
:1045B8003148FCF741FAA26A1D4B1E4812F0020F5F
:1045C80018BF1846FCF738FA2C48FCF735FAE26BA6
:1045D800144B154812F0040F18BF1846FCF72CFAB4
:1045E800BDE870402648FCF727BA2648FCF724FAAD
:1045F8009EE72548FCF720FAAAE72448FCF71CFAAE
:10460800A6E72048FCF718FAA2E71F48FCF714FAB7
:104618008EE71E48FCF710FA8AE700BFEC7800081E
:1046280000640240D8780008CC78000810790008A7
:104638007C780008807800081C79000888780008D1
:10464800B4780008287900084479000864790008DB
:10465800847900089079000898790008E8780008BB
:10466800E4780008B8790008D8790008FC790008CF
:10467800107A0008187A0008207A00082C7A0008B6
:10468800447A0008747900086C7900087C7900087D
:104698002DE9F0419EB01949194FDFF86C8070225E
:1046A80002A801F0D1F802AC1EAE002507E0FCF725
:1046B800C3F908340A20FCF71FF8B44217D0207851
:1046C8008DF807500DF107010122FCF7D7FD62783C
:1046D8009DF8073061689A423846E8D14046FCF7B1
:1046E800ABF908340A20FCF707F8B442E7D10548CB
:1046F800FCF7A2F91EB0BDE8F08100BFD45D000848
:10470800887A0008B87A0008747A00082DE9F04F12
:104718008448DFF84892A3B04FF0000AFCF78CF900
:104728008148FCF789F9CDE903AACDE920AACDE9AA
:104738001EAACDE91CAACDE91AAACDE918AA4FF4F8
:104748007A730193CDF808A0544655465646574605
:10475800D046D346CDF85CA0CDF814A0059B1093A5
:10476800029B0F93039B0E93049BCDE915B8CDE9EB
:104778000CA3DFF8EC816D4BD8F810E0D8F810B036
:10478800CDE91367A3F58063D3F81074D3F81064E8
:10479800CDE91145D9F810501C69D9F81000D9F89D
:1047A8001010D8F810201B6904930EF40073D8F881
:1047B80010A0069306F40073079305F010030893FE
:1047C80004F04003099300F02003C0F340100A935B
:1047D8000590049B01F04000C1F38011029102F0A2
:1047E8001001C2F30012039203F08002C3F3C01356
:1047F80004930AF040030B93069BCEF3402807F47A
:10480800807C0BF4806EC7F30027CBF3802BC6F3B4
:104818004026C5F30015C4F38014CAF3801A23B1E7
:10482800169B13B9179B01331793BEF1000F04D0E1
:10483800159B13B9189B01331893BCF1000F04D0D2
:10484800149B13B9199B01331993079B23B1139B2D
:1048580013B91A9B01331A93089B23B1129B13B9FE
:104868001B9B01331B93099B23B1119B13B91C9B01
:1048780001331C930A9B23B1109B13B91D9B013371
:104888001D9320B10F9B13B91E9B01331E9321B1B9
:104898000E9B13B91F9B01331F9322B10D9B13B9B4
:1048A800209B013320930B9B23B10C9B13B9219BB5
:1048B800013321930120FBF71FFF019B013B01936B
:1048C8007FF44CAF17991A48FCF7B6F818991948AD
:1048D800FCF7B2F819991848FCF7AEF81A99174876
:1048E800FCF7AAF81B991648FCF7A6F81C99154876
:1048F800FCF7A2F81D991448FCF79EF81E99134876
:10490800FCF79AF81F991248FCF796F82099114875
:10491800FCF792F82199104823B0BDE8F04FFCF756
:104928008BB800BFFC7A0008AC750008000802408C
:10493800307B0008447B00085C7B0008707B000823
:10494800847B0008987B0008AC7B0008C07B0008CB
:10495800D47B0008E87B0008FC7B000800100240BC
:104968000000024070B5244C24482168244E254D8F
:10497800FCF762F82368244813F0400F0CBF314657
:104988002946FCF759F82368204813F0800F0CBF1C
:1049980031462946FCF750F822681D4B1D491E4830
:1049A80012F0200F18BF1946FCF746F821681B487B
:1049B800C1F30011FCF740F821681948C1F3C001A0
:1049C800FCF73AF821681748C1F38001FCF734F87E
:1049D8002268154B1549164812F0020F18BF1946E0
:1049E800FCF72AF821681348C1F38031FCF724F852
:1049F800BDE87040FFF78ABE00000550407C000803
:104A0800147C00080C7C0008547C0008687C0008B2
:104A1800187C0008207C00087C7C0008987C000832
:104A2800A47C0008B07C0008287C0008347C0008BE
:104A3800BC7C0008CC7C00082DE9F043234885B0F5
:104A4800866AC76AD0F83080456BD0F83C90046815
:104A58001F48FBF7F1FF04F4746443463A463146B5
:104A680000951C48CDF80490FBF7E6FFC4F38015C9
:104A7800C4F38022C4F30020C4F34023E10A164C97
:104A8800CDE900051548FBF7D7FFA36A14489BB288
:104A9800ADF80E30BDF80E1089B2FBF7CDFF2168D6
:104AA8006268236825682068C5F38015C0F3401044
:104AB800019000950B48C3F3C013FBF7BDFF0A48EC
:104AC80005B0BDE8F043FBF7B7BF00BF0064024084
:104AD800E07C0008007D000800000550407D0008CB
:104AE800787D0008907D0008CC7D000870B51D4BCE
:104AF8001D485E689D681C6984B0FBF79DFF06F041
:104B08000102C6F3400300923146C6F380021748FB
:104B1800FBF792FFC5F30012C5F3C003C5F380008D
:104B2800CDE901322946C5F3400305F001020090A2
:104B38000F48FBF781FFC4F30011C4F3C002C4F3AC
:104B48008003CDE9012100930A48C4F3400304F02F
:104B580001022146FBF770FF074804B0BDE870402A
:104B6800FBF76ABF00000550EC7D0008E868000804
:104B78001869000858690008DC620008F8B505469D
:104B8800AA200F46FBF732FF5520FBF72FFF6FB126
:104B980000262C8835F8020BA4B2C0B2FBF726FF1A
:104BA8000136200AFBF722FFB742F2D1F8BD00BF59
:104BB80030B5124C636983B001F01F0123F4006320
:104BC80041F0200163618DF80710636923F4805375
:104BD8006361054601210DF1070000F08DFD0521F7
:104BE800284600F089FD636943F480536361636973
:104BF80043F40063636103B030BD00BF00040240AA
:104C080010B500F01F0084B00D4C8DF8071040F06F
:104C180020008DF80F00636923F4805363610DF160
:104C28000F00012100F068FD01210DF1070000F0DF
:104C380063FD636943F48053636104B010BD00BF32
:104C48000004024010B51F491F4C82B00B220020FF
:104C580020238DF8062008708DF80730636923F447
:104C6800805363610DF10700012100F045FD01212A
:104C78000DF1060000F040FD636943F48053636161
:104C8800636943F4006363618220FBF775FD30229A
:104C980027238DF806208DF80730636923F48053A5
:104CA80063610DF10700012100F026FD01210DF1DE
:104CB800060000F021FD636943F48053636102B08C
:104CC80010BD00BF7CC601200004024070B5674DCE
:104CD800674A68706978674CA2F1080382B00029B6
:104CE80018BF134610206B6000F088FC236823F47B
:104CF80040032360236843F480032360636823F43C
:104D080040036360A36843F40003A360636923F46A
:104D180000636361636943F4805363616420FBF754
:104D2800EBFC06238DF80630636923F48053636136
:104D38000DF10600012100F0DFFC0DF10700012153
:104D480000F0F0FC636943F4805363619DF8073019
:104D580023F0260343F00E038DF8063026238DF842
:104D68000730636923F4805363610DF10700012163
:104D780000F0C2FC0DF10600012100F0BDFC6369E2
:104D88006D6843F480536361636923F4006363616E
:104D98002B238DF80730636923F4805363610DF189
:104DA8000700012100F0A8FC2846052100F0A4FC1A
:104DB800636943F480536361636943F400630125C5
:104DC800636125238DF806508DF80730636923F455
:104DD8008053636129460DF1070000F08DFC2946D8
:104DE8000DF1060000F088FC636943F480536361A9
:104DF800202631238DF806608DF80730636923F487
:104E08008053636129460DF1070000F075FC2946BF
:104E18000DF1060000F070FC636943F48053636190
:104E280032238DF806608DF80730636923F48053C8
:104E380063610DF10700294600F05EFC29460DF17B
:104E4800060000F059FC636943F480536361FFF77F
:104E5800F9FE636923F480536361E22000F03AFCB1
:104E6800636943F48053636102B070BD7CC601205E
:104E7800C45E00080004024010B5064C636923F4C0
:104E880080536361E22000F025FC636943F480539A
:104E9800636110BD0004024030B583B0154C2A236D
:104EA8008DF80730636923F48053054663610DF17B
:104EB8000700012100F020FC2846052100F01CFC19
:104EC8006369302243F4805363618DF80720636976
:104ED80023F4805363610DF10700012100F00CFCFD
:104EE8000521284600F008FC636943F48053636198
:104EF80003B030BD0004024010B584B00D4C00F082
:104F08001F008DF80700636923F4805363610DF176
:104F18000700012100F0F0FB0DF10F00012100F066
:104F280001FC636943F4805363619DF80F0004B08A
:104F380010BD00BF000402402DE9F04383B0804655
:104F4800FBF710FD3D4E3E4C054607271CE08DF84B
:104F58000670636923F48053636100F0CDFB494612
:104F68000DF1070000F0DEFB636943F480536361D1
:104F78009DF8073013F0300F4FF47A71284653D15B
:104F8800FBF7F6FC002852D033785FFA83F9012B3F
:104F98000DF106004946DAD0294C6369012523F44E
:104FA8000063636135700A2320268DF807608DF849
:104FB8000630636923F48053636129460DF10700C5
:104FC80000F09AFB29460DF1060000F095FB636995
:104FD80043F480536361636923F480536361E12080
:104FE80000F078FB636943F480536361636923F4D9
:104FF800805363612946A0230DF107008DF807301F
:1050080000F07AFB3146404600F076FB636943F4D2
:1050180080536361636943F4006382206361FBF733
:10502800ABFB03B0BDE8F08300233370B4E7054859
:1050380003B0BDE8F043FBF7FFBC00BF7CC601200E
:1050480000040240FC7E000830B5144B1B78012B8D
:1050580083B003D00024204603B030BD104DDCB22D
:1050680007238DF806306B6923F480536B610DF1CB
:105078000600214600F040FB21460DF1070000F034
:1050880051FB6B6943F480536B619DF8073013F053
:10509800300FE0D0FFF7D6FDDCE700BF7CC601206B
:1050A800000402402DE9F04182B0324D0E4604461C
:1050B800FBF758FC2A238DF807306B6923F48053DB
:1050C8006B61012107460DF1070000F015FB052172
:1050D800204600F011FB6B6943F480536B61302369
:1050E8008DF807306B6923F480536B6101210DF152
:1050F800070000F001FB2046052100F0FDFA6B696E
:1051080043F4805330466B61FFF716FF1A4E4FF099
:1051180007083378012BDCB204D00024204602B003
:10512800BDE8F0818DF806806B6923F480536B61CC
:1051380021460DF1060000F0DFFA21460DF10700C7
:1051480000F0F0FA6B6943F480536B619DF8073007
:1051580013F0300F4FF06401384607D1FBF708FC15
:105168000028D6D1204602B0BDE8F081FFF76AFDDD
:10517800D3E700BF000402407CC6012010B582B00E
:105188001C4C07238DF80630636923F48053636150
:1051980001210DF1060000F0AFFA01210DF1070021
:1051A80000F0C0FA636943F4805363619DF80730E7
:1051B8005B0602D5012002B010BD17238DF806301A
:1051C800636923F4805363610DF10600012100F047
:1051D80093FA0DF10700012100F0A4FA636943F482
:1051E800805363619DF80700C04300F0010002B0DE
:1051F80010BD00BF0004024030B5184C636983B08D
:1052080023F480536361054661230DF105000121F4
:105218008DF8053000F070FA2846202100F082FA57
:1052280063692722402143F4805363618DF8061097
:105238008DF80720636923F4805363610DF107003B
:10524800012100F059FA01210DF1060000F054FA8D
:10525800636943F48053636103B030BD00040240C6
:105268002DE9F041434C82B0064620200D4600F05F
:10527800C5F9236823F440032360236843F48003BB
:105288002360636823F400636360A36843F4000346
:10529800A360E36823F44003E360636923F40063D5
:1052A8006361636943F4805363610A2720238DF89F
:1052B80004708DF80330636923F4805363610DF142
:1052C8000300012100F018FA012101A800F014FAE6
:1052D800636943F48053636140F2DC50FBF74CFA96
:1052E800636923F4006363614FF0260897238DF800
:1052F80003808DF80430636923F4805363610DF1F2
:105308000300012100F0F8F9012101A800F0F4F9E7
:10531800636943F4805363613846FBF72DFA636988
:1053280023F4006363618DF803808DF8045063698A
:1053380023F4805363610DF10300012100F0DCF9CF
:10534800E9B201A800F0D8F9636943F480533846FC
:105358006361FBF711FA636943F4006363613046E4
:10536800FBF7CAF9636923F40063636102B0BDE81F
:10537800F08100BF0004024070B500F01F0082B049
:105388000C4C40F020008DF80700636923F480532B
:10539800164663610D460DF10700012100F0ACF9D6
:1053A8003146284600F0A8F9636943F480536361E5
:1053B80002B070BD0004024010B5064C636923F4C6
:1053C80080536361E12000F085F9636943F48053F9
:1053D800636110BD0004024030B50F490F4C83B023
:1053E80001250A2220230D708DF806208DF807303C
:1053F800636923F4805363610DF10700294600F0C7
:105408007BF929460DF1060000F076F9636943F44B
:105418008053636103B030BD7CC6012000040240A4
:1054280010B582B01A4C06238DF80630636923F450
:10543800805363610DF10600012100F05DF90DF163
:105448000700012100F06EF9636943F4805363613A
:105458009DF8073023F02603262243F00E038DF82B
:1054680007208DF80630636923F4805363610DF1DA
:105478000700012100F040F901210DF1060000F0BC
:105488003BF9636943F48053636102B010BD00BF08
:10549800000402402849294A294B10B40C6B44F0F7
:1054A80001040C63146844F428441460546824F01C
:1054B800E0045460946844F428449460D46824F464
:1054C8007C44D460146A44F0AA4444F4AA041462E4
:1054D8000C6B44F010040C631C6844F040041C601E
:1054E8005C6824F008045C609C6844F080049C605C
:1054F800DC6824F0C004DC605C6944F008045C618A
:105508004B6CA2F5504243F480534B6413889BB212
:1055180043F00403138013889BB243F44073138051
:1055280013889BB20343138013885DF8044B9BB226
:1055380043F04003138070470038024000000240E7
:1055480000100240084A0023938113899807FCD56C
:10555800054A1389D907FCD5034A13891B06FCD4CD
:105568009089C0B2704700BF00300140074A90815F
:1055780013899807FCD5054A1389D907FCD5034A2E
:1055880013891B06FCD49089C0B2704700300140D3
:105598000A4AA523938113899807FCD5074A1389DA
:1055A800D907FCD5054A13891B06FCD49089C0B2DB
:1055B800A0F1A500B0FA80F0400970470030014022
:1055C8000B4AA523938113899807FCD5084A1389A8
:1055D800D907FCD5064A13891B06FCD49389DBB28C
:1055E800A52B02D00348FBF727BA0348FBF724BAD8
:1055F80000300140147F0008087F000810B4284CD0
:10560800284B216B284A41F002012163196821F0D7
:105618007C411960196841F028411960596821F4E2
:1056280060415960996841F028419960D96821F032
:105638007C41D960596A41F0AA4141F4A0015962FC
:10564800196821F040711960196841F0807119607A
:10565800596821F480515960996841F00071996046
:10566800D96821F04071D960596941F48051596174
:10567800236C042143F480432364118013889BB274
:1056880043F44073138013885DF8044B9BB20343C3
:10569800138013889BB243F040031380704700BF08
:1056A800003802400004024000380040084A002345
:1056B800938113899807FCD5054A1389D907FCD526
:1056C800034A13891B06FCD49089C0B2704700BFF7
:1056D80000380040074A908113899807FCD5054A8D
:1056E8001389D907FCD5034A13891B06FCD4908972
:1056F800C0B270470038004081B1094B014410F82E
:10570800012B9A811A899207FCD51A89D207FCD5F0
:105718001A891206FCD488429A89F0D1704700BFD2
:105728000038004099B10A4B01444FF0000CA3F82F
:105738000CC01A899207FCD51A89D207FCD51A8998
:105748001206FCD49A8900F8012B8842EFD17047E1
:10575800003800400749084B0A6B42F004020A630C
:105768001A6822F440521A60DA6842F48052DA6009
:10577800704700BF0038024000080240034B1B6915
:105788005B065CBF01230370704700BF000802403E
:10579800547F000800000020489A0020489A002002
:1057A80084C60120002301461A46184600F038B97D
:1057B80008B50021044600F067F9044B1868C36B6C
:1057C80003B19847204602F0B7FB00BFCC5E000843
:1057D80038B5074D074C2C1BA41005D0013C55F8D3
:1057E800043D9847002CF9D1BDE8384002F09EBB33
:1057F800547F0008507F000870B50F4B0F4DAB4227
:10580800A3EB050607D0B610002455F8043B013475
:105818009847A642F9D802F083FB094D094B5E1B55
:10582800AB424FEAA60606D0002455F8043B0134E3
:105838009847A642F9D870BD487F0008487F0008FD
:10584800487F0008507F0008844641EA000313F0AF
:1058580003036DD1403A41D351F8043B40F8043B6F
:1058680051F8043B40F8043B51F8043B40F8043B32
:1058780051F8043B40F8043B51F8043B40F8043B22
:1058880051F8043B40F8043B51F8043B40F8043B12
:1058980051F8043B40F8043B51F8043B40F8043B02
:1058A80051F8043B40F8043B51F8043B40F8043BF2
:1058B80051F8043B40F8043B51F8043B40F8043BE2
:1058C80051F8043B40F8043B51F8043B40F8043BD2
:1058D80051F8043B40F8043B403ABDD2303211D372
:1058E80051F8043B40F8043B51F8043B40F8043BB2
:1058F80051F8043B40F8043B51F8043B40F8043BA2
:10590800103AEDD20C3205D351F8043B40F8043B71
:10591800043AF9D2043208D0D2071CBF11F8013B6F
:1059280000F8013B01D30B8803806046704700BF35
:10593800082A13D38B078DD010F003038AD0C3F144
:105948000403D21ADB071CBF11F8013B00F8013B26
:1059580080D331F8023B20F8023B7BE7043AD9D3E5
:10596800013A11F8013B00F8013BF9D20B780370BA
:105978004B7843708B78837060467047830730B5E7
:1059880047D0541E002A3ED0CAB2034601E0013C6B
:1059980039D303F8012B9D07F9D1032C2CD9CDB2AB
:1059A80005EB05250F2C05EB054535D9A4F11002AB
:1059B80022F00F0C03F1100EE6444FEA121C1A46AF
:1059C800156055609560D56010327245F8D10CF1BC
:1059D800010214F00C0F03EB021204F00F0C13D0A9
:1059E800ACF1040323F003030433134442F8045BCB
:1059F8009A42FBD10CF003042CB1C9B21C4403F841
:105A0800011B9C42FBD130BD64461346002CF4D1E7
:105A1800F9E703461446C0E71A46A446E0E700BF84
:105A280070B4184C2568D5F848411CB365681F2D1B
:105A380025DC38B9AB1C0135656044F8231000201B
:105A480070BC704704EB850C0228CCF88820D4F889
:105A580088614FF0010202FA05F246EA0206C4F82C
:105A68008861CCF80831E5D1D4F88C311343C4F8F7
:105A78008C31DFE705F5A674C5F84841D6E74FF045
:105A8800FF30DDE7CC5E00082DE9F04F294B1F6899
:105A980083B0D7F848610190B6B18B464FF0010842
:105AA8004FF000097468651E0ED4013406EB8404B7
:105AB800BBF1000F0BD0D4F800315B4507D0013D96
:105AC8006B1CA4F10404F3D103B0BDE8F08F736834
