:020000040800F2
:100000000000022039530008815300088153000882
:10001000815300088153000881530008000000004C
:1000200000000000000000000000000081530008F4
:10003000815300080000000081530008815300082C
:100040008153000881530008815300088153000840
:100050008153000881530008815300088153000830
:100060008153000881530008815300088153000820
:100070008153000881530008815300088153000810
:100080008153000881530008815300088153000800
:1000900081530008815300088153000881530008F0
:1000A00081530008815300088153000881530008E0
:1000B00081530008815300088153000881530008D0
:1000C00081530008815300088153000881530008C0
:1000D00081530008815300088153000881530008B0
:1000E00081530008815300088153000881530008A0
:1000F0008153000881530008815300088153000890
:10010000815300088153000881530008815300087F
:10011000815300088153000881530008FD0700083F
:10012000815300088153000881530008815300085F
:10013000815300088153000881530008815300084F
:10014000815300088153000881530008815300083F
:10015000815300088153000881530008815300082F
:10016000815300088153000881530008815300081F
:10017000815300088153000881530008815300080F
:080180008153000881530008BF
:100188000348044B834202D0034B03B1184770471E
:10019800489A0020489A0020000000000548064BB5
:1001A8001B1AD90F01EBA301491002D0034B03B16D
:1001B80018477047489A0020489A0020000000001D
:1001C80010B5064C237843B9FFF7DAFF044B13B197
:1001D8000448AFF300800123237010BD489A002023
:1001E800000000003475000808B5044B1BB1044931
:1001F8000448AFF30080BDE80840CFE700000000E6
:100208004C9A002034750008A3F5803A704700BF67
:10021800154B002B08BF114B9D46FFF7F5FF00213A
:100228008B460F461148124A121A04F01DFF0C4B58
:10023800002B00D098470B4B002B00D0984700208C
:10024800002104000D000B4804F022FE04F04AFED1
:100258002000290004F0E8FF04F020FE0000080058
:10026800000000000000000000000000489A002084
:10027800789A0020C54E000880B51D4E1D4F1E4DB2
:1002880088B04FF49641304602F08EFA4FF496410A
:10029800304604F055F845F2AA5369462846ADF8A9
:1002A8000030164C04F0AEFA002301E0BC4218D02E
:1002B80003F1200034F8021F03F121020DEB000CBA
:1002C8006A440233080A202B0CF8201C02F8200C80
:1002D800ECD16946284604F095FABC424FF0000379
:1002E800E6D1002BCDD06946284604F08BFAC8E742
:1002F80018000020169600206455000816000020FB
:10030800F0B589B00E46054645F2AA531948ADF82E
:100318000030694604F076FA1EB30023154F023DFB
:100328001C4601E0A6421BD003F1200135F802CF9C
:1003380003F121020DEB01006A4402334FEA1C214C
:10034800202B00F820CC04F1010402F8201CE9D18C
:100358006946384604F056FAA6424FF00003E3D146
:100368000BB909B0F0BD6946024804F04BFA09B070
:10037800F0BD00BF64550008F0B5054689B04E00D1
:100388000127002404F0AAFA0128FBD1684604F0EA
:10039800E3FA5FBBB4421FD26B4604F1200008E0C9
:1003A80001341A786A52844203F1010312D0A6423A
:1003B80012D024F0010214F0010F1146F0D093F886
:1003C80000C0A95A013441EA0C218442A95203F120
:1003D8000103ECD1A642D5D80A4800F085FA4FF4BB
:1003E8009641284603F0ACFF09B0F0BD9DF80030F7
:1003F800AA2BC7D19DF80130552B04BF0027002434
:10040800C0E700BF9C55000808B5034C4FF496415F
:100418002046FFF7B1FFF9E7180000204148424A9B
:10042800D0F8883043F47003C0F88830136800218E
:1004380043F00103136091601368A0F1BC2023F01E
:10044800847323F48033F03813605060136882B0EB
:1004580023F480231360D16000910191136843F461
:100468008033136003E0009BB3F5A06F09D01368D5
:1004780003F400330193009B01330093019B002B8D
:10048800F1D0294B1B6813F4003318BF01230193E3
:10049800019B012B14D0244A2449936823F40003B8
:1004A8009360C2F88410136843F080631360136884
:1004B8001B01FCD51B4B4FF000629A6002B07047DD
:1004C800194B1B491A6C1B4842F080521A640A687F
:1004D80042F480420A609A689A609A6842F400423C
:1004E8009A609A6842F4A0529A6058601A6842F07A
:1004F80080721A601A689201FCD50F4A40F20561B1
:100508001160996821F003019960996841F002012E
:10051800A2F580629960936803F00C03082BFAD166
:10052800B9E700BF00ED00E000380240804000302D
:100538000070004008544007003C0240164A936887
:1005480003F00C03042B0BD0082B0BD0134B124ACF
:1005580013499268C2F303128A5CD3400B61704757
:10056800104BF4E75368516813F4800F536814BFB5
:100578000C4A0A4AC3F3881301F03F01B2FBF1F2B7
:1005880002FB03F3044A5268C2F3014201325200EB
:10059800B3FBF2F3DBE700BF003802400024F400AD
:1005A8000400002000127A001D491E4A0B6C43F01B
:1005B80040030B644FF0530C4FF47A73A2F828C031
:1005C800D36213889BB243F084031380138823F00B
:1005D80010031B041B0C1380938A9BB243F0010386
:1005E800938213889BB243F00103138050B1138A9E
:1005F800DB07FCD5138A23F001031B041B0C01380D
:100608001382F4D10749064A0B8823F001031B041F
:100618001B0C0B80136C23F040031364704700BF5E
:1006280000380240001800401C491D4A0B6C43F07A
:1006380040030B644FF0030C1523A2F828C0D362C3
:1006480013889BB243F084031380138823F01003AC
:100658001B041B0C1380938A9BB243F00103938203
:1006680013889BB243F00103138050B1138ADB0750
:10067800FCD5138A23F001031B041B0C01381382D9
:10068800F4D10749054A0B8823F001031B041B0C0E
:100698000B80136C23F0400313647047003802404A
:1006A800001800400D490E4B0A6C4FF0530C42F0F5
:1006B80008024FF0FF300A64A3F828C0D8621A88ED
:1006C80092B242F084021A801A8822F07002120450
:1006D8000021120C1A809980596270470038024034
:1006E800000C0040054A938A9BB243F001039382B1
:1006F80013889BB243F0010313807047000C00403D
:10070800044A506A138823F001031B041B0C13804E
:10071800704700BF000C004013490A6C4FF080433B
:1007280042F001024FF0530C4FF0FF300A64A3F877
:1007380028C0D8621A8892B242F084021A801A88B5
:1007480022F0700212040021120C1A80998059625A
:100758009A8A92B242F001029A821A8892B242F0C0
:1007680001021A80704700BF003802404FF08043F2
:10077800586A70474FF080435B6A984205D808442E
:10078800984294BF002001207047013B181A884204
:100798002CBF0020012070471348144B026C42F014
:1007A8002002026400214FF0530C4FF47A70842227
:1007B800A3F828C0D8621A80998059629A8A0C488E
:1007C80092B242F001029A824FF0010C4FF40002FB
:1007D800A3F80CC080F8371342601A8892B242EA34
:1007E8000C021A80704700BF003802400014004015
:1007F80000E100E0054B1A8AD20705D504490A68CA
:10080800002001320A601882704700BF00140040BF
:10081800649A0020014B1868704700BF649A002052
:10082800084B1B68834205D30844984294BF0020B4
:1008380001207047013B181A88422CBF0020012074
:10084800704700BF649A0020114A124B124910B435
:10085800146B44F001041463146C44F400341464FD
:100868001A6842F0A0021A601A6A42F4EE421A624A
:100878009A6842F020029A609A6842F2080480B2AC
:1008880042F080029A6008818C815DF8044B7047C1
:10089800003802400000024000440040024A138829
:1008A8005B06FCD590807047004400400D4A00B5B7
:1008B800411E00F2FF3C4FF00D0E11F8010F40B140
:1008C80013885B06FCD590800B780A2B03D0614512
:1008D800F3D15DF804FB13885B06FCD5A2F804E0AD
:1008E800F5E700BF004400400FB470B58CB010AB02
:1008F80053F8046B019332783AB300246E4D3146B5
:100908002346252A13D133445A78BAB1623A162AB3
:1009180027D8DFE802F0786E6126422626262626AA
:10092800262626262626263B262626262B002B8804
:100938005806FCD5AA800B780A2B0BD00134A4B238
:100948002346325D3119002ADBD10CB0BDE8704076
:1009580004B07047584A13885B06FCD50D23938072
:10096800ECE7002300930134A4B2E7E79B78622BFD
:100978007BD0682B58D0772B019B00F087801A1DFD
:100988001B6801924FF4006000931DE0019B1A1D43
:1009980018680192FFF78AFFE5E7019B073323F008
:1009A800070303F108020192D3E90012434B03EA5B
:1009B800C20343EA5173002AB8BF43F00043520010
:1009C80000932DD44FF4807002AA694600F0C4F851
:1009D80002A8FFF76BFFC6E79B78622B3DD0682B18
:1009E80033D0772B019B59D01A1D01921B68202008
:1009F800CAE7019B1A1D019219782F4A13885806D5
:100A0800FCD59180AFE79B78622B37D0682B14D048
:100A1800772B019B49D01A1D01921B680420B3E76C
:100A280043F080430093CDE7019B01341A1D0192E6
:100A38001B68A4B24FF48060A6E7019B01341A1D1D
:100A480001921B68A4B202209EE7019B01341A1D83
:100A580001921B68A4B2102096E7019B01341A1D6D
:100A680001921B68A4B208208EE7019B01341A1D6D
:100A780001921B68A4B24FF4007085E7019B013412
:100A88001A1D01921B68A4B201207DE71A1D0134CA
:100A98001B680192A4B24FF4006075E71A1D013477
:100AA8001B680192A4B220206EE71A1D01341B684E
:100AB8000192A4B2042067E700440040F8FFFF3F1A
:100AC80070B50E4A0E4D044630260A300138914260
:100AD80038BF06700AD33123891A03F1010C9142F9
:100AE8009E465FFA8CF3F7D280F800E0A5FB02324D
:100AF800A0424FEAD202E9D170BD00BF00CA9A3BBA
:100B0800CDCCCCCC00B509304FF0000C0378302B9D
:100B18001AD0B1F800E002F80E300B8801339BB20E
:100B280006E090F800E002F803E00B8801339BB27E
:100B38000CF1010CBCF10A0F0B8000F1FF30F0D171
:100B48000021D1545DF804FBBCF1090FE1D00CF190
:100B5800010C0138DAE700BF2DE9F04784B0002323
:100B6800B0F5807FADF80230137000F0BF8044D834
:100B7800013883B21F2B3DD81F283BD8DFE800F08F
:100B88007A8B3AA03A3A3A103A3A3A3A3A3A3A101A
:100B98003A3A3A3A3A3A3A3A3A3A3A3A3A3A3A10D7
:100BA8000B68002B07DA2D2313700B6801205B42BA
:100BB800ADF802000B60BB48BB4D194601AE0DF104
:100BC8000E043027013C884288BF277006D830239E
:100BD800091A01338142DBB2FAD22370A5FB003037
:100BE800B4424FEAD000EDD10DF102094946304632
:100BF800FFF788FF04B0BDE8F087B0F5806F00F01C
:100C08001F81B0F5006F18D10B68104602F1080576
:100C1800B3F1204F4FEA137404F130032ABF37347D
:100C2800037004700B6801301B0185420B60EFD123
:100C38000023137204B0BDE8F087B0F5007FD9D166
:100C48000B68C3F30313092B8CBF3733303313708E
:100C58000B6803F00F00092894BF303037301B01B0
:100C68000B6050700B6800201B010B60907004B083
:100C7800BDE8F0870B68104602F1080430263125DC
:100C88001F064CBF057006700B6801305B00A04260
:100C98000B60F5D1CCE70B68104602F11004302642
:100CA80031251B044CBF057006700B6801305B00D2
:100CB800A0420B60F5D10023137404B0BDE8F0879F
:100CC8000B68104602F1200430253126002BB4BFF2
:100CD800067005700B6801305B0084420B60F5D12B
:100CE800002382F8203004B0BDE8F087D1ED006A17
:100CF800F5EEC06AF1EE10FA06D52D210123117028
:100D0800ADF80230F1EE666AF7EE007AF4EEE76AC3
:100D1800F1EE10FA00F1AB8040F3BF800023B2EE91
:100D2800046A67EE867A1C46F4EEE76AF1EE10FA7A
:100D380003F10103F5DC87EE867AA4B220270DF1D2
:100D48000E085848DFF860E101AEC4464FF030099C
:100D5800C6EE877A9FED557AFCEEE76A16EE901A92
:100D6800F8EE666A77EEE67A67EE877AFCEEE77A5F
:100D780017EE905A0CF1FF3C884288BF8CF800901F
:100D880009D83123091A9A46814203F10103DBB2DB
:100D9800F8D28CF800A0AEFB0030B4454FEAD00082
:100DA800E8D10DF1020949463046FFF7ABFE3D494F
:100DB800DFF8F4C040464FF0300E0138A94288BF32
:100DC80080F800E006D830236D1A01338D42DBB27B
:100DD800FAD20370ACFB0131B0424FEAD101ECD139
:100DE8002E23494630468DF80730FFF78BFEBDF8B5
:100DF8000210652353544B1C9BB22D2FADF80230C3
:100E080003D10231D754ADF802102649264F4FF0CE
:100E1800300C08F1FF38A14288BF88F800C008D814
:100E28003123641A581C8C421D46C3B2F9D288F883
:100E38000050A7FB0131B0454FEAD101E9D1D5E611
:100E48000B681046151DC3F30333092B03F1300457
:100E58008ABF3733047003700B6801301B01854269
:100E68000B60F0D10023137104B0BDE8F0879FED4B
:100E7800107AF4EEC76AF1EE10FA4FF001040AD5C1
:100E8800F0EE477A27EE277A0134F4EEC76AF1EEDE
:100E980010FAA4B2F6D42D2751E79FED057A4FF644
:100EA800FF744BE700CA9A3BCDCCCCCC00007A4407
:100EB800CDCCCC3D10B4421E002340F2014C02E0E0
:100EC8000133634512D012F8014F002CF8D19BB2C0
:100ED8004A1E01F5806C9B1A02E06245445405D015
:100EE800991812F8014F89B2002CF6D15DF8044B1D
:100EF800704700BF294A2A4B116B41F0020110B418
:100F080011631968274C21F470211960196841F49C
:100F180020211960596841F440715960996841F479
:100F280002219960D96821F47021D960D96841F407
:100F3800A021D960596A21F0FF015962596A41F02C
:100F4800440159622070116CA3F5D83341F40011A3
:100F580011641A886FEA42426FEA524292B21A80CA
:100F68001A88C2F30E021A801A8822F001021204AB
:100F7800120C1A802A2444F23202D2202B219C809F
:100F8800988319841A811A885DF8044B92B242F446
:100F9800806242F001021A80704700BF00380240A8
:100FA80000040240689A00200C4A0D48138823F474
:100FB80080631B041B0C1380938A138B13889BB2CA
:100FC80043F400731380118B938A9BB243EA014365
:100FD80030EA0303F7D1108AC0B2704700540040CA
:100FE80040000300084A094813889BB243F4806311
:100FF8001380118B938A9BB243EA014330EA0303BF
:10100800F7D1108AC0B27047005400404000030076
:1010180010B40E4A0E4C118B938A9BB243EA0143DB
:1010280034EA0303F7D10B4B0849108201E0013B76
:1010380003D38A8A5207FAD513B15DF8044B704777
:1010480005485DF8044BFFF74FBC00BF0054004053
:1010580080000700A0860100E0570008074A0848FA
:1010680013889BB243F400731380118B938A9BB24D
:1010780043EA014330EA0303F7D1704700540040C4
:1010880084000700134B144901E0013B02D00A8B8E
:101098009207FAD4104A13889BB243F480731380E2
:1010A800938ADB07FCD50D4B1B7858B943F0010335
:1010B8001382094A938A9907FCD50128938A138BCE
:1010C80003D07047DBB21382F3E7034A938A1B0607
:1010D800FCD57047A086010000540040689A0020A3
:1010E80070B50646012015460C46FFF7CBFF304683
:1010F800FFF78EFF35B1254414F8010BFFF788FF81
:10110800AC42F9D1074A084813889BB243F40073EC
:101118001380118B938A9BB243EA014330EA03039D
:10112800F7D170BD005400408400070070B5064632
:10113800012014460D46FFF7A5FF3046FFF768FF6C
:10114800244A254813889BB243F400731380118BFB
:10115800938A9BB243EA014330EA0303F7D11D4B5C
:10116800188810F40070FBD1FFF78CFFDCB1194A26
:101178001A4904F1FF3EAC467045138814D09BB25F
:1011880043F480631380158B938A9BB243EA05432B
:1011980031EA0303F7D10130138A8CF80030A042FA
:1011A8000CF1010CE8D170BD23F480631B041B0C07
:1011B8001380938A138B13889BB243F400731380B4
:1011C800158B938A9BB243EA054331EA0303F7D1AF
:1011D800E1E700BF0054004084000700400003001E
:1011E80030B583B00DF107018023012212208DF85C
:1011F8000730FFF775FFC820FFF7D6F903230DF175
:101208000701012211208DF807300424FFF768FF39
:101218000DF1070101220C208DF80740FFF760FF50
:1012280022230DF10701012272208DF807303A259B
:10123800FFF756FF0DF10701012270208DF80750C6
:10124800FFF74EFF0DF107013523012271208DF8BC
:101258000730FFF745FF0DF10701F2230122732044
:101268008DF80730FFF73CFF0DF10701022301223B
:10127800A2208DF80730FFF733FF1A230DF107017D
:1012880001223E208DF80730FFF72AFF0A20FFF7DA
:101298008BF90DF10701012212208DF80740FFF7A5
:1012A8001FFFD0230DF10701012240208DF80730E0
:1012B800FFF716FF0DF10701284601228DF80740B8
:1012C800FFF70EFF0A240DF1070101223B208DF8DC
:1012D8000740FFF705FF0DF10701E723012213205F
:1012E8008DF80730FFF7FCFE2046FFF75DF9202355
:1012F80001220DF1070115208DF80730FFF7F0FEE8
:101308002046FFF751F90248FFF7EEFA03B030BD67
:10131800F057000830B583B0802301220DF1070192
:10132800122014468DF80730FFF7DAFEC820FFF7C1
:101338003BF922460DF10701112000258DF80740E1
:10134800FFF7CEFE22460DF107010C208DF807505D
:10135800FFF7C6FE22460DF1070172208DF80750EF
:10136800FFF7BEFE22460DF1070170208DF80750E9
:10137800FFF7B6FE22460DF1070171208DF80750E0
:10138800FFF7AEFE22460DF1070173208DF80750D6
:10139800FFF7A6FE22460DF10701A2208DF807509F
:1013A800FFF79EFE22460DF10701042312208DF857
:1013B8000730FFF795FE22460DF10701D0234020A4
:1013C8008DF80730FFF78CFE22460DF10701202328
:1013D80015208DF80730FFF783FEE72322460DF12D
:1013E800070113208DF80730FFF77AFE0248FFF750
:1013F8007BFA03B030BD00BF2C58000830B542203E
:1014080083B0FFF777FD012201A90A20FFF78EFEBE
:101418009DF8045011482946FFF766FA01A90B20E8
:101428000122FFF783FE9DF804400D482146FFF78F
:101438005BFA732C01D1762D07D00A48FFF754FACE
:101448000948FFF751FA03B030BD0848FFF74CFAD6
:101458000548FFF749FA03B030BD00BF68580008D7
:101468008C580008CC580008EC580008B058000800
:1014780030B5422083B0FFF73DFD01220DEB02019C
:10148800802312208DF80130FFF72AFEC820FFF7CD
:101498008BF801220DEB0201042312208DF8013094
:1014A800FFF71EFE0A20FFF77FF801220DEB02016D
:1014B8001423402014468DF80130FFF711FE052053
:1014C800FFF772F822460DEB04010C208DF801405D
:1014D800FFF706FEA42322460DEB04013E208DF8FB
:1014E8000130FFF7FDFD0520FFF75EF800252246D5
:1014F8000DF102010C208DF80250FFF7F1FD224694
:101508000DF1030119233E208DF80330FFF7E8FDA4
:10151800224601A93A2370208DF80430FFF7E0FD38
:1015280022460DF10501352371208DF80530FFF7AE
:10153800D7FD22460DF10601112372208DF80630E1
:10154800FFF7CEFDF12322460DF1070173208DF838
:101558000730FFF7C5FD0A20FFF726F822460DEBF6
:10156800040115208DF80150FFF7BAFD0520FFF79B
:101578001BF822460DEB04010A20FFF7D7FD9DF862
:1015880001100448FFF7B0F90348FFF7ADF903B0BD
:1015980030BD00BF1C5900083059000830B5422042
:1015A80083B0FFF7A7FC012201A90A20FFF7BEFDBF
:1015B8009DF804106748FFF797F9012201A90B204D
:1015C800FFF7B4FD9DF804106348FFF78DF98025F7
:1015D8000DF10301012212208DF80350FFF780FD61
:1015E800C820FEF7E1FF0DF10301142301221220A8
:1015F8008DF80330FFF774FD0520FEF7D5FFD023E3
:101608000DF103010122402001248DF80330FFF77A
:1016180067FD0520FEF7C8FF22460DF103011120E2
:101628008DF80340FFF75CFD0520FEF7BDFF4A2358
:1016380022460DF103016B208DF80330FFF750FDB2
:101648000520FEF7B1FF22460DF1030132208DF887
:101658000350FFF745FD0520FEF7A6FF22460DF1D2
:101668000301162317208DF80330FFF739FD0520F5
:10167800FEF79AFF042322460DF1030118208DF886
:101688000330FFF72DFD0520FEF78EFF02252246C9
:101698000DF1030119208DF80350FFF721FD0520F6
:1016A800FEF782FF22460DF103017A231A208DF8F6
:1016B8000330FFF715FD0520FEF776FF22460DF1F2
:1016C80003010A2303208DF80330FFF709FD0520E5
:1016D800FEF76AFF22460DF103013A2370208DF8C8
:1016E8000330FFF7FDFC0520FEF75EFF22460DF1F3
:1016F8000301352371208DF80330FFF7F1FC052035
:10170800FEF752FF22460DF10301112372208DF8D6
:101718000330FFF7E5FC0520FEF746FFF1232246DC
:101728000DF1030173208DF80330FFF7D9FC052074
:10173800FEF73AFF22460DF10301A2208DF803506F
:10174800FFF7CEFC0520FEF72FFF0448FFF7CCF883
:1017580003B030BD685800088C5800085459000878
:1017680030B5422083B0FFF7C5FB012201A90A204A
:10177800FFF7DCFC9DF804106748FFF7B5F8012275
:1017880001A90B20FFF7D2FC9DF804106348FFF76E
:10179800ABF880250DF10301012212208DF80350CA
:1017A800FFF79EFCC820FEF7FFFE0DF1030114238E
:1017B800012212208DF80330FFF792FC0520FEF776
:1017C800F3FED0230DF103010122402001248DF8FE
:1017D8000330FFF785FC0520FEF7E6FE22460DF1F3
:1017E800030111208DF80340FFF77AFC0520FEF76E
:1017F800DBFE4A2322460DF103016B208DF80330EE
:10180800FFF76EFC0520FEF7CFFE22460DF103011F
:1018180032208DF80350FFF763FC0520FEF7C4FE65
:1018280022460DF10301162317208DF80330FFF728
:1018380057FC0520FEF7B8FE042322460DF10301EC
:1018480018208DF80330FFF74BFC0520FEF7ACFE9F
:10185800022522460DF1030119208DF80350FFF7E8
:101868003FFC0520FEF7A0FE22460DF103017A2376
:101878001A208DF80330FFF733FC0520FEF794FE9D
:1018880022460DF103010A2303208DF80330FFF7E8
:1018980027FC0520FEF788FE22460DF103013A23B6
:1018A80070208DF80330FFF71BFC0520FEF77CFE47
:1018B80022460DF10301352371208DF80330FFF71F
:1018C8000FFC0520FEF770FE22460DF103011123DF
:1018D80072208DF80330FFF703FC0520FEF764FE45
:1018E800F12322460DF1030173208DF80330FFF731
:1018F800F7FB0520FEF758FE22460DF10301A22052
:101908008DF80350FFF7ECFB0520FEF74DFE044869
:10191800FEF7EAFF03B030BD685800088C5800088D
:10192800545900082348244A016B244B41F0010113
:1019380010B40163146824F440341460146844F447
:1019480000341460546A24F00F045462546A44F05A
:1019580001045462426C42F00102426400211424E2
:101968000A22198019831984A3F844101985DC62A6
:101978005A631A8B5DF8044B92B242F060021A83E4
:101988001A8B92B242F008021A831A8C012192B281
:101998000A431A84B3F844206FEA42426FEA52427B
:1019A80092B2A3F8442099821A8892B20A431A8004
:1019B800704700BF003802400000024000000140AC
:1019C8002B492C4A086B2C4B40F001000863106827
:1019D80020F440301060106840F400301060506A05
:1019E80020F00F005062506A40F0010050624A6CCB
:1019F80042F001024A644FF0000C03220620A3F8CB
:101A080028C0D8625A631A8892B242F084021A80B7
:101A18001A8822F070021204120C1A801A8B22F013
:101A280070021204120C1A831A8B92B242F06802E6
:101A38001A831A8C22F002021204120C1A841A8CCD
:101A480092B242F001021A84B3F844206FEA42428B
:101A58006FEA524292B2A3F844209A8A92B242F0B4
:101A680001029A821A8892B242F001021A807047E3
:101A780000380240000002400000014030B542201A
:101A880083B0FFF737FA012201A90A20FFF74EFBBE
:101A98009DF804106748FEF727FF012201A90B20D3
:101AA800FFF744FB9DF804106348FEF71DFF8025EF
:101AB8000DF103010122122001248DF80350FFF7D4
:101AC8000FFB6420FEF770FD22460DF10301122082
:101AD8008DF80340FFF704FB0520FEF765FDD023D2
:101AE80022460DF1030140208DF80330FFF7F8FA84
:101AF8000520FEF759FD22460DF1030111208DF84E
:101B08000340FFF7EDFA0520FEF74EFD22460DF1E2
:101B180003014A236B208DF80330FFF7E1FA052013
:101B2800FEF742FD22460DF10301162317208DF81A
:101B38000330FFF7D5FA2046FEF736FDB6232246D6
:101B48000DF1030118208DF80330FFF7C9FA20467C
:101B5800FEF72AFD22460DF1030132208DF80350CD
:101B6800FFF7BEFA2046FEF71FFD022522460DF1BB
:101B7800030119208DF80350FFF7B2FA2046FEF74B
:101B880013FD22460DF103017A231A208DF8033044
:101B9800FFF7A6FA2046FEF707FD22460DF10301DE
:101BA8000A2303208DF80330FFF79AFA2046FEF740
:101BB800FBFC22460DF103013A2370208DF8033017
:101BC800FFF78EFA2046FEF7EFFC22460DF10301DF
:101BD800352371208DF80330FFF782FA2046FEF78F
:101BE800E3FC22460DF10301112372208DF8033026
:101BF800FFF776FA2046FEF7D7FCF12322460DF1CF
:101C0800030173208DF80330FFF76AFA2046FEF7C8
:101C1800CBFC22460DF10301A2208DF80350FFF7FB
:101C28005FFA2046FEF7C0FC0448FEF75DFE03B0ED
:101C380030BD00BF685800088C5800085459000887
:101C4800F0B583B080230DF10701012212208DF831
:101C58000730FFF745FAC820FEF7A6FC00250DF16E
:101C680007010122112004248DF80750FFF738FAE4
:101C78000DF1070101220C208DF80740FFF730FA1B
:101C88000DF10701012212208DF807401A27FFF7EE
:101C980027FA0DF1070101223E208DF80770FFF7A2
:101CA8001FFA16230DF10701012217208DF80730BE
:101CB800FFF716FA0DF10701012218208DF80740E9
:101CC800A426FFF70DFA0DF10701012232200224A4
:101CD8008DF80760FFF704FA0DF1070101221920BA
:101CE8008DF80740FFF7FCF97A2338460DF1070114
:101CF80001228DF80730FFF7F3F90DF107010122F2
:101D080003208DF80760FFF7EBF90DF10701222397
:101D1800012272208DF80730FFF7E2F9F2230DF166
:101D28000701012273208DF80730FFF7D9F90DF16B
:101D38000701012215208DF80750FFF7D1F9D023AC
:101D48000DF10701012240208DF80730FFF7C8F98F
:101D58000DF107010122A2208DF80740FFF7C0F915
:101D68000DF107014023012256208DF80730FFF7B7
:101D7800B7F9E72301220DF1070113208DF8073089
:101D8800FFF7AEF903B0F0BD10B5594C5948236BB5
:101D980043F01F032363036823F4701323F44C53A5
:101DA8000360036843F4201343F408530360036A91
:101DB80023F0706323F470230362036A43F05063D3
:101DC80043F450230362436A23F47F634362436A04
:101DD80043F45D634362036823F44053036003687C
:101DE80043F400530360036A23F070630362036AD9
:101DF80043F05063036282B00168026A436A006973
:101E080000903D48FEF770FD3C4A3D4B10683D4947
:101E180020F440401060106840F400401060106AE0
:101E280020F070401062106A40F05040106218684C
:101E380020F470201860186840F420201860586A50
:101E480020F0FF005862586A40F0DD0058620868C8
:101E58002D4B20F0C0000860086840F08000086042
:101E6800086A20F470400862086A40F4504008622A
:101E7800D2F8001C21F47C51C2F8001CD2F8001CD6
:101E880041F42851C2F8001CD2F8201C21F07F61CF
:101E980021F47021C2F8201CD2F8201C41F05D61A9
:101EA80041F45021C2F8201C626B42F001026263C7
:101EB800626942F0010262616269002022F0010257
:101EC800626118601A6842F080021A601A6822F08B
:101ED80040021A601A6822F020021A601A6842F05A
:101EE80002021A601A6842F480421A6002B010BDF9
:101EF80000380240000002408C59000800040240EB
:101F080000080240000C0240000005504B4A4C4BB0
:101F1800116B4C4841F01F0110B41163196821F48A
:101F2800701121F44C511960196841F4201141F4E1
:101F380008511960596A21F47F615962596A41F45C
:101F48005D615962196A21F0706121F4702119628A
:101F5800196A41F0506141F45021196203683A4905
:101F680023F440430360036843F400430360036AB7
:101F780023F070430362036A43F050430362086826
:101F8800324B20F470200860086840F42020086074
:101F9800486A20F0FF004862486A40F0DD00486265
:101FA800186820F0C0001860186840F080001860B9
:101FB800186A20F470401862186A40F45040186299
:101FC800D1F80008224B20F47C50C1F80008D1F861
:101FD800000840F42850C1F80008D1F8200820F083
:101FE8007F6020F47020C1F82008D1F8200840F064
:101FF8005D6040F45020C1F82008516B41F00101A8
:102008005163516941F0010151615169002421F086
:10201800010151611C601A685DF8044B42F08002AE
:102028001A601A6842F040021A601A6842F02002E8
:102038001A601A6842F002021A60704700380240BB
:10204800000002400004024000080240000C024068
:10205800000005502DE9F0416048FEF745FC604955
:102068000B691D060AD45F4B01E0013B06D300BF94
:102078000A691406F9D5002B00F08380584E5A4897
:10208800FEF732FC316911F0800100F09A80574B5D
:10209800574ADFF89081574FDFF88CE1DFF880C1AD
:1020A800002401E0013B04D310694006FAD5002B57
:1020B8006CD01069D8F810103D69DEF81050890905
:1020C80001F00C01C0F34120084305F0600108430A
:1020D8002CF814006546013402E0002B4BD003466F
:1020E8001169490603F1FF30F7D43169090605D5AE
:1020F800591E2BB10B46B4F5964FD5D1002B45D0C0
:102108003D482146FEF7F0FB3C48FEF7EDFB3B4817
:10211800FEF7EAFB3A483B4FFEF7E6FB002601E0F4
:10212800A64246D035F81610384689B20136FEF771
:10213800DBFB0A2EF4D13448FEF7D6FB3348FEF712
:10214800D3FB0A2C264638BF0A260A3EA64209D2E5
:102158002C4F35F81610384689B20136FEF7C4FB05
:10216800A642F6D12848FEF7BFFB21462848BDE81D
:10217800F041FEF7B9BB33691B06C1D56FF0010307
:10218800B9E7BDE8F0412348FEF7AEBB2248FEF7A9
:10219800ABFB19482146FEF7A7FB1848FEF7A4FB3E
:1021A8001648FEF7A1FBB4B9BDE8F0411B48FEF79D
:1021B8009BBB1548FEF798FB1448FEF795FB0026D5
:1021C800C6E70D48FEF790FB0C48FEF78DFB0B4861
:1021D800FEF78AFBE8E7124D9CE700BFC0590008EC
:1021E800000402403F420F00085A00087F969800FA
:1021F80000000240000C0240305A0008485A00080B
:102208008C5A0008A05A0008BC550008A85A0008B3
:10221800BC5A0008E85900086C5A0008DC5A000843
:102228001800002000080240001002402DE9F0418B
:102238001D4E1E481F237361336843F0010333604A
:10224800FEF752FB3369DA072CD4194C194D1A4F93
:10225800DFF8748006E02B6000BF3369DB0711D418
:10226800013C10D32B68BB4203F10103F3D90023CF
:102278002B60316932684046FEF736FB00BF336990
:10228800DB07EDD52CB121460C48BDE8F041FEF73F
:102298002BBB0B48FEF728FB21460848BDE8F04158
:1022A800FEF722BB074CEEE700000550F85A00087D
:1022B8003F420F006C9A0020A0860100445B000892
:1022C800285B000840420F00105B000808B52F4B40
:1022D8001B6959064CBF2E482E48FEF705FB2B4BB1
:1022E8001B69DA064CBF2C482C48FEF7FDFA2C4B2C
:1022F8001B691B064CBF2B482B48FEF7F5FA234BEE
:102308001B6998054CBF29482948FEF7EDFA1F4B71
:102318001B6959054CBF27482748FEF7E5FA274BA4
:102328001B69DA054CBF26482648FEF7DDFA234B21
:102338001B699B054CBF24482448FEF7D5FA244B5B
:102348001B6918074CBF23482348FEF7CDFA234BD7
:102358001B69D9064CBF22482248FEF7C5FA1F4B15
:102368001B699A064CBF20482048FEF7BDFA1B4B54
:102378001B695B0604D5BDE808401D48FEF7B4BAE2
:10238800BDE808401B48FEF7AFBA00BF0000024096
:102398006C5B0008785B0008845B0008905B0008B1
:1023A800000402409C5B0008A85B0008B45B0008BE
:1023B800C05B0008C85B0008D45B00080008024046
:1023C800DC5B0008E85B0008F05B0008FC5B0008C9
:1023D800000C0240045C0008105C00080010024079
:1023E800185C0008245C00082C5C0008385C0008B5
:1023F800405C00084C5C00082DE9F04F8BB0824629
:10240800FEF708FADFF89C90DFF89C80099038E026
:10241800DFF898C0204B29692A691B692C692D6946
:10242800D9F81060D9F81070D8F81000DCF810E06E
:10243800D8F810B0D8F810C0C0F30010CEF3C00E12
:10244800CCF3801CC7F34027C6F30026C5F38025CC
:10245800C4F34024CBF3401B0490CDE905EB0F48AF
:10246800CDF81CC0CDE90267CDE90045C3F3C01320
:10247800C2F30012C1F38011FEF736FA0120FEF70D
:1024880093F8FEF7C7F9099B054DC01A5045BFD30D
:102498000BB0BDE8F08F00BF00040240545C000898
:1024A800000002400008024000100240000C0240F8
:1024B8004B0850F82300CB074CBF000C80B2704784
:1024C8004B4A4C4B116B4C4841F01F011163196882
:1024D80021F4701121F44C511960196841F420114C
:1024E80041F408511960596A21F47F615962596AA7
:1024F80041F45D615962196A21F0706121F470211B
:102508001962196A41F0506141F450211962036857
:102518003A4923F440430360036843F400430360EB
:10252800036A23F070430362036A43F05043036273
:102538000868334B20F470200860086840F42020B5
:102548000860486A20F0FF004862486A40F0DD00F1
:102558004862186820F0C0001860186840F08000D1
:102568001860186A20F470401862186A40F45040E5
:102578001862D1F80008234B20F47C50C1F80008F9
:10258800D1F8000840F42850C1F80008D1F8200814
:1025980020F07F6020F47020C1F82008D1F82008CE
:1025A80040F05D6040F45020C1F82008516B41F0C4
:1025B80001015163516941F001015161516921F0F3
:1025C800010151611A6842F080021A601A6822F00B
:1025D80020021A601A6842F040021A601A6842F033
:1025E80002021A601A6842F480421A60704700BFFB
:1025F8000038024000000240000402400008024087
:10260800000C024000000550144B154A4FF0FF31F2
:102618005961936A23F001039362936AD907FCD442
:102628004FF41653D362936A0C480D4943F00103E3
:10263800936202680B4B42F00102026001E0013B29
:1026480009D00A681205FAD58B68074843F4006375
:102658008B60FEF749B90548FEF746B900000550FA
:1026680000640240404B4C00C45C0008AC5C0008AD
:1026780070B50C480C4C0D4D0D4EFEF735F901E0C8
:10268800013C0AD06B68DB07FAD5A96A0029F7D0A4
:102698003046FEF729F9013CF4D1BDE87040054801
:1026A800FEF722B9F05C000820A1070000000550E1
:1026B8001C5D0008385D000808B51E48FEF714F9CF
:1026C8001D48FEF711F91D4A13691806FCD51C4868
:1026D800FEF70AF91B4A936A23F001039362936A8F
:1026E800D907FCD44FF41653D362936A164843F0C3
:1026F80001039362FEF7F8F8144A1548136843F08B
:1027080001031360FEF7F0F8124B0E4901E0013B9C
:102718000BD00A681205FAD58B680F4843F400639A
:102728008B60BDE80840FEF7DFB8BDE808400B48FD
:10273800FEF7DAB84C5D0008805D0008000402402E
:10274800985D000800640240B05D00080000055074
:10275800D45D0008404B4C00C45C0008AC5C000829
:102768000F4B00221A605A60DA6019680D4A41F46A
:10277800804141F002011960936A23F001039362DA
:10278800936ADB07FCD493684FF4165143F4006353
:102798009360D162936A43F001039362FEF720BD10
:1027A800000005500064024030B52648264D0C460E
:1027B80083B0FEF799F864084FF47463AB60EC6279
:1027C800AB6A224A224C43F00103AB62136843F020
:1027D8000303136003E0013C16D3002C2ED02B68B2
:1027E8001B05F8D584B91B48FEF77EF8A96A1A4874
:1027F800EA6AFEF779F8154B184819685A6803B061
:10280800BDE83040FEF770B80F4B15484FF4006232
:102818009A60D96AFEF768F80C4B1248596801F0BB
:1028280001030093C1F38002C1F34003FEF75CF893
:102838000D4803B0BDE83040FEF756B80B48FEF728
:1028480053F8CCE7F05D0008006402400000055032
:1028580080969800345E0008545E0008705E000898
:102868008C5E0008A45E0008DC5E0008105E0008AC
:1028780070B5374884B00C46FEF736F83548364907
:102888004FF4746364088360C462836A43F001038D
:1028980083620A68314B42F003020A6001E0013B9F
:1028A80004D302681205FAD5002B4AD0294E2A4CC7
:1028B8002B484FF40063B360236823F001032360BF
:1028C800F16AFEF711F86168A5682648246901F0E5
:1028D80001030093C1F38002C1F34003FEF704F83B
:1028E800C5F30012C5F3C003CDE90132C5F3800278
:1028F800C5F340030092294605F001021A48FDF786
:10290800F3FFC4F30012C4F3C003C4F38000CDE99D
:1029180001322146C4F3400304F001020090134839
:10292800FDF7E2FFB16A1248F26AFDF7DDFF316890
:102938001048FDF7D9FF104804B0BDE87040FDF716
:10294800D3BF0E4804B0BDE87040FDF7CDBF00BF4F
:10295800F05D000800640240000005508096980071
:102968008C5E0008F85E0008285F0008685F0008B1
:10297800A85F0008D05F0008DC5E0008345E00082D
:1029880030B42A4C2A4B226B42F480022263002284
:102998009A629A6AD207FCD44FF474629A609A6A6F
:1029A800244C42F000729A629D6A25F480259D624B
:1029B8004A08996A41F440319962996A41F4005190
:1029C8009962996A41F480519962996A41F48061E7
:1029D8009962996A21F400719962996A21F4807167
:1029E8009962996A21F0C0019962996A21F02001DF
:1029F8009962996A41F010019962996A41F0080157
:102A08009962996A41F004019962996A41F0020158
:102A18009962DA621C635863DA6B22F00402DA63A3
:102A28009A6A42F0010230BC9A627047003802404C
:102A380000640240280005502DE9F04F9FB0804601
:102A4800FDF7E8FE0026CDF84480CDE90E66CDE915
:102A58000C66CDE90A66CDE90866CDE90666CDE9DA
:102A68000466CDE90266CDE91A66CDE91866CDE9B6
:102A78001666CDE913660196B246B3463746354623
:102A88003446129610961590B146B04662E01296FA
:102A9800012114F01006179177D1012113F080035A
:102AA8001396199177D001231A931493069BC2F3B6
:102AB800C00943EA09030693019BC4F34026334344
:102AC8000193029BC4F3802423430293039BC5F321
:102AD80000273B430393049BC5F340252B430493F2
:102AE800059BC0F3001B43EA0B030593079BC0F348
:102AF800401843EA08030793089BC0F3801A43EA87
:102B08000A030893099B86F00100034309930A9B73
:102B180084F0010003430A930B9B87F001000343F1
:102B28000B930C9B85F0010003430C930D9B8BF0DA
:102B3800010003430D930E9B89F0010003430E939C
:102B48000F9B88F0010003430F93109B8AF001004C
:102B580003431093FDF75EFE159BC01A119B984224
:102B680024D20F4B0F491C690F4A03F5806314F0F8
:102B780040061B690D691269D1F8100887D0012138
:102B880014F010061691129187D0012113F08003DA
:102B98001891139187D1149301231B9386E700BFE3
:102BA8000000024000080240000C024015961D97E4
:102BB8005F46C346DDE910689148CDF870904146FC
:102BC800FDF792FE8F4B129A8F499048DFF8CC920E
:102BD800DFF8CC82002A18BF1946FDF785FE169A41
:102BE8008B48002A0CBF49464146FDF77DFE179ADF
:102BF8008848002A0CBF49464146FDF775FE814BBF
:102C0800139A81498448002A18BF1946FDF76CFEBB
:102C1800189A8248002A0CBF49464146FDF764FECF
:102C2800199A7F48002A0CBF49464146FDF75CFEC9
:102C3800744B149A74497B48002A18BF1946FDF74B
:102C480053FE1A9A7848002A0CBF49464146FDF7B8
:102C58004BFE1B9A7548002A0CBF49464146FDF7B2
:102C680043FE684B159A68497148002A18BF1946EF
:102C7800FDF73AFE019A6F48002A0CBF49464146C3
:102C8800FDF732FE099A6C48002A0CBF49464146B6
:102C9800FDF72AFE5B4B5C496848002C18BF1946B3
:102CA800FDF722FE029A6648564C002A0CBF494698
:102CB8004146FDF719FE0A9A6248002A0CBF4946A8
:102CC8004146FDF711FE1D9B4F495F48002B18BF79
:102CD8002146FDF709FE039B5C48002B0CBF4946C3
:102CE8004146FDF701FE0B9B5948002B0CBF494696
:102CF8004146FDF7F9FD44495648002D18BF2146C5
:102D0800FDF7F2FD049B5448002B0CBF4946414691
:102D1800FDF7EAFD0C9B5148002B0CBF4946414684
:102D2800FDF7E2FD38494E48002F18BF2146FDF750
:102D3800DBFD059B4B48002B0CBF49464146FDF780
:102D4800D3FD0D9B4848002B0CBF49464146FDF773
:102D5800CBFD1C9A2C494548002A18BF2146FDF78F
:102D6800C3FD069B4248002B0CBF49464146FDF770
:102D7800BBFD0E9B3F48002B0CBF49464146FDF763
:102D8800B3FD21493C48BBF1000F18BF2146FDF7B0
:102D9800ABFD079B3948002B0CBF49464146FDF760
:102DA800A3FD0F9B3648002B0CBF49464146FDF753
:102DB8009BFD15493348BAF1000F18BF2146FDF7AE
:102DC80093FD089B3048002B0CBF49464146FDF750
:102DD8008BFD002E0CBF494641462C48FDF784FD6B
:102DE8002B48FDF781FD2B4B2B4819685A6A1B6944
:102DF800FDF77AFD26481FB0BDE8F04FFDF774BD1A
:102E0800F85F0008E45F0008EC5F00082060000835
:102E18002C600008446000085C60000868600008D6
:102E28008060000898600008A4600008BC60000882
:102E3800D4600008E0600008F46000080861000839
:102E480014610008286100083C6100084861000816
:102E58005C610008706100087C61000890610008EE
:102E6800A4610008B0610008C4610008D8610008C6
:102E7800E4610008F86100080C62000818620008A4
:102E88002C620008406200084C620008606200087A
:102E980074620008000002409C620008F45F0008A9
:102EA800F05F00082DE9F04F8BB082460991FDF7DD
:102EB800B1FCDFF8A090DFF8A080089036E039690F
:102EC8003A69D9F81030D9F81040D8F81050366956
:102ED800D8F81000D8F810C0D7F810E03F69C7F349
:102EE800001B184F3F69C0F34010CCF3801CCEF391
:102EF800801EC6F3C006C5F30015C4F34024C7F30B
:102F0800C0170390CDE905EB0F48CDF810C0CDE907
:102F18000156C3F30023C2F38022C1F3402107976F
:102F28000094FDF7E1FC0998FDF73EFBFDF772FC04
:102F3800089B064F064EC01A5045C0D30BB0BDE8DB
:102F4800F08F00BF00040240C86200080000024081
:102F5800000C02400008024000100240374B70B5D8
:102F68001C6B14F4800406460D4663D00124344BD0
:102F7800344A196B914204D0196B3348FDF7B4FCFD
:102F880000242F4B5A6B964204D0596B2F48FDF7FB
:102F9800ABFC00242A4BDA6AAA4204D0D96A2C482E
:102FA800FDF7A2FC0024264B9D6AC5F34263012B62
:102FB80003D02848FDF798FC002415F4806634D027
:102FC80005F0C003402B03D02348FDF78DFC0024F7
:102FD80005F4C053B3F5006F03D02048FDF784FC17
:102FE800002405F4C043B3F5005F12D115F4403F47
:102FF80007D0EB0715D54CB11948FDF775FC2046ED
:1030080070BD1848FDF770FCE9070AD50024204672
:1030180070BD1548FDF768FC15F4403FF1D0EA078C
:10302800F4D41248FDF760FCF0E71148FDF75CFCAA
:103038003446C5E70F48FDF757FC98E700380240CB
:1030480000640240280005502C6300084C63000807
:103058006C6300088C630008CC63000804640008F3
:103068009064000844640008246400086C64000844
:10307800B06300080C630008F0B50C4C0C4F83B02B
:10308800A61D14F8015B012201A92846FEF74EF897
:103098009DF8042038462946FDF726FC0220FDF756
:1030A80083FAB442EDD103B0F0BD00BFF853000875
:1030B800B06400082DE9F043642083B0FDF774FA8A
:1030C800DFF88C800027BBB208EB430218F81340E6
:1030D8005678FF2C07D1FF2E29D11A48FDF704FC9A
:1030E80003B0BDE8F083122C0ABF4FF00009B146C7
:1030F8004E4603252046012201A9FEF717F89DF840
:103108000430B3424FF0010015D0FDF74DFA013DF0
:10311800F0D19DF8042096420DD00B484B4621462D
:10312800FDF7E2FB0220FDF73FFA0137CBE7642009
:10313800FDF73AFAF9E705484A462146FDF7D4FB78
:10314800F0E700BF0C650008E0640008C4640008EC
:10315800BC5300082DE9F04F444D45481F238BB060
:103168006B61FDF7C1FB29684248FDF7BDFB696A41
:103178004148FDF7B9FB296A4048FDF7B5FB696886
:103188003F48FDF7B1FB29693E48FDF7ADFB2B68C9
:103198003D4843F001032B602968FDF7A5FB2B6927
:1031A80013F0010351D1394C394E05E000BF2A69AB
:1031B800D20749D4013C48D3364A01339342F5D16A
:1031C800296935482A68FDF78FFBDFF8E4E0DEF867
:1031D8001010DEF8102033693769D6F810C030694E
:1031E800C0F3C00009902D48D0F81080D0F8109096
:1031F800DEF810A0D6F810B0D6F810E009980290C2
:10320800CCF3800CCEF3401EC7F34007C8F38018F8
:10321800C9F3C019CAF3801ACBF3001BCDE905AB7B
:10322800CDE90389CDE9007C1D48CDF81CE003F009
:103238000103C2F38022C1F34021FDF755FB0023AF
:1032480000BF2A69D207B5D55CB1084B1548196982
:103258001A68FDF749FB14480BB0BDE8F04FFDF7BD
:1032680043BB1248FDF740FBEFE700BF00000550E5
:103278002C6500084865000858650008686500085E
:103288007C6500088C6500089C6500083F420F00BB
:1032980000040240A1860100BC6500080008024045
:1032A800D86500082466000850660008285B0008F6
:1032B800000002402DE9F8430E4609B30027DFF865
:1032C8005490DFF85480851E3C4606E00134FDF733
:1032D8000BFBA64207F101070BD035F8022F214658
:1032E8004046002AF2D048460134FDF7FDFAA642CE
:1032F800F3D1324639460648BDE8F843FDF7F4BA3B
:103308000F46324639460248BDE8F843FDF7ECBAA5
:1033180098660008846600086866000800B5084BCF
:103328000848596883B0C1F380030093C1F3400291
:1033380001F00103FDF7D8FA03B05DF804FB00BF04
:1033480000000550CC6600082DE9F0471E4B1F4DC4
:10335800DFF884A0DFF88490DFF8848093E8070022
:103368008AB004AC03C424F8022B110C217095E830
:10337800070007AB03C323F8022B110C144819707C
:10338800FDF7B2FA04AC07AE0DF11B0714F8015BA8
:1033980001220DF10F012846FDF7C8FE9DF80F1018
:1033A80016F8013B994214BF504648460A46009019
:1033B80029464046FDF798FABC42E7D10548FDF793
:1033C80093FA0AB0BDE8F087746700080054000853
:1033D8000C6700085C67000800670008F8660008CA
:1033E8002C6700082DE9F04F89B00090FDF712FA1C
:1033F8000023CDE90103CDE90333994605931E4621
:103408001D4698461F469A46FDF704FA019BC01AC6
:10341800009B98425DD2444B444A196903F5806386
:103428001B69146903F0800C414B1B694FEAD30EEA
:10343800404B186900224B0A63F307024FEA101B3E
:1034480000236BF307036EF30F234FEA912E6EF3FD
:103458000F2201F0400EBEF1000F01F010010CBF69
:103468004FF00108012700294FEA142161F31742A0
:103478004FEA542464F31F6202F0013206924FEAC5
:10348800501262F317434FEA901060F31F6303F082
:1034980001330CBF4FF001090126BCF1000F07935F
:1034A80014BF4FF0010A01250DF1170302A904AA60
:1034B8000DF11F0C012406E00C709C4501F101017F
:1034C80002F10102A0D013F8010F0028F4D1147002
:1034D800F3E719461848FDF707FA39461748184F11
:1034E8004246FDF701FA314616484A46FDF7FCF90F
:1034F8002A4615485146FDF7F7F90DF107060DF173
:103508000F050024214615F8013F16F8012F38460B
:103518000134FDF7E9F9082CF4D10C4809B0BDE8ED
:10352800F04FFDF7E1B900BF00000240000802407B
:10353800000C02400010024080670008A8670008DD
:1035480008680008C8670008E867000828680008D5
:1035580078B1F8B5074F084E0546002437F814200F
:10356800214692B230460134FDF7BEF9A542F5D1A5
:10357800F8BD7047180000205068000870B5204852
:10358800204D214E82B0FDF7AFF92048FDF7ACF988
:10359800002435F81420214692B230460134FDF754
:1035A800A3F90A2CF5D11A48174EFDF79DF942F2F6
:1035B800765435F81420214692B230460134FDF78E
:1035C80093F9B4F5165FF4D11248134C01690269F6
:1035D800036900692469C0F30010C4F3C0140090A3
:1035E800C3F380130D480194C2F38022C1F3402134
:1035F800FDF77AF90A4802B0BDE87040FDF774B9E2
:1036080064680008180000205068000880680008F6
:10361800946800080000024000040240A8680008FE
:1036280000590008F8B500240F4D104F264603E056
:103638000134B4F5165F11D035F814309BB2002B65
:10364800F6D035F81420214692B238460134FDF7F9
:103658004BF9B4F5165F06F10106EDD13146044881
:10366800BDE8F840FDF740B918000020D868000808
:10367800F4680008174870B5FDF736F91649174B76
:103688000A681F2022F001020A6048610A6842F0B5
:1036980001020A6001E0013B17D08A68D207FAD517
:1036A8000D4D0F4E002405E0AA6A0134FDF71CF900
:1036B800322C04D06B685B0721463046F4D421468F
:1036C8000848BDE87040FDF70FB9BDE870400648EE
:1036D800FDF70AB91469000800000550404B4C007A
:1036E8005C69000874690008406900082DE9F84F12
:1036F8004348444CFDF7F8F84FF002084FF0000932
:10370800414E0027736943F001037361736923F025
:1037180001037361C4F80090236843F48043236075
:10372800236843F002032360236843F040032360C7
:10373800B8F1020F236842D043F080032360236866
:10374800002F56D043F020033049314A23603148D6
:10375800FDF7CAF82268304B42F00102226001E00E
:10376800013B28D02269D207FAD56369DFF8C4A0E3
:10377800002543F001036361AB4663685B07FCD532
:10378800A26A5AB90135142DF7D1BBF1000F21D027
:103798002248FDF7A9F847B90127B3E7294650465B
:1037A8000BF1010BFDF7A0F8ECE7B8F1010F15D00C
:1037B8004FF00108A4E71A48FDF796F8EBE723F065
:1037C80080032360236877B143F020031549104A2A
:1037D8002360BCE71448FDF787F8DCE7BDE8F84F3D
:1037E8001248FDF781B823F020030E49104A2360E0
:1037F800ADE723F0200305490D4A2360A7E700BF82
:10380800A46900080000055000380240E45F000881
:1038180094690008CC69000840420F00046A000857
:103828006C6A0008EC5F0008286A0008546A0008FF
:103838009C690008F069000810B5174C1748FDF797
:1038480053F823681648002223F48043236022603B
:10385800236843F002032360236843F48043236012
:10386800236843F001032360FDF73EF80D4B013B4D
:103878000CD062685207FAD5A16A0B4889B2FDF7E5
:1038880033F8BDE810400948FDF72EB8BDE81040F0
:103898000748FDF729B800BF00000550886A0008EE
:1038A800D45D000841420F00B46A0008C86A0008E5
:1038B800F06A00082DE9F0419EB01949194FDFF868
:1038C8006C80702202A801F035FB02AC1EAE002508
:1038D80007E0FDF709F808340A20FCF765FEB44252
:1038E80017D020788DF807500DF107010122FDF758
:1038F8001DFC62789DF8073061689A423846E8D125
:103908004046FCF7F1FF08340A20FCF74DFEB442AC
:10391800E7D10548FCF7E8FF1EB0BDE8F08100BF1D
:103928000C5400083C6B0008686B0008286B000802
:103938002DE9F04F4848494CDFF85C91484D494F14
:1039480089B04FF00008FCF7CFFF4748FCF7CCFFE1
:10395800CDE90588CDE90288CDE900884FF47A766B
:10396800CDF81080C246C346CDF81C802269910567
:1039780002D5079B0133079322695205D9F8102015
:1039880048BF0BF1010BD305D9F8102048BF0AF145
:10399800010A900502D5009B013300932A69D106DC
:1039A80002D5019B013301933A69520602D5029B65
:1039B800013302932A69930602D5039B01330393CB
:1039C8002A69500602D5049B013304932269D10663
:1039D80002D5059B013305933A69120602D5069B69
:1039E8000133069322690120530648BF08F10108F4
:1039F800FCF7DAFD013EB9D107991C48FCF774FFC2
:103A080059461B48FCF770FF51461A48FCF76CFFF3
:103A180000991948FCF768FF01991848FCF764FFFA
:103A280002991748FCF760FF03991648FCF75CFFFA
:103A380004991548FCF758FF05991448FCF754FFFA
:103A480006991348FCF750FF1248414609B0BDE8F3
:103A5800F04FFCF749BF00BF8C6B00080000024024
:103A68000010024000040240BC6B0008F46B000820
:103A7800106C0008306C00084C6C0008686C00087A
:103A8800846C0008A06C0008BC6C0008D86C0008A6
:103A9800F86C0008186D0008000802402DE9F04F86
:103AA8003148DFF8E08087B0FCF71EFF2F48FCF7AD
:103AB8001BFF2F4B1F69D8F81060D8F8104000235F
:103AC800C7F3C017C6F30016C4F3801402934FF46B
:103AD800FA6501930393264B1B69D8F8101003F07D
:103AE8008000BB46C3F3C0172346D8F810403246BF
:103AF80004F0400901F0100AC1F30016C4F3801461
:103B080010B1BBF1000F20D00120BAF1000F03D093
:103B180012B9019A02440192B9F1000F03D013B906
:103B2800029B01330293FCF73FFD013DD3D11148BD
:103B3800FCF7DAFE03991048FCF7D6FE02990F4805
:103B480007B0BDE8F04FFCF7CFBE01990C48CDE9AE
:103B58000423FCF7C9FE039BCDF804B0013303939B
:103B6800DDE90423D0E700BF386D0008586D000870
:103B780000040240B46D0008C86D0008E46D000838
:103B8800886D0008000002402DE9F04F2F48DFF84B
:103B9800D8802F4D85B0FCF7A7FE2E48FCF7A4FE71
:103BA8002D4B1F69D8F81060D8F810400023C7F3D0
:103BB800C017C6F30016C4F3801401930293009350
:103BC800254B1A69D8F81030B34603F0100AC3F32E
:103BD80000162346D8F8104002F08001384604F059
:103BE8004009C2F3C017C4F3801401B1A8B1BAF1F7
:103BF800000F02D0BBF1000F1BD0B9F1000F03D0AA
:103C080013B9009B01330093013DD9D113480299A0
:103C180005B0BDE8F04FFCF767BE0393029B019A1D
:103C28000190013319460E480293FCF75DFE039B91
:103C3800DDE70393019B009A0A4801331946019373
:103C4800FCF752FE039BCDF800B0D6E7FC6D0008E8
:103C580080841E00586D000800040240686E000849
:103C68001C6E00084C6E00080000024070B55C48ED
:103C78005C4C5D4E5D4DFCF737FE5D48FCF734FE4D
:103C8800A26A5C4B5C4812F0010F18BF1846FCF79B
:103C98002BFE5A48FCF728FEA26A594B594812F0E5
:103CA800C00F18BF1846FCF71FFE5748FCF71CFE4C
:103CB800A36A13F4806F0CBF30462846FCF714FE45
:103CC8005248FCF711FEA36A13F4007F0CBF30467C
:103CD8002846FCF709FE4E48FCF706FEA36AC3F324
:103CE8004133012B63D0022B75D0002B6FD049488C
:103CF800FCF7FAFD4848FCF7F7FD3A4B9B6AC3F31B
:103D0800C123012B5FD0022B59D0002B53D041483F
:103D1800FCF7EAFD334C4148E16A414E414DFCF75E
:103D2800E3FD616B4048FCF7DFFD216B3F48FCF782
:103D3800DBFD3F48FCF7D8FDA36A13F0100F0CBF5A
:103D480030462846FCF7D0FD3A48FCF7CDFDA36A7B
:103D580013F0080F0CBF30462846FCF7C5FD36485F
:103D6800FCF7C2FDA36A13F0040F0CBF30462846C7
:103D7800FCF7BAFD3148FCF7B7FDA26A1D4B1E4897
:103D880012F0020F18BF1846FCF7AEFD2C48FCF7DE
:103D9800ABFDE26B144B154812F0040F18BF184620
:103DA800FCF7A2FDBDE870402648FCF79DBD2648FB
:103DB800FCF79AFD9EE72548FCF796FDAAE72448FC
:103DC800FCF792FDA6E72048FCF78EFDA2E71F4806
:103DD800FCF78AFD8EE71E48FCF786FD8AE700BFE0
:103DE800FC6E000800640240E86E0008DC6E000803
:103DF800206F00088C6E0008906E00082C6F000879
:103E0800986E0008C46E0008386F0008546F0008E8
:103E1800746F0008946F0008A06F0008A86F00086E
:103E2800F86E0008F46E0008C86F0008E86F000814
:103E38000C70000820700008287000083070000816
:103E48003C70000854700008846F00087C6F0008FC
:103E58008C6F00082DE9F0419EB01949194FDFF821
:103E68006C80702202A801F065F802AC1EAE002535
:103E780007E0FCF739FD08340A20FCF795FBB4424B
:103E880017D020788DF807500DF107010122FDF7B2
:103E98004DF962789DF8073061689A423846E8D152
:103EA8004046FCF721FD08340A20FCF77DFBB442AC
:103EB800E7D10548FCF718FD1EB0BDE8F08100BF4A
:103EC8007C54000898700008C870000884700008C6
:103ED8002DE9F04F8448DFF84892A3B04FF0000A6C
:103EE800FCF702FD8148FCF7FFFCCDE903AACDE908
:103EF80020AACDE91EAACDE91CAACDE91AAACDE9C6
:103F080018AA4FF47A730193CDF808A05446554681
:103F180056465746D046D346CDF85CA0CDF814A0F7
:103F2800059B1093029B0F93039B0E93049BCDE973
:103F380015B8CDE90CA3DFF8EC816D4BD8F810E08B
:103F4800D8F810B0CDE91367A3F58063D3F81074DF
:103F5800D3F81064CDE91145D9F810501C69D9F887
:103F68001000D9F81010D8F810201B6904930EF42B
:103F78000073D8F810A0069306F40073079305F0B1
:103F88001003089304F04003099300F02003C0F3E2
:103F980040100A930590049B01F04000C1F3801182
:103FA800029102F01001C2F30012039203F08002A2
:103FB800C3F3C01304930AF040030B93069BCEF39C
:103FC800402807F4807C0BF4806EC7F30027CBF3FE
:103FD800802BC6F34026C5F30015C4F38014CAF33A
:103FE800801A23B1169B13B9179B01331793BEF19F
:103FF800000F04D0159B13B9189B01331893BCF11B
:10400800000F04D0149B13B9199B01331993079B14
:1040180023B1139B13B91A9B01331A93089B23B13D
:10402800129B13B91B9B01331B93099B23B1119B53
:1040380013B91C9B01331C930A9B23B1109B13B922
:104048001D9B01331D9320B10F9B13B91E9B013398
:104058001E9321B10E9B13B91F9B01331F9322B1ED
:104068000D9B13B9209B013320930B9B23B10C9B11
:1040780013B9219B013321930120FCF795FA019B89
:10408800013B01937FF44CAF17991A48FCF72CFCBD
:1040980018991948FCF728FC19991848FCF724FCCA
:1040A8001A991748FCF720FC1B991648FCF71CFCCA
:1040B8001C991548FCF718FC1D991448FCF714FCCA
:1040C8001E991348FCF710FC1F991248FCF70CFCCA
:1040D80020991148FCF708FC2199104823B0BDE845
:1040E800F04FFCF701BC00BF0C710008BC6B000866
:1040F8000008024040710008547100086C71000803
:104108008071000894710008A8710008BC7100084B
:10411800D0710008E4710008F87100080C720008FA
:10412800001002400000024070B5244C2448216869
:10413800244E254DFCF7D8FB2368244813F0400F84
:104148000CBF31462946FCF7CFFB2368204813F003
:10415800800F0CBF31462946FCF7C6FB22681D4B71
:104168001D491E4812F0200F18BF1946FCF7BCFB6A
:1041780021681B48C1F30011FCF7B6FB21681948F8
:10418800C1F3C001FCF7B0FB21681748C1F38001F7
:10419800FCF7AAFB2268154B1549164812F0020FC6
:1041A80018BF1946FCF7A0FB21681348C1F38031FA
:1041B800FCF79AFBBDE87040FFF78ABE0000055087
:1041C80050720008247200081C720008647200080B
:1041D8007872000828720008307200088C72000893
:1041E800A8720008B4720008C0720008387200088B
:1041F80044720008CC720008DC7200082DE9F04314
:10420800234885B0866AC76AD0F83080456BD0F8F5
:104218003C9004681F48FCF767FB04F47464434649
:104228003A46314600951C48CDF80490FCF75CFBF3
:10423800C4F38015C4F38022C4F30020C4F34023E0
:10424800E10A164CCDE900051548FCF74DFBA36AB9
:1042580014489BB2ADF80E30BDF80E1089B2FCF7C9
:1042680043FB21686268236825682068C5F38015C8
:10427800C0F34010019000950B48C3F3C013FCF73E
:1042880033FB0A4805B0BDE8F043FCF72DBB00BF7F
:1042980000640240F0720008107300080000055026
:1042A8005073000888730008A0730008DC730008C6
:1042B80070B51D4B1D485E689D681C6984B0FCF78D
:1042C80013FB06F00102C6F3400300923146C6F321
:1042D80080021748FCF708FBC5F30012C5F3C003BA
:1042E800C5F38000CDE901322946C5F3400305F046
:1042F800010200900F48FCF7F7FAC4F30011C4F369
:10430800C002C4F38003CDE9012100930A48C4F335
:10431800400304F001022146FCF7E6FA074804B01E
:10432800BDE87040FCF7E0BA00000550FC730008D7
:10433800F85E0008285F0008685F00080059000858
:10434800F8B50546AA200F46FCF7A8FA5520FCF751
:10435800A5FA77B10026288835F8024BC0F3072064
:10436800A4B2FCF79BFA0136E0B2FCF797FAB74221
:10437800F1D1F8BD30B5124C636983B001F01F016B
:1043880023F4006341F0200163618DF8071063692D
:1043980023F480536361054601210DF1070000F005
:1043A8003FFD0521284600F03BFD636943F4805337
:1043B8006361636943F40063636103B030BD00BFA8
:1043C8000004024010B500F01F0084B00D4C8DF8B9
:1043D800071040F020008DF80F00636923F4805324
:1043E80063610DF10F00012100F01AFD01210DF1AB
:1043F800070000F015FD636943F48053636104B05E
:1044080010BD00BF0004024010B51F491F4C82B008
:104418000B22002020238DF8062008708DF8073025
:10442800636923F4805363610DF10700012100F0F3
:10443800F7FC01210DF1060000F0F2FC636943F47A
:1044480080536361636943F4006363618220FCF70E
:10445800EBF8302227238DF806208DF807306369A2
:1044680023F4805363610DF10700012100F0D8FCAB
:1044780001210DF1060000F0D3FC636943F4805379
:10448800636102B010BD00BF709A002000040240B2
:1044980070B54E4D4E4A687069784E4CA2F10803CB
:1044A80082B0002918BF134610206B6000F03AFC58
:1044B800236823F440032360236843F480032360C4
:1044C800636823F440036360A36843F40003A360B4
:1044D800636923F400636361636943F48053636130
:1044E8006420FCF761F863696D682B2223F400638C
:1044F80063618DF80720636923F4805363610DF1CC
:104508000700012100F08CFC2846052100F088FCFA
:10451800636943F48053636163692522012543F489
:10452800006363618DF807208DF80650636923F4F2
:104538008053636129460DF1070000F071FC29469C
:104548000DF1060000F06CFC636943F4805363616D
:10455800202631238DF806608DF80730636923F42F
:104568008053636129460DF1070000F059FC294684
:104578000DF1060000F054FC636943F48053636155
:1045880032238DF806608DF80730636923F4805371
:1045980063610DF10700294600F042FC29460DF140
:1045A800060000F03DFC636943F480536361FFF744
:1045B8002BFF636923F480536361E22000F01EFC43
:1045C800636943F48053636102B070BD709A002040
:1045D8006C5500080004024010B5064C636923F4CA
:1045E80080536361E22000F009FC636943F480535F
:1045F800636110BD0004024030B583B0154C2A2316
:104608008DF80730636923F48053054663610DF123
:104618000700012100F004FC2846052100F000FCF9
:104628006369302243F4805363618DF8072063691E
:1046380023F4805363610DF10700012100F0F0FBC2
:104648000521284600F0ECFB636943F4805363615D
:1046580003B030BD0004024010B584B00D4C00F02A
:104668001F008DF80700636923F4805363610DF11F
:104678000700012100F0D4FB0DF10F00012100F02B
:10468800E5FB636943F4805363619DF80F0004B050
:1046980010BD00BF000402402DE9F04383B08046FE
:1046A800FCF7B8F83D4E3E4C054607271CE08DF850
:1046B8000670636923F48053636100F0B1FB4946D7
:1046C8000DF1070000F0C2FB636943F48053636196
:1046D8009DF8073013F0300F4FF47A71284653D104
:1046E800FCF79EF8002852D033785FFA83F9012B43
:1046F8000DF106004946DAD0294C6369012523F4F7
:104708000063636135700A2320268DF807608DF8F1
:104718000630636923F48053636129460DF107006D
:1047280000F07EFB29460DF1060000F079FB636975
:1047380043F480536361636923F480536361E12028
:1047480000F05CFB636943F480536361636923F49D
:10475800805363612946A0230DF107008DF80730C7
:1047680000F05EFB3146404600F05AFB636943F4B3
:1047780080536361636943F4006382206361FBF7DC
:1047880053FF03B0BDE8F08300233370B4E7054856
:1047980003B0BDE8F043FCF7A7B800BF709A00204B
:1047A800000402400C75000830B5144B1B78012B2F
:1047B80083B003D00024204603B030BD104DDCB2D6
:1047C80007238DF806306B6923F480536B610DF174
:1047D8000600214600F024FB21460DF1070000F0F9
:1047E80035FB6B6943F480536B619DF8073013F018
:1047F800300FE0D0FFF708FEDCE700BF709A00201A
:10480800000402402DE9F04182B0324D0E460446C4
:10481800FCF700F82A238DF807306B6923F48053DE
:104828006B61012107460DF1070000F0F9FA052137
:10483800204600F0F5FA6B6943F480536B6130232E
:104848008DF807306B6923F480536B6101210DF1FA
:10485800070000F0E5FA2046052100F0E1FA6B694F
:1048680043F4805330466B61FFF716FF1A4E4FF042
:1048780007083378012BDCB204D00024204602B0AC
:10488800BDE8F0818DF806806B6923F480536B6175
:1048980021460DF1060000F0C3FA21460DF107008C
:1048A80000F0D4FA6B6943F480536B619DF80730CC
:1048B80013F0300F4FF06401384607D1FBF7B0FF13
:1048C8000028D6D1204602B0BDE8F081FFF79CFD54
:1048D800D3E700BF00040240709A002010B582B0F0
:1048E8001C4C07238DF80630636923F480536361F9
:1048F80001210DF1060000F093FA01210DF10700E6
:1049080000F0A4FA636943F4805363619DF80730AB
:104918005B0602D5012002B010BD17238DF80630C2
:10492800636923F4805363610DF10600012100F0EF
:1049380077FA0DF10700012100F088FA636943F462
:10494800805363619DF80700C04300F0010002B086
:1049580010BD00BF0004024030B5184C636983B035
:1049680023F480536361054661230DF1050001219D
:104978008DF8053000F054FA2846202100F066FA38
:1049880063692722402143F4805363618DF8061040
:104998008DF80720636923F4805363610DF10700E4
:1049A800012100F03DFA01210DF1060000F038FA6E
:1049B800636943F48053636103B030BD000402406F
:1049C8002DE9F041434C82B0064620200D4600F008
:1049D800A9F9236823F440032360236843F4800380
:1049E8002360636823F400636360A36843F40003EF
:1049F800A360E36823F44003E360636923F400637E
:104A08006361636943F4805363610A2720238DF847
:104A180004708DF80330636923F4805363610DF1EA
:104A28000300012100F0FCF9012101A800F0F8F9C8
:104A3800636943F48053636140F2DC50FBF7F4FD93
:104A4800636923F4006363614FF0260897238DF8A8
:104A580003808DF80430636923F4805363610DF19A
:104A68000300012100F0DCF9012101A800F0D8F9C8
:104A7800636943F4805363613846FBF7D5FD636986
:104A880023F4006363618DF803808DF80450636933
:104A980023F4805363610DF10300012100F0C0F994
:104AA800E9B201A800F0BCF9636943F480533846C1
:104AB8006361FBF7B9FD636943F4006363613046E2
:104AC800FBF772FD636923F40063636102B0BDE81C
:104AD800F08100BF0004024070B500F01F0082B0F2
:104AE8000C4C40F020008DF80700636923F48053D4
:104AF800164663610D460DF10700012100F090F99B
:104B08003146284600F08CF9636943F480536361A9
:104B180002B070BD0004024010B5064C636923F46E
:104B280080536361E12000F069F9636943F48053BD
:104B3800636110BD0004024030B50F490F4C83B0CB
:104B480001250A2220230D708DF806208DF80730E4
:104B5800636923F4805363610DF10700294600F06F
:104B68005FF929460DF1060000F05AF9636943F42C
:104B78008053636103B030BD709A00200004024086
:104B88000749084B0A6B42F004020A631A6822F4C8
:104B980040521A60DA6842F48052DA60704700BF07
:104BA8000038024000080240034B1B695B065CBFEB
:104BB80001230370704700BF000802402849294AB2
:104BC800294B10B40C6B44F001040C63146844F4D2
:104BD80028441460546824F0E0045460946844F451
:104BE80028449460D46824F47C44D460146A44F063
:104BF800AA4444F4AA0414620C6B44F010040C6335
:104C08001C6844F040041C605C6824F008045C6084
:104C18009C6844F080049C60DC6824F0C004DC607C
:104C28005C6944F008045C614B6CA2F5504243F4A3
:104C380080534B6413889BB243F00403138013889A
:104C48009BB243F44073138013889BB203431380D1
:104C580013885DF8044B9BB243F040031380704700
:104C6800003802400000024000100240084A0023B9
:104C7800938113899807FCD5054A1389D907FCD570
:104C8800034A13891B06FCD49089C0B2704700BF41
:104C980000300140074A908113899807FCD5054ADE
:104CA8001389D907FCD5034A13891B06FCD49089BC
:104CB800C0B27047003001400A4AA5239381138986
:104CC8009807FCD5074A1389D907FCD5054A1389E3
:104CD8001B06FCD49089C0B2A0F1A500B0FA80F000
:104CE80040097047003001400B4AA523938113897E
:104CF8009807FCD5084A1389D907FCD5064A1389B1
:104D08001B06FCD49389DBB2A52B02D00348FBF722
:104D1800EBBD0348FBF7E8BD0030014024750008EF
:104D28001875000810B4284C284B216B284A41F00C
:104D380002012163196821F07C411960196841F06A
:104D480028411960596821F460415960996841F017
:104D580028419960D96821F07C41D960596A41F0AD
:104D6800AA4141F4A0015962196821F04071196003
:104D7800196841F080711960596821F480515960AF
:104D8800996841F000719960D96821F04071D96043
:104D9800596941F480515961236C042143F48043DB
:104DA8002364118013889BB243F4407313801388E3
:104DB8005DF8044B9BB20343138013889BB243F006
:104DC80040031380704700BF0038024000040240CF
:104DD80000380040084A0023938113899807FCD5BE
:104DE800054A1389D907FCD5034A13891B06FCD445
:104DF8009089C0B2704700BF00380040074A9081D0
:104E080013899807FCD5054A1389D907FCD5034AA5
:104E180013891B06FCD49089C0B270470038004043
:104E280081B1094B014410F8012B9A811A89920724
:104E3800FCD51A89D207FCD51A891206FCD48842F7
:104E48009A89F0D1704700BF0038004099B10A4BE9
:104E580001444FF0000CA3F80CC01A899207FCD546
:104E68001A89D207FCD51A891206FCD49A8900F847
:104E7800012B8842EFD17047003800406475000864
:104E880000000020489A0020489A0020789A0020C4
:104E9800002301461A46184600F038B908B5002123
:104EA800044600F067F9044B1868C36B03B19847D0
:104EB800204602F049FB00BF7455000838B5074D7D
:104EC800074C2C1BA41005D0013C55F8043D98470D
:104ED800002CF9D1BDE8384002F030BB64750008F9
:104EE8006075000870B50F4B0F4DAB42A3EB05067C
:104EF80007D0B610002455F8043B01349847A64261
:104F0800F9D802F015FB094D094B5E1BAB424FEA7D
:104F1800A60606D0002455F8043B01349847A6425B
:104F2800F9D870BD587500085875000858750008FC
:104F380060750008844641EA000313F003036DD14D
:104F4800403A41D351F8043B40F8043B51F8043B44
:104F580040F8043B51F8043B40F8043B51F8043B4B
:104F680040F8043B51F8043B40F8043B51F8043B3B
:104F780040F8043B51F8043B40F8043B51F8043B2B
:104F880040F8043B51F8043B40F8043B51F8043B1B
:104F980040F8043B51F8043B40F8043B51F8043B0B
:104FA80040F8043B51F8043B40F8043B51F8043BFB
:104FB80040F8043B51F8043B40F8043B51F8043BEB
:104FC80040F8043B403ABDD2303211D351F8043B8B
:104FD80040F8043B51F8043B40F8043B51F8043BCB
:104FE80040F8043B51F8043B40F8043B103AEDD23A
:104FF8000C3205D351F8043B40F8043B043AF9D28B
:10500800043208D0D2071CBF11F8013B00F8013B5D
:1050180001D30B8803806046704700BF082A13D36A
:105028008B078DD010F003038AD0C3F10403D21A82
:10503800DB071CBF11F8013B00F8013B80D331F8B6
:10504800023B20F8023B7BE7043AD9D3013A11F836
:10505800013B00F8013BF9D20B7803704B784370A1
:105068008B78837060467047830730B547D0541EED
:10507800002A3ED0CAB2034601E0013C39D303F806
:10508800012B9D07F9D1032C2CD9CDB205EB0525B1
:105098000F2C05EB054535D9A4F1100222F00F0CB1
:1050A80003F1100EE6444FEA121C1A4615605560CB
:1050B8009560D56010327245F8D10CF1010214F0F8
:1050C8000C0F03EB021204F00F0C13D0ACF1040325
:1050D80023F003030433134442F8045B9A42FBD1E0
:1050E8000CF003042CB1C9B21C4403F8011B9C4208
:1050F800FBD130BD64461346002CF4D1F9E70346D2
:105108001446C0E71A46A446E0E700BF70B4184C3E
:105118002568D5F848411CB365681F2D25DC38B9CA
:10512800AB1C0135656044F82310002070BC704743
:1051380004EB850C0228CCF88820D4F888614FF05D
:10514800010202FA05F246EA0206C4F88861CCF8C0
:105158000831E5D1D4F88C311343C4F88C31DFE73A
:1051680005F5A674C5F84841D6E74FF0FF30DDE7EE
:10517800745500082DE9F04F294B1F6883B0D7F804
:1051880048610190B6B18B464FF001084FF0000915
:105198007468651E0ED4013406EB8404BBF1000F5D
:1051A8000BD0D4F800315B4507D0013D6B1CA4F14E
:1051B8000404F3D103B0BDE8F08F73682268013BA3
:1051C800AB420CBF7560C4F80090002AEDD0D6F849
:1051D8008801D6F804A008FA05F101420BD19047DE
:1051E8007268524512D1D7F84831B342DDD01E4615
:1051F800002ECDD1DEE7D6F88C0101420BD1D4F8D0
:1052080080100198904772685245ECD0D7F84861F1
:10521800002EBDD1CEE7D4F880009047E0E700BF6C
:1052280074550008FEE700BF00B583B000232D20A9
:105238008DF80730FBF708FBFBF7AEFAFBF76CFAC3
:105248003048FBF751FBFFF79BFC0A20FBF7ACF952
:105258000DF10700FFF7A8FC9DF80700FFF718F904
:105268004FF47A70FBF7A0F92748FBF73DFB9DF850
:1052780007102648FBF738FB2548FBF735FB9DF858
:105288000730012B01D0FBF7BFF82248FBF72CFBB6
:105298002148FBF729FB2148FBF726FBFCF790FB8D
:1052A8006420FBF781F9FCF7A9F83220FBF77CF9B9
:1052B800FCF7C6FC4FF47A70FBF776F9FEF7CAFDE7
:1052C8001748FBF711FBFCF75FFD1648FBF70CFBD3
:1052D800FEF72AFF4FF496411348FDF751FB64206F
:1052E800FBF762F9FEF7C2FC1048FBF7FDFA0E481F
:1052F8004FF49641FDF758FA9DF80730012BC2D1BB
:10530800FAF7BAFFC0550008CC5500081056000837
:105318005456000898560008CC5600080057000854
:10532800345700087857000818000020B0570008C4
:10533800002103E00B4B5B58435004310A480B4BE8
:1053480042189A42F6D30A4A02E0002342F8043B84
:10535800084B9A42F9D3FBF761F8FFF7C3FDFFF753
:1053680063FF70476475000800000020489A002019
:10537800489A0020789A0020FEE70000024B13B1FB
:105388000248FFF785BD704700000000C54E0008C1
:105398003D400B4010402640354003400640144035
:1053A8000E400D4025401240284002401840094058
:1053B8000A400000128012148C0040D03A041438BD
:1053C80032801716180419021A7A030A703A7135CE
:1053D800721173F1A2024FB350B35100523D53A75B
:1053E80054E4589E6A400140026013E7FFFF000042
:1053F80012116B4073A200000401000000000000BD
:10540800D020E70012040000A8740008110300006F
:10541800247400080C0400002C7400087222000098
:105428007C740008703A0000B07400087135000000
:10543800BC74000873F200008C740008A20200001B
:10544800C87400083E1A00004474000840D00000E8
:10545800DC74000815200000A07400083A0400005D
:10546800E47400083B0A0000EC74000813E700002D
:10547800F47400081280000018740008110300007A
:10548800247400080C0400002C74000812040000A6
:10549800347400083E1A000044740008171600000F
:1054A8004C740008180400005474000832A400006A
:1054B8005C74000819020000647400081A7A00007D
:1054C8006C74000803A400007474000872220000C1
:1054D8007C74000873F200008C7400081502000048
:1054E800A074000812030000A8740008110100004D
:1054F800247400086B4A0000FC7400084000000097
:10550800DC74000873F100008C740008A20200002B
:10551800C8740008171600004C740008180400002E
:1055280054740008328000005C74000819020000FE
:10553800047500081A7A00006C740008030A000059
:1055480074740008703A0000B074000871350000E7
:10555800BC740008721100007C7400085344523077
:10556800300000004D4452303100000020960020E9
:105578003D400B4010402640354003400640144053
:105588000E400D4025401240284002401840094076
:105598000A4000004672616D65207072696D6C6A20
:1055A800656E2C20626172206D736D206461206AC3
:1055B800650A0A0A0A000000737461727420636F36
:1055C80064650A000A0A7777777777777777777746
:1055D8007777777777777777777777777777777753
:1055E8007777777777777777777777777777777743
:1055F8007777777777777777777777777777777733
:105608007777777777770A00772020202020202067
:105618002020202020202020202020206E524632CA
:10562800344C30312054785B315D2D52785B305DDD
:10563800203D3E205B25645D202020202020202066
:1056480020202020202020770A0000007777777715
:1056580077777777777777777777777777777777D2
:1056680077777777777777777777777777777777C2
:1056780077777777777777777777777777777777B2
:105688007777777777777777777777770A00000074
:105698005757575757575757575757575757575792
:1056A8005757575757575757575757575757575782
:1056B8005757575757575757575757575757770A9F
:1056C80000000000575757575757575757575720F5
:1056D80020536E617073686F74206F64204F563763
:1056E8003637392020205757575757575757575746
:1056F8005757570A000000005757575757575757DB
:105708005757575757575757575757575757575721
:105718005757575757575757575757575757575711
:10572800575757575757770A0A0A00003D3D3D3DDE
:105738003D3D3D3D3D3D3D3D3D3D3D3D3D3D3D3D91
:105748003D3D3D3D3D3D3D3D3D3D3D3D3D3D3D3D81
:105758003D3D3D3D3D3D3D3D3D3D3D3D3D3D3D3D71
:105768003D3D3D3D3D3D3D3D3D3D3D3D0A0000004B
:1057780044434D4920696E6963696A616C697A615D
:1057880063696A61206A65207A61767273656E6101
:105798002C20767273696D6F2070726F766A6572ED
:1057A800753A200A0A0000003D3D3D3D3D3D3D3D26
:1057B8003D3D3D3D3D3D3D3D737461727420736ECA
:1057C800617073686F743D3D3D3D3D3D3D3D3D3DE0
:1057D8003D3D3D3D0A0000004932432074696D6536
:1057E8006F7574210A0000002D3E204F563736375A
:1057F8003020696E6963696A616C697A6163696A94
:1058080061205151564741205247423536352031A3
:10581800363078313230202D207A61767273656E99
:105828006F210A002D3E204F563736373020696EDB
:105838006963696A616C697A6163696A6120515157
:10584800564741205247423536352046756C6C44E0
:10585800617461207A61767273656E61210A000055
:105868002D3E204F56373637302070726F6475637F
:1058780074204944202850494429205B30782578F1
:10588800625D0A002D3E204F563736373020766548
:105898007273696F6E202856455229205B3078252F
:1058A80078625D0A000000002020204B616D65725F
:1058B800612072616469206973707261766E6F0A23
:1058C80000000000202020204B616D657261206E71
:1058D800652072616469206973707261766E6F0AFF
:1058E800000000003D3D3D3D3D3D3D3D3D3D3D3DD4
:1058F8003D3D3D3D3D3D3D3D3D3D3D3D3D3D3D3DD0
:105908003D3D3D3D3D3D3D3D3D3D3D3D3D3D3D3DBF
:105918003D3D0A004F563736373020504944203D28
:1059280020307825780A00004F5637363730202D3A
:105938003E20496E697420515156474120524742D2
:10594800353635205245414459210A002D3E204F15
:10595800563736373020696E6963696A616C697ACF
:105968006163696A61207A6120313630783132307A
:1059780020524742353635207A61767273656E61FA
:10598800210A00004750494F41204D4F4445523DA0
:10599800307825787720414652303D307825787721
:1059A80020414652313D3078257877204944523D90
:1059B80030782578680A00003D3D3D2053746172B7
:1059C80074204672616D652043617074757265203C
:1059D800506F6C6C696E67203D3D3D0A0000000009
:1059E80054696D656F75742077616974696E672095
:1059F8005653594E432048494748210A00000000A1
:105A08005653594E43204849474820646574656396
:105A18007465642C206672616D652073746172749C
:105A28006564210A00000000436170747572656442
:105A380020256C7520706978656C730A0000000079
:105A48003D3D3D204672616D6520436170747572FD
:105A58006520506F6C6C696E6720456E64203D3D13
:105A68003D0A000054696D656F7574207768696C2C
:105A78006520636170747572696E67206672616D06
:105A880065210A0050727669682031302070697883
:105A9800656C613A200000003078257862200000AB
:105AA8005A61646E6A696820313020706978656C63
:105AB800613A2000556B75706E6F206FC48D6974E4
:105AC800616E696820706978656C613A2025640A9E
